{"contracts/DexV1.sol":{"DexV1":{"abi":[{"inputs":[{"internalType":"address","name":"yeahTokenAddress","type":"address"}],"stateMutability":"nonpayable","type":"constructor"},{"anonymous":false,"inputs":[{"indexed":true,"internalType":"address","name":"user","type":"address"},{"indexed":true,"internalType":"uint256","name":"ethDeposited","type":"uint256"},{"indexed":true,"internalType":"uint256","name":"tokensDeposited","type":"uint256"}],"name":"Deposited","type":"event"},{"anonymous":false,"inputs":[{"indexed":true,"internalType":"address","name":"user","type":"address"},{"indexed":true,"internalType":"uint256","name":"ethSent","type":"uint256"},{"indexed":true,"internalType":"uint256","name":"tokensBought","type":"uint256"}],"name":"EthToTokenExchanged","type":"event"},{"anonymous":false,"inputs":[{"indexed":true,"internalType":"uint256","name":"ETHAmount","type":"uint256"},{"indexed":true,"internalType":"uint256","name":"TokenAmount","type":"uint256"},{"indexed":true,"internalType":"address","name":"initializer","type":"address"}],"name":"Initialized","type":"event"},{"anonymous":false,"inputs":[{"indexed":true,"internalType":"address","name":"LPTokenAddress","type":"address"},{"indexed":true,"internalType":"address","name":"user","type":"address"},{"indexed":true,"internalType":"uint256","name":"time","type":"uint256"}],"name":"LPTokenAddressSet","type":"event"},{"anonymous":false,"inputs":[{"indexed":true,"internalType":"address","name":"user","type":"address"},{"indexed":true,"internalType":"uint256","name":"tokensSent","type":"uint256"},{"indexed":true,"internalType":"uint256","name":"ethBought","type":"uint256"}],"name":"TokenToEthExchanged","type":"event"},{"anonymous":false,"inputs":[{"indexed":true,"internalType":"address","name":"user","type":"address"},{"indexed":true,"internalType":"uint256","name":"ethWithdrawed","type":"uint256"},{"indexed":true,"internalType":"uint256","name":"tokensWithdrawed","type":"uint256"}],"name":"Withdrawed","type":"event"},{"inputs":[],"name":"LPTokenAddress","outputs":[{"internalType":"address","name":"","type":"address"}],"stateMutability":"view","type":"function"},{"inputs":[],"name":"LPTokenAddressSetter","outputs":[{"internalType":"address","name":"","type":"address"}],"stateMutability":"view","type":"function"},{"inputs":[],"name":"deposit","outputs":[{"internalType":"uint256","name":"","type":"uint256"}],"stateMutability":"payable","type":"function"},{"inputs":[],"name":"ethToToken","outputs":[{"internalType":"uint256","name":"","type":"uint256"}],"stateMutability":"payable","type":"function"},{"inputs":[{"internalType":"uint256","name":"msgValue","type":"uint256"}],"name":"ethToTokenView","outputs":[{"internalType":"uint256","name":"","type":"uint256"}],"stateMutability":"view","type":"function"},{"inputs":[],"name":"getLiquidity","outputs":[{"internalType":"uint256","name":"","type":"uint256"}],"stateMutability":"view","type":"function"},{"inputs":[],"name":"getTokenReserves","outputs":[{"internalType":"uint256","name":"","type":"uint256"}],"stateMutability":"view","type":"function"},{"inputs":[],"name":"getTotalLiquidity","outputs":[{"internalType":"uint256","name":"","type":"uint256"}],"stateMutability":"view","type":"function"},{"inputs":[{"internalType":"uint256","name":"tokens","type":"uint256"}],"name":"init","outputs":[{"internalType":"uint256","name":"","type":"uint256"}],"stateMutability":"payable","type":"function"},{"inputs":[{"internalType":"address","name":"_LPTokenAddress","type":"address"}],"name":"setLPTokenAddress","outputs":[],"stateMutability":"nonpayable","type":"function"},{"inputs":[{"internalType":"uint256","name":"tokens","type":"uint256"}],"name":"tokenToEth","outputs":[{"internalType":"uint256","name":"","type":"uint256"}],"stateMutability":"payable","type":"function"},{"inputs":[{"internalType":"uint256","name":"tokens","type":"uint256"}],"name":"tokenToEthView","outputs":[{"internalType":"uint256","name":"","type":"uint256"}],"stateMutability":"view","type":"function"},{"inputs":[],"name":"totalLiquidity","outputs":[{"internalType":"uint256","name":"","type":"uint256"}],"stateMutability":"view","type":"function"},{"inputs":[{"internalType":"uint256","name":"amount","type":"uint256"}],"name":"withdraw","outputs":[{"internalType":"uint256","name":"","type":"uint256"},{"internalType":"uint256","name":"","type":"uint256"}],"stateMutability":"nonpayable","type":"function"}],"devdoc":{"author":"0x4152","kind":"dev","methods":{"deposit()":{"details":"The amount of tokens introduced into the pool will depend on how much ETH is sent and the pool's asset ratio, the user will need to approve the token amount.","returns":{"_0":"The LP token amount minted to the user."}},"ethToToken()":{"details":"The amount of tokens returned is calculated by the price function.","returns":{"_0":"The amount of tokens that have been bought."}},"ethToTokenView(uint256)":{"details":"Used to certify correct calculation off-chain","params":{"msgValue":"The amount of ETH the user would be sending to exchange in a ethToToken call as msg.value"},"returns":{"_0":"The amount of tokens the user would recieve in return for the ETH amount inputed."}},"init(uint256)":{"details":"The initial ratio deposited will hugely impact exchange price of assets","params":{"tokens":"The amount of DEX tokens the user wants to deposit in the liquidity pool relative to the msg.value"},"returns":{"_0":"The total amount of liquidity, that's represented by LP tokens."}},"setLPTokenAddress(address)":{"details":"The LP token address represents a huge weak point, the LPTokenAddressSetter address is a fully trusted account.","params":{"_LPTokenAddress":"The address of the ERC20 LP token, that represents the liquidity providers stake in the pool."}},"tokenToEth(uint256)":{"details":"This function will need approval from user to this contract to transfer their DEX tokens.","params":{"tokens":"The amount of DEX tokens the user wants to exchange."},"returns":{"_0":"The amount of ETH the user gets in return for exchaning tokens."}},"tokenToEthView(uint256)":{"details":"Used to certify correct calculation off-chain","params":{"tokens":"The amount of tokens we would be exchanging."},"returns":{"_0":"The amount of ETH the user would recieve in return for the DEX token amount inputed."}},"withdraw(uint256)":{"details":"The minting and burning of the LP tokens can only be performed by this contract.","returns":{"_0":"The ETH amount and the DEX token amount returned for withdrawing the liquidity."}}},"title":"AMM Decentralized Exchange for DEX / ETH pair","version":1},"evm":{"bytecode":{"linkReferences":{},"object":"60806040526000600260146101000a81548160ff0219169083151502179055506000600260156101000a81548160ff0219169083151502179055503480156200004757600080fd5b50604051620024f5380380620024f583398181016040528101906200006d91906200015f565b806000806101000a81548173ffffffffffffffffffffffffffffffffffffffff021916908373ffffffffffffffffffffffffffffffffffffffff16021790555033600360006101000a81548173ffffffffffffffffffffffffffffffffffffffff021916908373ffffffffffffffffffffffffffffffffffffffff1602179055505062000191565b600080fd5b600073ffffffffffffffffffffffffffffffffffffffff82169050919050565b60006200012782620000fa565b9050919050565b62000139816200011a565b81146200014557600080fd5b50565b60008151905062000159816200012e565b92915050565b600060208284031215620001785762000177620000f5565b5b6000620001888482850162000148565b91505092915050565b61235480620001a16000396000f3fe6080604052600436106100dd5760003560e01c806386e35a9a1161007f578063b9cf500511610059578063b9cf5005146102c4578063c3828bf0146102ef578063d0e30db01461031a578063f42ebbe014610338576100dd565b806386e35a9a1461022c5780639b2a75d414610269578063b7b0422d14610294576100dd565b806335c7e925116100bb57806335c7e9251461017657806370b2a30f146101a1578063789770f4146101d157806380c1443b146101ef576100dd565b80630910a510146100e257806315770f921461010d5780632e1a7d4d14610138575b600080fd5b3480156100ee57600080fd5b506100f7610361565b60405161010491906118ee565b60405180910390f35b34801561011957600080fd5b50610122610369565b60405161012f91906118ee565b60405180910390f35b34801561014457600080fd5b5061015f600480360381019061015a919061193a565b61036f565b60405161016d929190611967565b60405180910390f35b34801561018257600080fd5b5061018b610773565b60405161019891906118ee565b60405180910390f35b6101bb60048036038101906101b6919061193a565b61077d565b6040516101c891906118ee565b60405180910390f35b6101d9610a7c565b6040516101e691906118ee565b60405180910390f35b3480156101fb57600080fd5b506102166004803603810190610211919061193a565b610cd5565b60405161022391906118ee565b60405180910390f35b34801561023857600080fd5b50610253600480360381019061024e919061193a565b610d9c565b60405161026091906118ee565b60405180910390f35b34801561027557600080fd5b5061027e610e63565b60405161028b91906119d1565b60405180910390f35b6102ae60048036038101906102a9919061193a565b610e89565b6040516102bb91906118ee565b60405180910390f35b3480156102d057600080fd5b506102d9611238565b6040516102e691906118ee565b60405180910390f35b3480156102fb57600080fd5b506103046112e9565b60405161031191906119d1565b60405180910390f35b61032261130f565b60405161032f91906118ee565b60405180910390f35b34801561034457600080fd5b5061035f600480360381019061035a9190611a18565b6116e3565b005b600047905090565b60015481565b60008060011515600260159054906101000a900460ff161515146103c8576040517f08c379a00000000000000000000000000000000000000000000000000000000081526004016103bf90611ac8565b60405180910390fd5b60008060009054906101000a900473ffffffffffffffffffffffffffffffffffffffff1673ffffffffffffffffffffffffffffffffffffffff166370a08231306040518263ffffffff1660e01b815260040161042491906119d1565b60206040518083038186803b15801561043c57600080fd5b505afa158015610450573d6000803e3d6000fd5b505050506040513d601f19601f820116820180604052508101906104749190611afd565b9050600060015447866104879190611b59565b6104919190611be2565b9050600060015483876104a49190611b59565b6104ae9190611be2565b90506000600260009054906101000a900473ffffffffffffffffffffffffffffffffffffffff1673ffffffffffffffffffffffffffffffffffffffff1633886040516024016104fe929190611c13565b6040516020818303038152906040527f9159521f000000000000000000000000000000000000000000000000000000007bffffffffffffffffffffffffffffffffffffffffffffffffffffffff19166020820180517bffffffffffffffffffffffffffffffffffffffffffffffffffffffff83818316178352505050506040516105889190611cb6565b6000604051808303816000865af19150503d80600081146105c5576040519150601f19603f3d011682016040523d82523d6000602084013e6105ca565b606091505b505090508061060e576040517f08c379a000000000000000000000000000000000000000000000000000000000815260040161060590611d19565b60405180910390fd5b8660015461061c9190611d39565b6001819055503373ffffffffffffffffffffffffffffffffffffffff166108fc849081150290604051600060405180830381858888f19350505050158015610668573d6000803e3d6000fd5b5060008054906101000a900473ffffffffffffffffffffffffffffffffffffffff1673ffffffffffffffffffffffffffffffffffffffff1663a9059cbb33846040518363ffffffff1660e01b81526004016106c4929190611c13565b602060405180830381600087803b1580156106de57600080fd5b505af11580156106f2573d6000803e3d6000fd5b505050506040513d601f19601f820116820180604052508101906107169190611da5565b61071f57600080fd5b81833373ffffffffffffffffffffffffffffffffffffffff167f4cdcd27ae88503b2d4d3034a348b78aec00eca6369f48e5002ca3df8686b9b3e60405160405180910390a482829550955050505050915091565b6000600154905090565b600060011515600260159054906101000a900460ff161515146107d5576040517f08c379a00000000000000000000000000000000000000000000000000000000081526004016107cc90611ac8565b60405180910390fd5b60008060009054906101000a900473ffffffffffffffffffffffffffffffffffffffff1673ffffffffffffffffffffffffffffffffffffffff166370a08231306040518263ffffffff1660e01b815260040161083191906119d1565b60206040518083038186803b15801561084957600080fd5b505afa15801561085d573d6000803e3d6000fd5b505050506040513d601f19601f820116820180604052508101906108819190611afd565b9050600061089084834761187d565b905060008054906101000a900473ffffffffffffffffffffffffffffffffffffffff1673ffffffffffffffffffffffffffffffffffffffff166323b872dd3330876040518463ffffffff1660e01b81526004016108ef93929190611dd2565b602060405180830381600087803b15801561090957600080fd5b505af115801561091d573d6000803e3d6000fd5b505050506040513d601f19601f820116820180604052508101906109419190611da5565b610980576040517f08c379a000000000000000000000000000000000000000000000000000000000815260040161097790611e55565b60405180910390fd5b60003373ffffffffffffffffffffffffffffffffffffffff16826040516109a690611e9b565b60006040518083038185875af1925050503d80600081146109e3576040519150601f19603f3d011682016040523d82523d6000602084013e6109e8565b606091505b5050905080610a2c576040517f08c379a0000000000000000000000000000000000000000000000000000000008152600401610a2390611efc565b60405180910390fd5b81853373ffffffffffffffffffffffffffffffffffffffff167f5318c777103946814b46248dbdc94be4bed778ae0d794ddf73bb3f62474df8f060405160405180910390a4819350505050919050565b600060011515600260159054906101000a900460ff16151514610ad4576040517f08c379a0000000000000000000000000000000000000000000000000000000008152600401610acb90611ac8565b60405180910390fd5b60008060009054906101000a900473ffffffffffffffffffffffffffffffffffffffff1673ffffffffffffffffffffffffffffffffffffffff166370a08231306040518263ffffffff1660e01b8152600401610b3091906119d1565b60206040518083038186803b158015610b4857600080fd5b505afa158015610b5c573d6000803e3d6000fd5b505050506040513d601f19601f82011682018060405250810190610b809190611afd565b90506000610b9a343447610b949190611d39565b8461187d565b905060008054906101000a900473ffffffffffffffffffffffffffffffffffffffff1673ffffffffffffffffffffffffffffffffffffffff1663a9059cbb33836040518363ffffffff1660e01b8152600401610bf7929190611c13565b602060405180830381600087803b158015610c1157600080fd5b505af1158015610c25573d6000803e3d6000fd5b505050506040513d601f19601f82011682018060405250810190610c499190611da5565b610c88576040517f08c379a0000000000000000000000000000000000000000000000000000000008152600401610c7f90611f68565b60405180910390fd5b80343373ffffffffffffffffffffffffffffffffffffffff167f401f833a0b9902aaeca3e915f5c2286b037e7f5e4286a6ba479f3bc748685e2c60405160405180910390a4809250505090565b60008060008054906101000a900473ffffffffffffffffffffffffffffffffffffffff1673ffffffffffffffffffffffffffffffffffffffff166370a08231306040518263ffffffff1660e01b8152600401610d3191906119d1565b60206040518083038186803b158015610d4957600080fd5b505afa158015610d5d573d6000803e3d6000fd5b505050506040513d601f19601f82011682018060405250810190610d819190611afd565b90506000610d9084478461187d565b90508092505050919050565b60008060008054906101000a900473ffffffffffffffffffffffffffffffffffffffff1673ffffffffffffffffffffffffffffffffffffffff166370a08231306040518263ffffffff1660e01b8152600401610df891906119d1565b60206040518083038186803b158015610e1057600080fd5b505afa158015610e24573d6000803e3d6000fd5b505050506040513d601f19601f82011682018060405250810190610e489190611afd565b90506000610e5784834761187d565b90508092505050919050565b600360009054906101000a900473ffffffffffffffffffffffffffffffffffffffff1681565b600060011515600260149054906101000a900460ff16151514610ee1576040517f08c379a0000000000000000000000000000000000000000000000000000000008152600401610ed890611ffa565b60405180910390fd5b600060015414610f26576040517f08c379a0000000000000000000000000000000000000000000000000000000008152600401610f1d90612066565b60405180910390fd5b60003411610f69576040517f08c379a0000000000000000000000000000000000000000000000000000000008152600401610f60906120d2565b60405180910390fd5b60008211610fac576040517f08c379a0000000000000000000000000000000000000000000000000000000008152600401610fa39061213e565b60405180910390fd5b4760018190555060008054906101000a900473ffffffffffffffffffffffffffffffffffffffff1673ffffffffffffffffffffffffffffffffffffffff166323b872dd3330856040518463ffffffff1660e01b815260040161101093929190611dd2565b602060405180830381600087803b15801561102a57600080fd5b505af115801561103e573d6000803e3d6000fd5b505050506040513d601f19601f820116820180604052508101906110629190611da5565b61106b57600080fd5b6000600260009054906101000a900473ffffffffffffffffffffffffffffffffffffffff1673ffffffffffffffffffffffffffffffffffffffff16336001546040516024016110bb929190611c13565b6040516020818303038152906040527f0549a1be000000000000000000000000000000000000000000000000000000007bffffffffffffffffffffffffffffffffffffffffffffffffffffffff19166020820180517bffffffffffffffffffffffffffffffffffffffffffffffffffffffff83818316178352505050506040516111459190611cb6565b6000604051808303816000865af19150503d8060008114611182576040519150601f19603f3d011682016040523d82523d6000602084013e611187565b606091505b50509050806111cb576040517f08c379a00000000000000000000000000000000000000000000000000000000081526004016111c2906121aa565b60405180910390fd5b6001600260156101000a81548160ff0219169083151502179055503373ffffffffffffffffffffffffffffffffffffffff16836001547ff125169608390d6b5a774e5c064d5a7c558839a45f04600c7b1d5c9b8da0899960405160405180910390a4600154915050919050565b60008060009054906101000a900473ffffffffffffffffffffffffffffffffffffffff1673ffffffffffffffffffffffffffffffffffffffff166370a08231306040518263ffffffff1660e01b815260040161129491906119d1565b60206040518083038186803b1580156112ac57600080fd5b505afa1580156112c0573d6000803e3d6000fd5b505050506040513d601f19601f820116820180604052508101906112e49190611afd565b905090565b600260009054906101000a900473ffffffffffffffffffffffffffffffffffffffff1681565b600060011515600260159054906101000a900460ff16151514611367576040517f08c379a000000000000000000000000000000000000000000000000000000000815260040161135e90611ac8565b60405180910390fd5b600034476113759190611d39565b905060008060009054906101000a900473ffffffffffffffffffffffffffffffffffffffff1673ffffffffffffffffffffffffffffffffffffffff166370a08231306040518263ffffffff1660e01b81526004016113d391906119d1565b60206040518083038186803b1580156113eb57600080fd5b505afa1580156113ff573d6000803e3d6000fd5b505050506040513d601f19601f820116820180604052508101906114239190611afd565b9050600060018383346114369190611b59565b6114409190611be2565b61144a91906121ca565b90506000836001543461145d9190611b59565b6114679190611be2565b90508060015461147791906121ca565b60018190555060008054906101000a900473ffffffffffffffffffffffffffffffffffffffff1673ffffffffffffffffffffffffffffffffffffffff166323b872dd3330856040518463ffffffff1660e01b81526004016114da93929190611dd2565b602060405180830381600087803b1580156114f457600080fd5b505af1158015611508573d6000803e3d6000fd5b505050506040513d601f19601f8201168201806040525081019061152c9190611da5565b61153557600080fd5b6000600260009054906101000a900473ffffffffffffffffffffffffffffffffffffffff1673ffffffffffffffffffffffffffffffffffffffff163383604051602401611583929190611c13565b6040516020818303038152906040527f0549a1be000000000000000000000000000000000000000000000000000000007bffffffffffffffffffffffffffffffffffffffffffffffffffffffff19166020820180517bffffffffffffffffffffffffffffffffffffffffffffffffffffffff838183161783525050505060405161160d9190611cb6565b6000604051808303816000865af19150503d806000811461164a576040519150601f19603f3d011682016040523d82523d6000602084013e61164f565b606091505b5050905080611693576040517f08c379a000000000000000000000000000000000000000000000000000000000815260040161168a906121aa565b60405180910390fd5b82343373ffffffffffffffffffffffffffffffffffffffff167f73a19dd210f1a7f902193214c0ee91dd35ee5b4d920cba8d519eca65a7b488ca60405160405180910390a4819550505050505090565b600260149054906101000a900460ff1615611733576040517f08c379a000000000000000000000000000000000000000000000000000000000815260040161172a90612292565b60405180910390fd5b600360009054906101000a900473ffffffffffffffffffffffffffffffffffffffff1673ffffffffffffffffffffffffffffffffffffffff163373ffffffffffffffffffffffffffffffffffffffff16146117c3576040517f08c379a00000000000000000000000000000000000000000000000000000000081526004016117ba906122fe565b60405180910390fd5b80600260006101000a81548173ffffffffffffffffffffffffffffffffffffffff021916908373ffffffffffffffffffffffffffffffffffffffff1602179055506001600260146101000a81548160ff021916908315150217905550423373ffffffffffffffffffffffffffffffffffffffff168273ffffffffffffffffffffffffffffffffffffffff167f4961ebe740e0a6ad6d500be9a192ef37ffaec7468276312286cd31ee2bb1520c60405160405180910390a450565b6000806103e58561188e9190611b59565b90506000818461189e9190611b59565b90506000826103e8876118b19190611b59565b6118bb91906121ca565b905080826118c99190611be2565b93505050509392505050565b6000819050919050565b6118e8816118d5565b82525050565b600060208201905061190360008301846118df565b92915050565b600080fd5b611917816118d5565b811461192257600080fd5b50565b6000813590506119348161190e565b92915050565b6000602082840312156119505761194f611909565b5b600061195e84828501611925565b91505092915050565b600060408201905061197c60008301856118df565b61198960208301846118df565b9392505050565b600073ffffffffffffffffffffffffffffffffffffffff82169050919050565b60006119bb82611990565b9050919050565b6119cb816119b0565b82525050565b60006020820190506119e660008301846119c2565b92915050565b6119f5816119b0565b8114611a0057600080fd5b50565b600081359050611a12816119ec565b92915050565b600060208284031215611a2e57611a2d611909565b5b6000611a3c84828501611a03565b91505092915050565b600082825260208201905092915050565b7f6c697175696469747920706f6f6c20686173206e6f74206265656e20696e697460008201527f69616c697a656420796574000000000000000000000000000000000000000000602082015250565b6000611ab2602b83611a45565b9150611abd82611a56565b604082019050919050565b60006020820190508181036000830152611ae181611aa5565b9050919050565b600081519050611af78161190e565b92915050565b600060208284031215611b1357611b12611909565b5b6000611b2184828501611ae8565b91505092915050565b7f4e487b7100000000000000000000000000000000000000000000000000000000600052601160045260246000fd5b6000611b64826118d5565b9150611b6f836118d5565b9250817fffffffffffffffffffffffffffffffffffffffffffffffffffffffffffffffff0483118215151615611ba857611ba7611b2a565b5b828202905092915050565b7f4e487b7100000000000000000000000000000000000000000000000000000000600052601260045260246000fd5b6000611bed826118d5565b9150611bf8836118d5565b925082611c0857611c07611bb3565b5b828204905092915050565b6000604082019050611c2860008301856119c2565b611c3560208301846118df565b9392505050565b600081519050919050565b600081905092915050565b60005b83811015611c70578082015181840152602081019050611c55565b83811115611c7f576000848401525b50505050565b6000611c9082611c3c565b611c9a8185611c47565b9350611caa818560208601611c52565b80840191505092915050565b6000611cc28284611c85565b915081905092915050565b7f6275726e207478206661696c6564000000000000000000000000000000000000600082015250565b6000611d03600e83611a45565b9150611d0e82611ccd565b602082019050919050565b60006020820190508181036000830152611d3281611cf6565b9050919050565b6000611d44826118d5565b9150611d4f836118d5565b925082821015611d6257611d61611b2a565b5b828203905092915050565b60008115159050919050565b611d8281611d6d565b8114611d8d57600080fd5b50565b600081519050611d9f81611d79565b92915050565b600060208284031215611dbb57611dba611909565b5b6000611dc984828501611d90565b91505092915050565b6000606082019050611de760008301866119c2565b611df460208301856119c2565b611e0160408301846118df565b949350505050565b7f6661696c656420746f207472616e7366657220746f6b656e7300000000000000600082015250565b6000611e3f601983611a45565b9150611e4a82611e09565b602082019050919050565b60006020820190508181036000830152611e6e81611e32565b9050919050565b50565b6000611e85600083611c47565b9150611e9082611e75565b600082019050919050565b6000611ea682611e78565b9150819050919050565b7f6661696c656420746f2073656e64204554480000000000000000000000000000600082015250565b6000611ee6601283611a45565b9150611ef182611eb0565b602082019050919050565b60006020820190508181036000830152611f1581611ed9565b9050919050565b7f6661696c656420746f207472616e736665722045544800000000000000000000600082015250565b6000611f52601683611a45565b9150611f5d82611f1c565b602082019050919050565b60006020820190508181036000830152611f8181611f45565b9050919050565b7f4c5020746f6b656e204164647265737320686173206e6f74206265656e20736560008201527f7420796574000000000000000000000000000000000000000000000000000000602082015250565b6000611fe4602583611a45565b9150611fef82611f88565b604082019050919050565b6000602082019050818103600083015261201381611fd7565b9050919050565b7f6465782068617320616c7265616479206265656e20696e697469616c697a6564600082015250565b6000612050602083611a45565b915061205b8261201a565b602082019050919050565b6000602082019050818103600083015261207f81612043565b9050919050565b7f45544820616d6f756e74206d757374206265206f766572203000000000000000600082015250565b60006120bc601983611a45565b91506120c782612086565b602082019050919050565b600060208201905081810360008301526120eb816120af565b9050919050565b7f44455820746f6b656e20616d6f756e74206d757374206265206f766572203000600082015250565b6000612128601f83611a45565b9150612133826120f2565b602082019050919050565b600060208201905081810360008301526121578161211b565b9050919050565b7f6d696e74207478206661696c6564000000000000000000000000000000000000600082015250565b6000612194600e83611a45565b915061219f8261215e565b602082019050919050565b600060208201905081810360008301526121c381612187565b9050919050565b60006121d5826118d5565b91506121e0836118d5565b9250827fffffffffffffffffffffffffffffffffffffffffffffffffffffffffffffffff0382111561221557612214611b2a565b5b828201905092915050565b7f4c5020746f6b656e20616464726573732068617320616c72656164792062656560008201527f6e20736574000000000000000000000000000000000000000000000000000000602082015250565b600061227c602583611a45565b915061228782612220565b604082019050919050565b600060208201905081810360008301526122ab8161226f565b9050919050565b7f796f7520617265206e6f74207468652061646472657373207365747465720000600082015250565b60006122e8601e83611a45565b91506122f3826122b2565b602082019050919050565b60006020820190508181036000830152612317816122db565b905091905056fea2646970667358221220c979af62860ce08ea2185a401bc3cd8a8419d1352b944c574606c0528888d34664736f6c63430008090033","opcodes":"PUSH1 0x80 PUSH1 0x40 MSTORE PUSH1 0x0 PUSH1 0x2 PUSH1 0x14 PUSH2 0x100 EXP DUP2 SLOAD DUP2 PUSH1 0xFF MUL NOT AND SWAP1 DUP4 ISZERO ISZERO MUL OR SWAP1 SSTORE POP PUSH1 0x0 PUSH1 0x2 PUSH1 0x15 PUSH2 0x100 EXP DUP2 SLOAD DUP2 PUSH1 0xFF MUL NOT AND SWAP1 DUP4 ISZERO ISZERO MUL OR SWAP1 SSTORE POP CALLVALUE DUP1 ISZERO PUSH3 0x47 JUMPI PUSH1 0x0 DUP1 REVERT JUMPDEST POP PUSH1 0x40 MLOAD PUSH3 0x24F5 CODESIZE SUB DUP1 PUSH3 0x24F5 DUP4 CODECOPY DUP2 DUP2 ADD PUSH1 0x40 MSTORE DUP2 ADD SWAP1 PUSH3 0x6D SWAP2 SWAP1 PUSH3 0x15F JUMP JUMPDEST DUP1 PUSH1 0x0 DUP1 PUSH2 0x100 EXP DUP2 SLOAD DUP2 PUSH20 0xFFFFFFFFFFFFFFFFFFFFFFFFFFFFFFFFFFFFFFFF MUL NOT AND SWAP1 DUP4 PUSH20 0xFFFFFFFFFFFFFFFFFFFFFFFFFFFFFFFFFFFFFFFF AND MUL OR SWAP1 SSTORE POP CALLER PUSH1 0x3 PUSH1 0x0 PUSH2 0x100 EXP DUP2 SLOAD DUP2 PUSH20 0xFFFFFFFFFFFFFFFFFFFFFFFFFFFFFFFFFFFFFFFF MUL NOT AND SWAP1 DUP4 PUSH20 0xFFFFFFFFFFFFFFFFFFFFFFFFFFFFFFFFFFFFFFFF AND MUL OR SWAP1 SSTORE POP POP PUSH3 0x191 JUMP JUMPDEST PUSH1 0x0 DUP1 REVERT JUMPDEST PUSH1 0x0 PUSH20 0xFFFFFFFFFFFFFFFFFFFFFFFFFFFFFFFFFFFFFFFF DUP3 AND SWAP1 POP SWAP2 SWAP1 POP JUMP JUMPDEST PUSH1 0x0 PUSH3 0x127 DUP3 PUSH3 0xFA JUMP JUMPDEST SWAP1 POP SWAP2 SWAP1 POP JUMP JUMPDEST PUSH3 0x139 DUP2 PUSH3 0x11A JUMP JUMPDEST DUP2 EQ PUSH3 0x145 JUMPI PUSH1 0x0 DUP1 REVERT JUMPDEST POP JUMP JUMPDEST PUSH1 0x0 DUP2 MLOAD SWAP1 POP PUSH3 0x159 DUP2 PUSH3 0x12E JUMP JUMPDEST SWAP3 SWAP2 POP POP JUMP JUMPDEST PUSH1 0x0 PUSH1 0x20 DUP3 DUP5 SUB SLT ISZERO PUSH3 0x178 JUMPI PUSH3 0x177 PUSH3 0xF5 JUMP JUMPDEST JUMPDEST PUSH1 0x0 PUSH3 0x188 DUP5 DUP3 DUP6 ADD PUSH3 0x148 JUMP JUMPDEST SWAP2 POP POP SWAP3 SWAP2 POP POP JUMP JUMPDEST PUSH2 0x2354 DUP1 PUSH3 0x1A1 PUSH1 0x0 CODECOPY PUSH1 0x0 RETURN INVALID PUSH1 0x80 PUSH1 0x40 MSTORE PUSH1 0x4 CALLDATASIZE LT PUSH2 0xDD JUMPI PUSH1 0x0 CALLDATALOAD PUSH1 0xE0 SHR DUP1 PUSH4 0x86E35A9A GT PUSH2 0x7F JUMPI DUP1 PUSH4 0xB9CF5005 GT PUSH2 0x59 JUMPI DUP1 PUSH4 0xB9CF5005 EQ PUSH2 0x2C4 JUMPI DUP1 PUSH4 0xC3828BF0 EQ PUSH2 0x2EF JUMPI DUP1 PUSH4 0xD0E30DB0 EQ PUSH2 0x31A JUMPI DUP1 PUSH4 0xF42EBBE0 EQ PUSH2 0x338 JUMPI PUSH2 0xDD JUMP JUMPDEST DUP1 PUSH4 0x86E35A9A EQ PUSH2 0x22C JUMPI DUP1 PUSH4 0x9B2A75D4 EQ PUSH2 0x269 JUMPI DUP1 PUSH4 0xB7B0422D EQ PUSH2 0x294 JUMPI PUSH2 0xDD JUMP JUMPDEST DUP1 PUSH4 0x35C7E925 GT PUSH2 0xBB JUMPI DUP1 PUSH4 0x35C7E925 EQ PUSH2 0x176 JUMPI DUP1 PUSH4 0x70B2A30F EQ PUSH2 0x1A1 JUMPI DUP1 PUSH4 0x789770F4 EQ PUSH2 0x1D1 JUMPI DUP1 PUSH4 0x80C1443B EQ PUSH2 0x1EF JUMPI PUSH2 0xDD JUMP JUMPDEST DUP1 PUSH4 0x910A510 EQ PUSH2 0xE2 JUMPI DUP1 PUSH4 0x15770F92 EQ PUSH2 0x10D JUMPI DUP1 PUSH4 0x2E1A7D4D EQ PUSH2 0x138 JUMPI JUMPDEST PUSH1 0x0 DUP1 REVERT JUMPDEST CALLVALUE DUP1 ISZERO PUSH2 0xEE JUMPI PUSH1 0x0 DUP1 REVERT JUMPDEST POP PUSH2 0xF7 PUSH2 0x361 JUMP JUMPDEST PUSH1 0x40 MLOAD PUSH2 0x104 SWAP2 SWAP1 PUSH2 0x18EE JUMP JUMPDEST PUSH1 0x40 MLOAD DUP1 SWAP2 SUB SWAP1 RETURN JUMPDEST CALLVALUE DUP1 ISZERO PUSH2 0x119 JUMPI PUSH1 0x0 DUP1 REVERT JUMPDEST POP PUSH2 0x122 PUSH2 0x369 JUMP JUMPDEST PUSH1 0x40 MLOAD PUSH2 0x12F SWAP2 SWAP1 PUSH2 0x18EE JUMP JUMPDEST PUSH1 0x40 MLOAD DUP1 SWAP2 SUB SWAP1 RETURN JUMPDEST CALLVALUE DUP1 ISZERO PUSH2 0x144 JUMPI PUSH1 0x0 DUP1 REVERT JUMPDEST POP PUSH2 0x15F PUSH1 0x4 DUP1 CALLDATASIZE SUB DUP2 ADD SWAP1 PUSH2 0x15A SWAP2 SWAP1 PUSH2 0x193A JUMP JUMPDEST PUSH2 0x36F JUMP JUMPDEST PUSH1 0x40 MLOAD PUSH2 0x16D SWAP3 SWAP2 SWAP1 PUSH2 0x1967 JUMP JUMPDEST PUSH1 0x40 MLOAD DUP1 SWAP2 SUB SWAP1 RETURN JUMPDEST CALLVALUE DUP1 ISZERO PUSH2 0x182 JUMPI PUSH1 0x0 DUP1 REVERT JUMPDEST POP PUSH2 0x18B PUSH2 0x773 JUMP JUMPDEST PUSH1 0x40 MLOAD PUSH2 0x198 SWAP2 SWAP1 PUSH2 0x18EE JUMP JUMPDEST PUSH1 0x40 MLOAD DUP1 SWAP2 SUB SWAP1 RETURN JUMPDEST PUSH2 0x1BB PUSH1 0x4 DUP1 CALLDATASIZE SUB DUP2 ADD SWAP1 PUSH2 0x1B6 SWAP2 SWAP1 PUSH2 0x193A JUMP JUMPDEST PUSH2 0x77D JUMP JUMPDEST PUSH1 0x40 MLOAD PUSH2 0x1C8 SWAP2 SWAP1 PUSH2 0x18EE JUMP JUMPDEST PUSH1 0x40 MLOAD DUP1 SWAP2 SUB SWAP1 RETURN JUMPDEST PUSH2 0x1D9 PUSH2 0xA7C JUMP JUMPDEST PUSH1 0x40 MLOAD PUSH2 0x1E6 SWAP2 SWAP1 PUSH2 0x18EE JUMP JUMPDEST PUSH1 0x40 MLOAD DUP1 SWAP2 SUB SWAP1 RETURN JUMPDEST CALLVALUE DUP1 ISZERO PUSH2 0x1FB JUMPI PUSH1 0x0 DUP1 REVERT JUMPDEST POP PUSH2 0x216 PUSH1 0x4 DUP1 CALLDATASIZE SUB DUP2 ADD SWAP1 PUSH2 0x211 SWAP2 SWAP1 PUSH2 0x193A JUMP JUMPDEST PUSH2 0xCD5 JUMP JUMPDEST PUSH1 0x40 MLOAD PUSH2 0x223 SWAP2 SWAP1 PUSH2 0x18EE JUMP JUMPDEST PUSH1 0x40 MLOAD DUP1 SWAP2 SUB SWAP1 RETURN JUMPDEST CALLVALUE DUP1 ISZERO PUSH2 0x238 JUMPI PUSH1 0x0 DUP1 REVERT JUMPDEST POP PUSH2 0x253 PUSH1 0x4 DUP1 CALLDATASIZE SUB DUP2 ADD SWAP1 PUSH2 0x24E SWAP2 SWAP1 PUSH2 0x193A JUMP JUMPDEST PUSH2 0xD9C JUMP JUMPDEST PUSH1 0x40 MLOAD PUSH2 0x260 SWAP2 SWAP1 PUSH2 0x18EE JUMP JUMPDEST PUSH1 0x40 MLOAD DUP1 SWAP2 SUB SWAP1 RETURN JUMPDEST CALLVALUE DUP1 ISZERO PUSH2 0x275 JUMPI PUSH1 0x0 DUP1 REVERT JUMPDEST POP PUSH2 0x27E PUSH2 0xE63 JUMP JUMPDEST PUSH1 0x40 MLOAD PUSH2 0x28B SWAP2 SWAP1 PUSH2 0x19D1 JUMP JUMPDEST PUSH1 0x40 MLOAD DUP1 SWAP2 SUB SWAP1 RETURN JUMPDEST PUSH2 0x2AE PUSH1 0x4 DUP1 CALLDATASIZE SUB DUP2 ADD SWAP1 PUSH2 0x2A9 SWAP2 SWAP1 PUSH2 0x193A JUMP JUMPDEST PUSH2 0xE89 JUMP JUMPDEST PUSH1 0x40 MLOAD PUSH2 0x2BB SWAP2 SWAP1 PUSH2 0x18EE JUMP JUMPDEST PUSH1 0x40 MLOAD DUP1 SWAP2 SUB SWAP1 RETURN JUMPDEST CALLVALUE DUP1 ISZERO PUSH2 0x2D0 JUMPI PUSH1 0x0 DUP1 REVERT JUMPDEST POP PUSH2 0x2D9 PUSH2 0x1238 JUMP JUMPDEST PUSH1 0x40 MLOAD PUSH2 0x2E6 SWAP2 SWAP1 PUSH2 0x18EE JUMP JUMPDEST PUSH1 0x40 MLOAD DUP1 SWAP2 SUB SWAP1 RETURN JUMPDEST CALLVALUE DUP1 ISZERO PUSH2 0x2FB JUMPI PUSH1 0x0 DUP1 REVERT JUMPDEST POP PUSH2 0x304 PUSH2 0x12E9 JUMP JUMPDEST PUSH1 0x40 MLOAD PUSH2 0x311 SWAP2 SWAP1 PUSH2 0x19D1 JUMP JUMPDEST PUSH1 0x40 MLOAD DUP1 SWAP2 SUB SWAP1 RETURN JUMPDEST PUSH2 0x322 PUSH2 0x130F JUMP JUMPDEST PUSH1 0x40 MLOAD PUSH2 0x32F SWAP2 SWAP1 PUSH2 0x18EE JUMP JUMPDEST PUSH1 0x40 MLOAD DUP1 SWAP2 SUB SWAP1 RETURN JUMPDEST CALLVALUE DUP1 ISZERO PUSH2 0x344 JUMPI PUSH1 0x0 DUP1 REVERT JUMPDEST POP PUSH2 0x35F PUSH1 0x4 DUP1 CALLDATASIZE SUB DUP2 ADD SWAP1 PUSH2 0x35A SWAP2 SWAP1 PUSH2 0x1A18 JUMP JUMPDEST PUSH2 0x16E3 JUMP JUMPDEST STOP JUMPDEST PUSH1 0x0 SELFBALANCE SWAP1 POP SWAP1 JUMP JUMPDEST PUSH1 0x1 SLOAD DUP2 JUMP JUMPDEST PUSH1 0x0 DUP1 PUSH1 0x1 ISZERO ISZERO PUSH1 0x2 PUSH1 0x15 SWAP1 SLOAD SWAP1 PUSH2 0x100 EXP SWAP1 DIV PUSH1 0xFF AND ISZERO ISZERO EQ PUSH2 0x3C8 JUMPI PUSH1 0x40 MLOAD PUSH32 0x8C379A000000000000000000000000000000000000000000000000000000000 DUP2 MSTORE PUSH1 0x4 ADD PUSH2 0x3BF SWAP1 PUSH2 0x1AC8 JUMP JUMPDEST PUSH1 0x40 MLOAD DUP1 SWAP2 SUB SWAP1 REVERT JUMPDEST PUSH1 0x0 DUP1 PUSH1 0x0 SWAP1 SLOAD SWAP1 PUSH2 0x100 EXP SWAP1 DIV PUSH20 0xFFFFFFFFFFFFFFFFFFFFFFFFFFFFFFFFFFFFFFFF AND PUSH20 0xFFFFFFFFFFFFFFFFFFFFFFFFFFFFFFFFFFFFFFFF AND PUSH4 0x70A08231 ADDRESS PUSH1 0x40 MLOAD DUP3 PUSH4 0xFFFFFFFF AND PUSH1 0xE0 SHL DUP2 MSTORE PUSH1 0x4 ADD PUSH2 0x424 SWAP2 SWAP1 PUSH2 0x19D1 JUMP JUMPDEST PUSH1 0x20 PUSH1 0x40 MLOAD DUP1 DUP4 SUB DUP2 DUP7 DUP1 EXTCODESIZE ISZERO DUP1 ISZERO PUSH2 0x43C JUMPI PUSH1 0x0 DUP1 REVERT JUMPDEST POP GAS STATICCALL ISZERO DUP1 ISZERO PUSH2 0x450 JUMPI RETURNDATASIZE PUSH1 0x0 DUP1 RETURNDATACOPY RETURNDATASIZE PUSH1 0x0 REVERT JUMPDEST POP POP POP POP PUSH1 0x40 MLOAD RETURNDATASIZE PUSH1 0x1F NOT PUSH1 0x1F DUP3 ADD AND DUP3 ADD DUP1 PUSH1 0x40 MSTORE POP DUP2 ADD SWAP1 PUSH2 0x474 SWAP2 SWAP1 PUSH2 0x1AFD JUMP JUMPDEST SWAP1 POP PUSH1 0x0 PUSH1 0x1 SLOAD SELFBALANCE DUP7 PUSH2 0x487 SWAP2 SWAP1 PUSH2 0x1B59 JUMP JUMPDEST PUSH2 0x491 SWAP2 SWAP1 PUSH2 0x1BE2 JUMP JUMPDEST SWAP1 POP PUSH1 0x0 PUSH1 0x1 SLOAD DUP4 DUP8 PUSH2 0x4A4 SWAP2 SWAP1 PUSH2 0x1B59 JUMP JUMPDEST PUSH2 0x4AE SWAP2 SWAP1 PUSH2 0x1BE2 JUMP JUMPDEST SWAP1 POP PUSH1 0x0 PUSH1 0x2 PUSH1 0x0 SWAP1 SLOAD SWAP1 PUSH2 0x100 EXP SWAP1 DIV PUSH20 0xFFFFFFFFFFFFFFFFFFFFFFFFFFFFFFFFFFFFFFFF AND PUSH20 0xFFFFFFFFFFFFFFFFFFFFFFFFFFFFFFFFFFFFFFFF AND CALLER DUP9 PUSH1 0x40 MLOAD PUSH1 0x24 ADD PUSH2 0x4FE SWAP3 SWAP2 SWAP1 PUSH2 0x1C13 JUMP JUMPDEST PUSH1 0x40 MLOAD PUSH1 0x20 DUP2 DUP4 SUB SUB DUP2 MSTORE SWAP1 PUSH1 0x40 MSTORE PUSH32 0x9159521F00000000000000000000000000000000000000000000000000000000 PUSH28 0xFFFFFFFFFFFFFFFFFFFFFFFFFFFFFFFFFFFFFFFFFFFFFFFFFFFFFFFF NOT AND PUSH1 0x20 DUP3 ADD DUP1 MLOAD PUSH28 0xFFFFFFFFFFFFFFFFFFFFFFFFFFFFFFFFFFFFFFFFFFFFFFFFFFFFFFFF DUP4 DUP2 DUP4 AND OR DUP4 MSTORE POP POP POP POP PUSH1 0x40 MLOAD PUSH2 0x588 SWAP2 SWAP1 PUSH2 0x1CB6 JUMP JUMPDEST PUSH1 0x0 PUSH1 0x40 MLOAD DUP1 DUP4 SUB DUP2 PUSH1 0x0 DUP7 GAS CALL SWAP2 POP POP RETURNDATASIZE DUP1 PUSH1 0x0 DUP2 EQ PUSH2 0x5C5 JUMPI PUSH1 0x40 MLOAD SWAP2 POP PUSH1 0x1F NOT PUSH1 0x3F RETURNDATASIZE ADD AND DUP3 ADD PUSH1 0x40 MSTORE RETURNDATASIZE DUP3 MSTORE RETURNDATASIZE PUSH1 0x0 PUSH1 0x20 DUP5 ADD RETURNDATACOPY PUSH2 0x5CA JUMP JUMPDEST PUSH1 0x60 SWAP2 POP JUMPDEST POP POP SWAP1 POP DUP1 PUSH2 0x60E JUMPI PUSH1 0x40 MLOAD PUSH32 0x8C379A000000000000000000000000000000000000000000000000000000000 DUP2 MSTORE PUSH1 0x4 ADD PUSH2 0x605 SWAP1 PUSH2 0x1D19 JUMP JUMPDEST PUSH1 0x40 MLOAD DUP1 SWAP2 SUB SWAP1 REVERT JUMPDEST DUP7 PUSH1 0x1 SLOAD PUSH2 0x61C SWAP2 SWAP1 PUSH2 0x1D39 JUMP JUMPDEST PUSH1 0x1 DUP2 SWAP1 SSTORE POP CALLER PUSH20 0xFFFFFFFFFFFFFFFFFFFFFFFFFFFFFFFFFFFFFFFF AND PUSH2 0x8FC DUP5 SWAP1 DUP2 ISZERO MUL SWAP1 PUSH1 0x40 MLOAD PUSH1 0x0 PUSH1 0x40 MLOAD DUP1 DUP4 SUB DUP2 DUP6 DUP9 DUP9 CALL SWAP4 POP POP POP POP ISZERO DUP1 ISZERO PUSH2 0x668 JUMPI RETURNDATASIZE PUSH1 0x0 DUP1 RETURNDATACOPY RETURNDATASIZE PUSH1 0x0 REVERT JUMPDEST POP PUSH1 0x0 DUP1 SLOAD SWAP1 PUSH2 0x100 EXP SWAP1 DIV PUSH20 0xFFFFFFFFFFFFFFFFFFFFFFFFFFFFFFFFFFFFFFFF AND PUSH20 0xFFFFFFFFFFFFFFFFFFFFFFFFFFFFFFFFFFFFFFFF AND PUSH4 0xA9059CBB CALLER DUP5 PUSH1 0x40 MLOAD DUP4 PUSH4 0xFFFFFFFF AND PUSH1 0xE0 SHL DUP2 MSTORE PUSH1 0x4 ADD PUSH2 0x6C4 SWAP3 SWAP2 SWAP1 PUSH2 0x1C13 JUMP JUMPDEST PUSH1 0x20 PUSH1 0x40 MLOAD DUP1 DUP4 SUB DUP2 PUSH1 0x0 DUP8 DUP1 EXTCODESIZE ISZERO DUP1 ISZERO PUSH2 0x6DE JUMPI PUSH1 0x0 DUP1 REVERT JUMPDEST POP GAS CALL ISZERO DUP1 ISZERO PUSH2 0x6F2 JUMPI RETURNDATASIZE PUSH1 0x0 DUP1 RETURNDATACOPY RETURNDATASIZE PUSH1 0x0 REVERT JUMPDEST POP POP POP POP PUSH1 0x40 MLOAD RETURNDATASIZE PUSH1 0x1F NOT PUSH1 0x1F DUP3 ADD AND DUP3 ADD DUP1 PUSH1 0x40 MSTORE POP DUP2 ADD SWAP1 PUSH2 0x716 SWAP2 SWAP1 PUSH2 0x1DA5 JUMP JUMPDEST PUSH2 0x71F JUMPI PUSH1 0x0 DUP1 REVERT JUMPDEST DUP2 DUP4 CALLER PUSH20 0xFFFFFFFFFFFFFFFFFFFFFFFFFFFFFFFFFFFFFFFF AND PUSH32 0x4CDCD27AE88503B2D4D3034A348B78AEC00ECA6369F48E5002CA3DF8686B9B3E PUSH1 0x40 MLOAD PUSH1 0x40 MLOAD DUP1 SWAP2 SUB SWAP1 LOG4 DUP3 DUP3 SWAP6 POP SWAP6 POP POP POP POP POP SWAP2 POP SWAP2 JUMP JUMPDEST PUSH1 0x0 PUSH1 0x1 SLOAD SWAP1 POP SWAP1 JUMP JUMPDEST PUSH1 0x0 PUSH1 0x1 ISZERO ISZERO PUSH1 0x2 PUSH1 0x15 SWAP1 SLOAD SWAP1 PUSH2 0x100 EXP SWAP1 DIV PUSH1 0xFF AND ISZERO ISZERO EQ PUSH2 0x7D5 JUMPI PUSH1 0x40 MLOAD PUSH32 0x8C379A000000000000000000000000000000000000000000000000000000000 DUP2 MSTORE PUSH1 0x4 ADD PUSH2 0x7CC SWAP1 PUSH2 0x1AC8 JUMP JUMPDEST PUSH1 0x40 MLOAD DUP1 SWAP2 SUB SWAP1 REVERT JUMPDEST PUSH1 0x0 DUP1 PUSH1 0x0 SWAP1 SLOAD SWAP1 PUSH2 0x100 EXP SWAP1 DIV PUSH20 0xFFFFFFFFFFFFFFFFFFFFFFFFFFFFFFFFFFFFFFFF AND PUSH20 0xFFFFFFFFFFFFFFFFFFFFFFFFFFFFFFFFFFFFFFFF AND PUSH4 0x70A08231 ADDRESS PUSH1 0x40 MLOAD DUP3 PUSH4 0xFFFFFFFF AND PUSH1 0xE0 SHL DUP2 MSTORE PUSH1 0x4 ADD PUSH2 0x831 SWAP2 SWAP1 PUSH2 0x19D1 JUMP JUMPDEST PUSH1 0x20 PUSH1 0x40 MLOAD DUP1 DUP4 SUB DUP2 DUP7 DUP1 EXTCODESIZE ISZERO DUP1 ISZERO PUSH2 0x849 JUMPI PUSH1 0x0 DUP1 REVERT JUMPDEST POP GAS STATICCALL ISZERO DUP1 ISZERO PUSH2 0x85D JUMPI RETURNDATASIZE PUSH1 0x0 DUP1 RETURNDATACOPY RETURNDATASIZE PUSH1 0x0 REVERT JUMPDEST POP POP POP POP PUSH1 0x40 MLOAD RETURNDATASIZE PUSH1 0x1F NOT PUSH1 0x1F DUP3 ADD AND DUP3 ADD DUP1 PUSH1 0x40 MSTORE POP DUP2 ADD SWAP1 PUSH2 0x881 SWAP2 SWAP1 PUSH2 0x1AFD JUMP JUMPDEST SWAP1 POP PUSH1 0x0 PUSH2 0x890 DUP5 DUP4 SELFBALANCE PUSH2 0x187D JUMP JUMPDEST SWAP1 POP PUSH1 0x0 DUP1 SLOAD SWAP1 PUSH2 0x100 EXP SWAP1 DIV PUSH20 0xFFFFFFFFFFFFFFFFFFFFFFFFFFFFFFFFFFFFFFFF AND PUSH20 0xFFFFFFFFFFFFFFFFFFFFFFFFFFFFFFFFFFFFFFFF AND PUSH4 0x23B872DD CALLER ADDRESS DUP8 PUSH1 0x40 MLOAD DUP5 PUSH4 0xFFFFFFFF AND PUSH1 0xE0 SHL DUP2 MSTORE PUSH1 0x4 ADD PUSH2 0x8EF SWAP4 SWAP3 SWAP2 SWAP1 PUSH2 0x1DD2 JUMP JUMPDEST PUSH1 0x20 PUSH1 0x40 MLOAD DUP1 DUP4 SUB DUP2 PUSH1 0x0 DUP8 DUP1 EXTCODESIZE ISZERO DUP1 ISZERO PUSH2 0x909 JUMPI PUSH1 0x0 DUP1 REVERT JUMPDEST POP GAS CALL ISZERO DUP1 ISZERO PUSH2 0x91D JUMPI RETURNDATASIZE PUSH1 0x0 DUP1 RETURNDATACOPY RETURNDATASIZE PUSH1 0x0 REVERT JUMPDEST POP POP POP POP PUSH1 0x40 MLOAD RETURNDATASIZE PUSH1 0x1F NOT PUSH1 0x1F DUP3 ADD AND DUP3 ADD DUP1 PUSH1 0x40 MSTORE POP DUP2 ADD SWAP1 PUSH2 0x941 SWAP2 SWAP1 PUSH2 0x1DA5 JUMP JUMPDEST PUSH2 0x980 JUMPI PUSH1 0x40 MLOAD PUSH32 0x8C379A000000000000000000000000000000000000000000000000000000000 DUP2 MSTORE PUSH1 0x4 ADD PUSH2 0x977 SWAP1 PUSH2 0x1E55 JUMP JUMPDEST PUSH1 0x40 MLOAD DUP1 SWAP2 SUB SWAP1 REVERT JUMPDEST PUSH1 0x0 CALLER PUSH20 0xFFFFFFFFFFFFFFFFFFFFFFFFFFFFFFFFFFFFFFFF AND DUP3 PUSH1 0x40 MLOAD PUSH2 0x9A6 SWAP1 PUSH2 0x1E9B JUMP JUMPDEST PUSH1 0x0 PUSH1 0x40 MLOAD DUP1 DUP4 SUB DUP2 DUP6 DUP8 GAS CALL SWAP3 POP POP POP RETURNDATASIZE DUP1 PUSH1 0x0 DUP2 EQ PUSH2 0x9E3 JUMPI PUSH1 0x40 MLOAD SWAP2 POP PUSH1 0x1F NOT PUSH1 0x3F RETURNDATASIZE ADD AND DUP3 ADD PUSH1 0x40 MSTORE RETURNDATASIZE DUP3 MSTORE RETURNDATASIZE PUSH1 0x0 PUSH1 0x20 DUP5 ADD RETURNDATACOPY PUSH2 0x9E8 JUMP JUMPDEST PUSH1 0x60 SWAP2 POP JUMPDEST POP POP SWAP1 POP DUP1 PUSH2 0xA2C JUMPI PUSH1 0x40 MLOAD PUSH32 0x8C379A000000000000000000000000000000000000000000000000000000000 DUP2 MSTORE PUSH1 0x4 ADD PUSH2 0xA23 SWAP1 PUSH2 0x1EFC JUMP JUMPDEST PUSH1 0x40 MLOAD DUP1 SWAP2 SUB SWAP1 REVERT JUMPDEST DUP2 DUP6 CALLER PUSH20 0xFFFFFFFFFFFFFFFFFFFFFFFFFFFFFFFFFFFFFFFF AND PUSH32 0x5318C777103946814B46248DBDC94BE4BED778AE0D794DDF73BB3F62474DF8F0 PUSH1 0x40 MLOAD PUSH1 0x40 MLOAD DUP1 SWAP2 SUB SWAP1 LOG4 DUP2 SWAP4 POP POP POP POP SWAP2 SWAP1 POP JUMP JUMPDEST PUSH1 0x0 PUSH1 0x1 ISZERO ISZERO PUSH1 0x2 PUSH1 0x15 SWAP1 SLOAD SWAP1 PUSH2 0x100 EXP SWAP1 DIV PUSH1 0xFF AND ISZERO ISZERO EQ PUSH2 0xAD4 JUMPI PUSH1 0x40 MLOAD PUSH32 0x8C379A000000000000000000000000000000000000000000000000000000000 DUP2 MSTORE PUSH1 0x4 ADD PUSH2 0xACB SWAP1 PUSH2 0x1AC8 JUMP JUMPDEST PUSH1 0x40 MLOAD DUP1 SWAP2 SUB SWAP1 REVERT JUMPDEST PUSH1 0x0 DUP1 PUSH1 0x0 SWAP1 SLOAD SWAP1 PUSH2 0x100 EXP SWAP1 DIV PUSH20 0xFFFFFFFFFFFFFFFFFFFFFFFFFFFFFFFFFFFFFFFF AND PUSH20 0xFFFFFFFFFFFFFFFFFFFFFFFFFFFFFFFFFFFFFFFF AND PUSH4 0x70A08231 ADDRESS PUSH1 0x40 MLOAD DUP3 PUSH4 0xFFFFFFFF AND PUSH1 0xE0 SHL DUP2 MSTORE PUSH1 0x4 ADD PUSH2 0xB30 SWAP2 SWAP1 PUSH2 0x19D1 JUMP JUMPDEST PUSH1 0x20 PUSH1 0x40 MLOAD DUP1 DUP4 SUB DUP2 DUP7 DUP1 EXTCODESIZE ISZERO DUP1 ISZERO PUSH2 0xB48 JUMPI PUSH1 0x0 DUP1 REVERT JUMPDEST POP GAS STATICCALL ISZERO DUP1 ISZERO PUSH2 0xB5C JUMPI RETURNDATASIZE PUSH1 0x0 DUP1 RETURNDATACOPY RETURNDATASIZE PUSH1 0x0 REVERT JUMPDEST POP POP POP POP PUSH1 0x40 MLOAD RETURNDATASIZE PUSH1 0x1F NOT PUSH1 0x1F DUP3 ADD AND DUP3 ADD DUP1 PUSH1 0x40 MSTORE POP DUP2 ADD SWAP1 PUSH2 0xB80 SWAP2 SWAP1 PUSH2 0x1AFD JUMP JUMPDEST SWAP1 POP PUSH1 0x0 PUSH2 0xB9A CALLVALUE CALLVALUE SELFBALANCE PUSH2 0xB94 SWAP2 SWAP1 PUSH2 0x1D39 JUMP JUMPDEST DUP5 PUSH2 0x187D JUMP JUMPDEST SWAP1 POP PUSH1 0x0 DUP1 SLOAD SWAP1 PUSH2 0x100 EXP SWAP1 DIV PUSH20 0xFFFFFFFFFFFFFFFFFFFFFFFFFFFFFFFFFFFFFFFF AND PUSH20 0xFFFFFFFFFFFFFFFFFFFFFFFFFFFFFFFFFFFFFFFF AND PUSH4 0xA9059CBB CALLER DUP4 PUSH1 0x40 MLOAD DUP4 PUSH4 0xFFFFFFFF AND PUSH1 0xE0 SHL DUP2 MSTORE PUSH1 0x4 ADD PUSH2 0xBF7 SWAP3 SWAP2 SWAP1 PUSH2 0x1C13 JUMP JUMPDEST PUSH1 0x20 PUSH1 0x40 MLOAD DUP1 DUP4 SUB DUP2 PUSH1 0x0 DUP8 DUP1 EXTCODESIZE ISZERO DUP1 ISZERO PUSH2 0xC11 JUMPI PUSH1 0x0 DUP1 REVERT JUMPDEST POP GAS CALL ISZERO DUP1 ISZERO PUSH2 0xC25 JUMPI RETURNDATASIZE PUSH1 0x0 DUP1 RETURNDATACOPY RETURNDATASIZE PUSH1 0x0 REVERT JUMPDEST POP POP POP POP PUSH1 0x40 MLOAD RETURNDATASIZE PUSH1 0x1F NOT PUSH1 0x1F DUP3 ADD AND DUP3 ADD DUP1 PUSH1 0x40 MSTORE POP DUP2 ADD SWAP1 PUSH2 0xC49 SWAP2 SWAP1 PUSH2 0x1DA5 JUMP JUMPDEST PUSH2 0xC88 JUMPI PUSH1 0x40 MLOAD PUSH32 0x8C379A000000000000000000000000000000000000000000000000000000000 DUP2 MSTORE PUSH1 0x4 ADD PUSH2 0xC7F SWAP1 PUSH2 0x1F68 JUMP JUMPDEST PUSH1 0x40 MLOAD DUP1 SWAP2 SUB SWAP1 REVERT JUMPDEST DUP1 CALLVALUE CALLER PUSH20 0xFFFFFFFFFFFFFFFFFFFFFFFFFFFFFFFFFFFFFFFF AND PUSH32 0x401F833A0B9902AAECA3E915F5C2286B037E7F5E4286A6BA479F3BC748685E2C PUSH1 0x40 MLOAD PUSH1 0x40 MLOAD DUP1 SWAP2 SUB SWAP1 LOG4 DUP1 SWAP3 POP POP POP SWAP1 JUMP JUMPDEST PUSH1 0x0 DUP1 PUSH1 0x0 DUP1 SLOAD SWAP1 PUSH2 0x100 EXP SWAP1 DIV PUSH20 0xFFFFFFFFFFFFFFFFFFFFFFFFFFFFFFFFFFFFFFFF AND PUSH20 0xFFFFFFFFFFFFFFFFFFFFFFFFFFFFFFFFFFFFFFFF AND PUSH4 0x70A08231 ADDRESS PUSH1 0x40 MLOAD DUP3 PUSH4 0xFFFFFFFF AND PUSH1 0xE0 SHL DUP2 MSTORE PUSH1 0x4 ADD PUSH2 0xD31 SWAP2 SWAP1 PUSH2 0x19D1 JUMP JUMPDEST PUSH1 0x20 PUSH1 0x40 MLOAD DUP1 DUP4 SUB DUP2 DUP7 DUP1 EXTCODESIZE ISZERO DUP1 ISZERO PUSH2 0xD49 JUMPI PUSH1 0x0 DUP1 REVERT JUMPDEST POP GAS STATICCALL ISZERO DUP1 ISZERO PUSH2 0xD5D JUMPI RETURNDATASIZE PUSH1 0x0 DUP1 RETURNDATACOPY RETURNDATASIZE PUSH1 0x0 REVERT JUMPDEST POP POP POP POP PUSH1 0x40 MLOAD RETURNDATASIZE PUSH1 0x1F NOT PUSH1 0x1F DUP3 ADD AND DUP3 ADD DUP1 PUSH1 0x40 MSTORE POP DUP2 ADD SWAP1 PUSH2 0xD81 SWAP2 SWAP1 PUSH2 0x1AFD JUMP JUMPDEST SWAP1 POP PUSH1 0x0 PUSH2 0xD90 DUP5 SELFBALANCE DUP5 PUSH2 0x187D JUMP JUMPDEST SWAP1 POP DUP1 SWAP3 POP POP POP SWAP2 SWAP1 POP JUMP JUMPDEST PUSH1 0x0 DUP1 PUSH1 0x0 DUP1 SLOAD SWAP1 PUSH2 0x100 EXP SWAP1 DIV PUSH20 0xFFFFFFFFFFFFFFFFFFFFFFFFFFFFFFFFFFFFFFFF AND PUSH20 0xFFFFFFFFFFFFFFFFFFFFFFFFFFFFFFFFFFFFFFFF AND PUSH4 0x70A08231 ADDRESS PUSH1 0x40 MLOAD DUP3 PUSH4 0xFFFFFFFF AND PUSH1 0xE0 SHL DUP2 MSTORE PUSH1 0x4 ADD PUSH2 0xDF8 SWAP2 SWAP1 PUSH2 0x19D1 JUMP JUMPDEST PUSH1 0x20 PUSH1 0x40 MLOAD DUP1 DUP4 SUB DUP2 DUP7 DUP1 EXTCODESIZE ISZERO DUP1 ISZERO PUSH2 0xE10 JUMPI PUSH1 0x0 DUP1 REVERT JUMPDEST POP GAS STATICCALL ISZERO DUP1 ISZERO PUSH2 0xE24 JUMPI RETURNDATASIZE PUSH1 0x0 DUP1 RETURNDATACOPY RETURNDATASIZE PUSH1 0x0 REVERT JUMPDEST POP POP POP POP PUSH1 0x40 MLOAD RETURNDATASIZE PUSH1 0x1F NOT PUSH1 0x1F DUP3 ADD AND DUP3 ADD DUP1 PUSH1 0x40 MSTORE POP DUP2 ADD SWAP1 PUSH2 0xE48 SWAP2 SWAP1 PUSH2 0x1AFD JUMP JUMPDEST SWAP1 POP PUSH1 0x0 PUSH2 0xE57 DUP5 DUP4 SELFBALANCE PUSH2 0x187D JUMP JUMPDEST SWAP1 POP DUP1 SWAP3 POP POP POP SWAP2 SWAP1 POP JUMP JUMPDEST PUSH1 0x3 PUSH1 0x0 SWAP1 SLOAD SWAP1 PUSH2 0x100 EXP SWAP1 DIV PUSH20 0xFFFFFFFFFFFFFFFFFFFFFFFFFFFFFFFFFFFFFFFF AND DUP2 JUMP JUMPDEST PUSH1 0x0 PUSH1 0x1 ISZERO ISZERO PUSH1 0x2 PUSH1 0x14 SWAP1 SLOAD SWAP1 PUSH2 0x100 EXP SWAP1 DIV PUSH1 0xFF AND ISZERO ISZERO EQ PUSH2 0xEE1 JUMPI PUSH1 0x40 MLOAD PUSH32 0x8C379A000000000000000000000000000000000000000000000000000000000 DUP2 MSTORE PUSH1 0x4 ADD PUSH2 0xED8 SWAP1 PUSH2 0x1FFA JUMP JUMPDEST PUSH1 0x40 MLOAD DUP1 SWAP2 SUB SWAP1 REVERT JUMPDEST PUSH1 0x0 PUSH1 0x1 SLOAD EQ PUSH2 0xF26 JUMPI PUSH1 0x40 MLOAD PUSH32 0x8C379A000000000000000000000000000000000000000000000000000000000 DUP2 MSTORE PUSH1 0x4 ADD PUSH2 0xF1D SWAP1 PUSH2 0x2066 JUMP JUMPDEST PUSH1 0x40 MLOAD DUP1 SWAP2 SUB SWAP1 REVERT JUMPDEST PUSH1 0x0 CALLVALUE GT PUSH2 0xF69 JUMPI PUSH1 0x40 MLOAD PUSH32 0x8C379A000000000000000000000000000000000000000000000000000000000 DUP2 MSTORE PUSH1 0x4 ADD PUSH2 0xF60 SWAP1 PUSH2 0x20D2 JUMP JUMPDEST PUSH1 0x40 MLOAD DUP1 SWAP2 SUB SWAP1 REVERT JUMPDEST PUSH1 0x0 DUP3 GT PUSH2 0xFAC JUMPI PUSH1 0x40 MLOAD PUSH32 0x8C379A000000000000000000000000000000000000000000000000000000000 DUP2 MSTORE PUSH1 0x4 ADD PUSH2 0xFA3 SWAP1 PUSH2 0x213E JUMP JUMPDEST PUSH1 0x40 MLOAD DUP1 SWAP2 SUB SWAP1 REVERT JUMPDEST SELFBALANCE PUSH1 0x1 DUP2 SWAP1 SSTORE POP PUSH1 0x0 DUP1 SLOAD SWAP1 PUSH2 0x100 EXP SWAP1 DIV PUSH20 0xFFFFFFFFFFFFFFFFFFFFFFFFFFFFFFFFFFFFFFFF AND PUSH20 0xFFFFFFFFFFFFFFFFFFFFFFFFFFFFFFFFFFFFFFFF AND PUSH4 0x23B872DD CALLER ADDRESS DUP6 PUSH1 0x40 MLOAD DUP5 PUSH4 0xFFFFFFFF AND PUSH1 0xE0 SHL DUP2 MSTORE PUSH1 0x4 ADD PUSH2 0x1010 SWAP4 SWAP3 SWAP2 SWAP1 PUSH2 0x1DD2 JUMP JUMPDEST PUSH1 0x20 PUSH1 0x40 MLOAD DUP1 DUP4 SUB DUP2 PUSH1 0x0 DUP8 DUP1 EXTCODESIZE ISZERO DUP1 ISZERO PUSH2 0x102A JUMPI PUSH1 0x0 DUP1 REVERT JUMPDEST POP GAS CALL ISZERO DUP1 ISZERO PUSH2 0x103E JUMPI RETURNDATASIZE PUSH1 0x0 DUP1 RETURNDATACOPY RETURNDATASIZE PUSH1 0x0 REVERT JUMPDEST POP POP POP POP PUSH1 0x40 MLOAD RETURNDATASIZE PUSH1 0x1F NOT PUSH1 0x1F DUP3 ADD AND DUP3 ADD DUP1 PUSH1 0x40 MSTORE POP DUP2 ADD SWAP1 PUSH2 0x1062 SWAP2 SWAP1 PUSH2 0x1DA5 JUMP JUMPDEST PUSH2 0x106B JUMPI PUSH1 0x0 DUP1 REVERT JUMPDEST PUSH1 0x0 PUSH1 0x2 PUSH1 0x0 SWAP1 SLOAD SWAP1 PUSH2 0x100 EXP SWAP1 DIV PUSH20 0xFFFFFFFFFFFFFFFFFFFFFFFFFFFFFFFFFFFFFFFF AND PUSH20 0xFFFFFFFFFFFFFFFFFFFFFFFFFFFFFFFFFFFFFFFF AND CALLER PUSH1 0x1 SLOAD PUSH1 0x40 MLOAD PUSH1 0x24 ADD PUSH2 0x10BB SWAP3 SWAP2 SWAP1 PUSH2 0x1C13 JUMP JUMPDEST PUSH1 0x40 MLOAD PUSH1 0x20 DUP2 DUP4 SUB SUB DUP2 MSTORE SWAP1 PUSH1 0x40 MSTORE PUSH32 0x549A1BE00000000000000000000000000000000000000000000000000000000 PUSH28 0xFFFFFFFFFFFFFFFFFFFFFFFFFFFFFFFFFFFFFFFFFFFFFFFFFFFFFFFF NOT AND PUSH1 0x20 DUP3 ADD DUP1 MLOAD PUSH28 0xFFFFFFFFFFFFFFFFFFFFFFFFFFFFFFFFFFFFFFFFFFFFFFFFFFFFFFFF DUP4 DUP2 DUP4 AND OR DUP4 MSTORE POP POP POP POP PUSH1 0x40 MLOAD PUSH2 0x1145 SWAP2 SWAP1 PUSH2 0x1CB6 JUMP JUMPDEST PUSH1 0x0 PUSH1 0x40 MLOAD DUP1 DUP4 SUB DUP2 PUSH1 0x0 DUP7 GAS CALL SWAP2 POP POP RETURNDATASIZE DUP1 PUSH1 0x0 DUP2 EQ PUSH2 0x1182 JUMPI PUSH1 0x40 MLOAD SWAP2 POP PUSH1 0x1F NOT PUSH1 0x3F RETURNDATASIZE ADD AND DUP3 ADD PUSH1 0x40 MSTORE RETURNDATASIZE DUP3 MSTORE RETURNDATASIZE PUSH1 0x0 PUSH1 0x20 DUP5 ADD RETURNDATACOPY PUSH2 0x1187 JUMP JUMPDEST PUSH1 0x60 SWAP2 POP JUMPDEST POP POP SWAP1 POP DUP1 PUSH2 0x11CB JUMPI PUSH1 0x40 MLOAD PUSH32 0x8C379A000000000000000000000000000000000000000000000000000000000 DUP2 MSTORE PUSH1 0x4 ADD PUSH2 0x11C2 SWAP1 PUSH2 0x21AA JUMP JUMPDEST PUSH1 0x40 MLOAD DUP1 SWAP2 SUB SWAP1 REVERT JUMPDEST PUSH1 0x1 PUSH1 0x2 PUSH1 0x15 PUSH2 0x100 EXP DUP2 SLOAD DUP2 PUSH1 0xFF MUL NOT AND SWAP1 DUP4 ISZERO ISZERO MUL OR SWAP1 SSTORE POP CALLER PUSH20 0xFFFFFFFFFFFFFFFFFFFFFFFFFFFFFFFFFFFFFFFF AND DUP4 PUSH1 0x1 SLOAD PUSH32 0xF125169608390D6B5A774E5C064D5A7C558839A45F04600C7B1D5C9B8DA08999 PUSH1 0x40 MLOAD PUSH1 0x40 MLOAD DUP1 SWAP2 SUB SWAP1 LOG4 PUSH1 0x1 SLOAD SWAP2 POP POP SWAP2 SWAP1 POP JUMP JUMPDEST PUSH1 0x0 DUP1 PUSH1 0x0 SWAP1 SLOAD SWAP1 PUSH2 0x100 EXP SWAP1 DIV PUSH20 0xFFFFFFFFFFFFFFFFFFFFFFFFFFFFFFFFFFFFFFFF AND PUSH20 0xFFFFFFFFFFFFFFFFFFFFFFFFFFFFFFFFFFFFFFFF AND PUSH4 0x70A08231 ADDRESS PUSH1 0x40 MLOAD DUP3 PUSH4 0xFFFFFFFF AND PUSH1 0xE0 SHL DUP2 MSTORE PUSH1 0x4 ADD PUSH2 0x1294 SWAP2 SWAP1 PUSH2 0x19D1 JUMP JUMPDEST PUSH1 0x20 PUSH1 0x40 MLOAD DUP1 DUP4 SUB DUP2 DUP7 DUP1 EXTCODESIZE ISZERO DUP1 ISZERO PUSH2 0x12AC JUMPI PUSH1 0x0 DUP1 REVERT JUMPDEST POP GAS STATICCALL ISZERO DUP1 ISZERO PUSH2 0x12C0 JUMPI RETURNDATASIZE PUSH1 0x0 DUP1 RETURNDATACOPY RETURNDATASIZE PUSH1 0x0 REVERT JUMPDEST POP POP POP POP PUSH1 0x40 MLOAD RETURNDATASIZE PUSH1 0x1F NOT PUSH1 0x1F DUP3 ADD AND DUP3 ADD DUP1 PUSH1 0x40 MSTORE POP DUP2 ADD SWAP1 PUSH2 0x12E4 SWAP2 SWAP1 PUSH2 0x1AFD JUMP JUMPDEST SWAP1 POP SWAP1 JUMP JUMPDEST PUSH1 0x2 PUSH1 0x0 SWAP1 SLOAD SWAP1 PUSH2 0x100 EXP SWAP1 DIV PUSH20 0xFFFFFFFFFFFFFFFFFFFFFFFFFFFFFFFFFFFFFFFF AND DUP2 JUMP JUMPDEST PUSH1 0x0 PUSH1 0x1 ISZERO ISZERO PUSH1 0x2 PUSH1 0x15 SWAP1 SLOAD SWAP1 PUSH2 0x100 EXP SWAP1 DIV PUSH1 0xFF AND ISZERO ISZERO EQ PUSH2 0x1367 JUMPI PUSH1 0x40 MLOAD PUSH32 0x8C379A000000000000000000000000000000000000000000000000000000000 DUP2 MSTORE PUSH1 0x4 ADD PUSH2 0x135E SWAP1 PUSH2 0x1AC8 JUMP JUMPDEST PUSH1 0x40 MLOAD DUP1 SWAP2 SUB SWAP1 REVERT JUMPDEST PUSH1 0x0 CALLVALUE SELFBALANCE PUSH2 0x1375 SWAP2 SWAP1 PUSH2 0x1D39 JUMP JUMPDEST SWAP1 POP PUSH1 0x0 DUP1 PUSH1 0x0 SWAP1 SLOAD SWAP1 PUSH2 0x100 EXP SWAP1 DIV PUSH20 0xFFFFFFFFFFFFFFFFFFFFFFFFFFFFFFFFFFFFFFFF AND PUSH20 0xFFFFFFFFFFFFFFFFFFFFFFFFFFFFFFFFFFFFFFFF AND PUSH4 0x70A08231 ADDRESS PUSH1 0x40 MLOAD DUP3 PUSH4 0xFFFFFFFF AND PUSH1 0xE0 SHL DUP2 MSTORE PUSH1 0x4 ADD PUSH2 0x13D3 SWAP2 SWAP1 PUSH2 0x19D1 JUMP JUMPDEST PUSH1 0x20 PUSH1 0x40 MLOAD DUP1 DUP4 SUB DUP2 DUP7 DUP1 EXTCODESIZE ISZERO DUP1 ISZERO PUSH2 0x13EB JUMPI PUSH1 0x0 DUP1 REVERT JUMPDEST POP GAS STATICCALL ISZERO DUP1 ISZERO PUSH2 0x13FF JUMPI RETURNDATASIZE PUSH1 0x0 DUP1 RETURNDATACOPY RETURNDATASIZE PUSH1 0x0 REVERT JUMPDEST POP POP POP POP PUSH1 0x40 MLOAD RETURNDATASIZE PUSH1 0x1F NOT PUSH1 0x1F DUP3 ADD AND DUP3 ADD DUP1 PUSH1 0x40 MSTORE POP DUP2 ADD SWAP1 PUSH2 0x1423 SWAP2 SWAP1 PUSH2 0x1AFD JUMP JUMPDEST SWAP1 POP PUSH1 0x0 PUSH1 0x1 DUP4 DUP4 CALLVALUE PUSH2 0x1436 SWAP2 SWAP1 PUSH2 0x1B59 JUMP JUMPDEST PUSH2 0x1440 SWAP2 SWAP1 PUSH2 0x1BE2 JUMP JUMPDEST PUSH2 0x144A SWAP2 SWAP1 PUSH2 0x21CA JUMP JUMPDEST SWAP1 POP PUSH1 0x0 DUP4 PUSH1 0x1 SLOAD CALLVALUE PUSH2 0x145D SWAP2 SWAP1 PUSH2 0x1B59 JUMP JUMPDEST PUSH2 0x1467 SWAP2 SWAP1 PUSH2 0x1BE2 JUMP JUMPDEST SWAP1 POP DUP1 PUSH1 0x1 SLOAD PUSH2 0x1477 SWAP2 SWAP1 PUSH2 0x21CA JUMP JUMPDEST PUSH1 0x1 DUP2 SWAP1 SSTORE POP PUSH1 0x0 DUP1 SLOAD SWAP1 PUSH2 0x100 EXP SWAP1 DIV PUSH20 0xFFFFFFFFFFFFFFFFFFFFFFFFFFFFFFFFFFFFFFFF AND PUSH20 0xFFFFFFFFFFFFFFFFFFFFFFFFFFFFFFFFFFFFFFFF AND PUSH4 0x23B872DD CALLER ADDRESS DUP6 PUSH1 0x40 MLOAD DUP5 PUSH4 0xFFFFFFFF AND PUSH1 0xE0 SHL DUP2 MSTORE PUSH1 0x4 ADD PUSH2 0x14DA SWAP4 SWAP3 SWAP2 SWAP1 PUSH2 0x1DD2 JUMP JUMPDEST PUSH1 0x20 PUSH1 0x40 MLOAD DUP1 DUP4 SUB DUP2 PUSH1 0x0 DUP8 DUP1 EXTCODESIZE ISZERO DUP1 ISZERO PUSH2 0x14F4 JUMPI PUSH1 0x0 DUP1 REVERT JUMPDEST POP GAS CALL ISZERO DUP1 ISZERO PUSH2 0x1508 JUMPI RETURNDATASIZE PUSH1 0x0 DUP1 RETURNDATACOPY RETURNDATASIZE PUSH1 0x0 REVERT JUMPDEST POP POP POP POP PUSH1 0x40 MLOAD RETURNDATASIZE PUSH1 0x1F NOT PUSH1 0x1F DUP3 ADD AND DUP3 ADD DUP1 PUSH1 0x40 MSTORE POP DUP2 ADD SWAP1 PUSH2 0x152C SWAP2 SWAP1 PUSH2 0x1DA5 JUMP JUMPDEST PUSH2 0x1535 JUMPI PUSH1 0x0 DUP1 REVERT JUMPDEST PUSH1 0x0 PUSH1 0x2 PUSH1 0x0 SWAP1 SLOAD SWAP1 PUSH2 0x100 EXP SWAP1 DIV PUSH20 0xFFFFFFFFFFFFFFFFFFFFFFFFFFFFFFFFFFFFFFFF AND PUSH20 0xFFFFFFFFFFFFFFFFFFFFFFFFFFFFFFFFFFFFFFFF AND CALLER DUP4 PUSH1 0x40 MLOAD PUSH1 0x24 ADD PUSH2 0x1583 SWAP3 SWAP2 SWAP1 PUSH2 0x1C13 JUMP JUMPDEST PUSH1 0x40 MLOAD PUSH1 0x20 DUP2 DUP4 SUB SUB DUP2 MSTORE SWAP1 PUSH1 0x40 MSTORE PUSH32 0x549A1BE00000000000000000000000000000000000000000000000000000000 PUSH28 0xFFFFFFFFFFFFFFFFFFFFFFFFFFFFFFFFFFFFFFFFFFFFFFFFFFFFFFFF NOT AND PUSH1 0x20 DUP3 ADD DUP1 MLOAD PUSH28 0xFFFFFFFFFFFFFFFFFFFFFFFFFFFFFFFFFFFFFFFFFFFFFFFFFFFFFFFF DUP4 DUP2 DUP4 AND OR DUP4 MSTORE POP POP POP POP PUSH1 0x40 MLOAD PUSH2 0x160D SWAP2 SWAP1 PUSH2 0x1CB6 JUMP JUMPDEST PUSH1 0x0 PUSH1 0x40 MLOAD DUP1 DUP4 SUB DUP2 PUSH1 0x0 DUP7 GAS CALL SWAP2 POP POP RETURNDATASIZE DUP1 PUSH1 0x0 DUP2 EQ PUSH2 0x164A JUMPI PUSH1 0x40 MLOAD SWAP2 POP PUSH1 0x1F NOT PUSH1 0x3F RETURNDATASIZE ADD AND DUP3 ADD PUSH1 0x40 MSTORE RETURNDATASIZE DUP3 MSTORE RETURNDATASIZE PUSH1 0x0 PUSH1 0x20 DUP5 ADD RETURNDATACOPY PUSH2 0x164F JUMP JUMPDEST PUSH1 0x60 SWAP2 POP JUMPDEST POP POP SWAP1 POP DUP1 PUSH2 0x1693 JUMPI PUSH1 0x40 MLOAD PUSH32 0x8C379A000000000000000000000000000000000000000000000000000000000 DUP2 MSTORE PUSH1 0x4 ADD PUSH2 0x168A SWAP1 PUSH2 0x21AA JUMP JUMPDEST PUSH1 0x40 MLOAD DUP1 SWAP2 SUB SWAP1 REVERT JUMPDEST DUP3 CALLVALUE CALLER PUSH20 0xFFFFFFFFFFFFFFFFFFFFFFFFFFFFFFFFFFFFFFFF AND PUSH32 0x73A19DD210F1A7F902193214C0EE91DD35EE5B4D920CBA8D519ECA65A7B488CA PUSH1 0x40 MLOAD PUSH1 0x40 MLOAD DUP1 SWAP2 SUB SWAP1 LOG4 DUP2 SWAP6 POP POP POP POP POP POP SWAP1 JUMP JUMPDEST PUSH1 0x2 PUSH1 0x14 SWAP1 SLOAD SWAP1 PUSH2 0x100 EXP SWAP1 DIV PUSH1 0xFF AND ISZERO PUSH2 0x1733 JUMPI PUSH1 0x40 MLOAD PUSH32 0x8C379A000000000000000000000000000000000000000000000000000000000 DUP2 MSTORE PUSH1 0x4 ADD PUSH2 0x172A SWAP1 PUSH2 0x2292 JUMP JUMPDEST PUSH1 0x40 MLOAD DUP1 SWAP2 SUB SWAP1 REVERT JUMPDEST PUSH1 0x3 PUSH1 0x0 SWAP1 SLOAD SWAP1 PUSH2 0x100 EXP SWAP1 DIV PUSH20 0xFFFFFFFFFFFFFFFFFFFFFFFFFFFFFFFFFFFFFFFF AND PUSH20 0xFFFFFFFFFFFFFFFFFFFFFFFFFFFFFFFFFFFFFFFF AND CALLER PUSH20 0xFFFFFFFFFFFFFFFFFFFFFFFFFFFFFFFFFFFFFFFF AND EQ PUSH2 0x17C3 JUMPI PUSH1 0x40 MLOAD PUSH32 0x8C379A000000000000000000000000000000000000000000000000000000000 DUP2 MSTORE PUSH1 0x4 ADD PUSH2 0x17BA SWAP1 PUSH2 0x22FE JUMP JUMPDEST PUSH1 0x40 MLOAD DUP1 SWAP2 SUB SWAP1 REVERT JUMPDEST DUP1 PUSH1 0x2 PUSH1 0x0 PUSH2 0x100 EXP DUP2 SLOAD DUP2 PUSH20 0xFFFFFFFFFFFFFFFFFFFFFFFFFFFFFFFFFFFFFFFF MUL NOT AND SWAP1 DUP4 PUSH20 0xFFFFFFFFFFFFFFFFFFFFFFFFFFFFFFFFFFFFFFFF AND MUL OR SWAP1 SSTORE POP PUSH1 0x1 PUSH1 0x2 PUSH1 0x14 PUSH2 0x100 EXP DUP2 SLOAD DUP2 PUSH1 0xFF MUL NOT AND SWAP1 DUP4 ISZERO ISZERO MUL OR SWAP1 SSTORE POP TIMESTAMP CALLER PUSH20 0xFFFFFFFFFFFFFFFFFFFFFFFFFFFFFFFFFFFFFFFF AND DUP3 PUSH20 0xFFFFFFFFFFFFFFFFFFFFFFFFFFFFFFFFFFFFFFFF AND PUSH32 0x4961EBE740E0A6AD6D500BE9A192EF37FFAEC7468276312286CD31EE2BB1520C PUSH1 0x40 MLOAD PUSH1 0x40 MLOAD DUP1 SWAP2 SUB SWAP1 LOG4 POP JUMP JUMPDEST PUSH1 0x0 DUP1 PUSH2 0x3E5 DUP6 PUSH2 0x188E SWAP2 SWAP1 PUSH2 0x1B59 JUMP JUMPDEST SWAP1 POP PUSH1 0x0 DUP2 DUP5 PUSH2 0x189E SWAP2 SWAP1 PUSH2 0x1B59 JUMP JUMPDEST SWAP1 POP PUSH1 0x0 DUP3 PUSH2 0x3E8 DUP8 PUSH2 0x18B1 SWAP2 SWAP1 PUSH2 0x1B59 JUMP JUMPDEST PUSH2 0x18BB SWAP2 SWAP1 PUSH2 0x21CA JUMP JUMPDEST SWAP1 POP DUP1 DUP3 PUSH2 0x18C9 SWAP2 SWAP1 PUSH2 0x1BE2 JUMP JUMPDEST SWAP4 POP POP POP POP SWAP4 SWAP3 POP POP POP JUMP JUMPDEST PUSH1 0x0 DUP2 SWAP1 POP SWAP2 SWAP1 POP JUMP JUMPDEST PUSH2 0x18E8 DUP2 PUSH2 0x18D5 JUMP JUMPDEST DUP3 MSTORE POP POP JUMP JUMPDEST PUSH1 0x0 PUSH1 0x20 DUP3 ADD SWAP1 POP PUSH2 0x1903 PUSH1 0x0 DUP4 ADD DUP5 PUSH2 0x18DF JUMP JUMPDEST SWAP3 SWAP2 POP POP JUMP JUMPDEST PUSH1 0x0 DUP1 REVERT JUMPDEST PUSH2 0x1917 DUP2 PUSH2 0x18D5 JUMP JUMPDEST DUP2 EQ PUSH2 0x1922 JUMPI PUSH1 0x0 DUP1 REVERT JUMPDEST POP JUMP JUMPDEST PUSH1 0x0 DUP2 CALLDATALOAD SWAP1 POP PUSH2 0x1934 DUP2 PUSH2 0x190E JUMP JUMPDEST SWAP3 SWAP2 POP POP JUMP JUMPDEST PUSH1 0x0 PUSH1 0x20 DUP3 DUP5 SUB SLT ISZERO PUSH2 0x1950 JUMPI PUSH2 0x194F PUSH2 0x1909 JUMP JUMPDEST JUMPDEST PUSH1 0x0 PUSH2 0x195E DUP5 DUP3 DUP6 ADD PUSH2 0x1925 JUMP JUMPDEST SWAP2 POP POP SWAP3 SWAP2 POP POP JUMP JUMPDEST PUSH1 0x0 PUSH1 0x40 DUP3 ADD SWAP1 POP PUSH2 0x197C PUSH1 0x0 DUP4 ADD DUP6 PUSH2 0x18DF JUMP JUMPDEST PUSH2 0x1989 PUSH1 0x20 DUP4 ADD DUP5 PUSH2 0x18DF JUMP JUMPDEST SWAP4 SWAP3 POP POP POP JUMP JUMPDEST PUSH1 0x0 PUSH20 0xFFFFFFFFFFFFFFFFFFFFFFFFFFFFFFFFFFFFFFFF DUP3 AND SWAP1 POP SWAP2 SWAP1 POP JUMP JUMPDEST PUSH1 0x0 PUSH2 0x19BB DUP3 PUSH2 0x1990 JUMP JUMPDEST SWAP1 POP SWAP2 SWAP1 POP JUMP JUMPDEST PUSH2 0x19CB DUP2 PUSH2 0x19B0 JUMP JUMPDEST DUP3 MSTORE POP POP JUMP JUMPDEST PUSH1 0x0 PUSH1 0x20 DUP3 ADD SWAP1 POP PUSH2 0x19E6 PUSH1 0x0 DUP4 ADD DUP5 PUSH2 0x19C2 JUMP JUMPDEST SWAP3 SWAP2 POP POP JUMP JUMPDEST PUSH2 0x19F5 DUP2 PUSH2 0x19B0 JUMP JUMPDEST DUP2 EQ PUSH2 0x1A00 JUMPI PUSH1 0x0 DUP1 REVERT JUMPDEST POP JUMP JUMPDEST PUSH1 0x0 DUP2 CALLDATALOAD SWAP1 POP PUSH2 0x1A12 DUP2 PUSH2 0x19EC JUMP JUMPDEST SWAP3 SWAP2 POP POP JUMP JUMPDEST PUSH1 0x0 PUSH1 0x20 DUP3 DUP5 SUB SLT ISZERO PUSH2 0x1A2E JUMPI PUSH2 0x1A2D PUSH2 0x1909 JUMP JUMPDEST JUMPDEST PUSH1 0x0 PUSH2 0x1A3C DUP5 DUP3 DUP6 ADD PUSH2 0x1A03 JUMP JUMPDEST SWAP2 POP POP SWAP3 SWAP2 POP POP JUMP JUMPDEST PUSH1 0x0 DUP3 DUP3 MSTORE PUSH1 0x20 DUP3 ADD SWAP1 POP SWAP3 SWAP2 POP POP JUMP JUMPDEST PUSH32 0x6C697175696469747920706F6F6C20686173206E6F74206265656E20696E6974 PUSH1 0x0 DUP3 ADD MSTORE PUSH32 0x69616C697A656420796574000000000000000000000000000000000000000000 PUSH1 0x20 DUP3 ADD MSTORE POP JUMP JUMPDEST PUSH1 0x0 PUSH2 0x1AB2 PUSH1 0x2B DUP4 PUSH2 0x1A45 JUMP JUMPDEST SWAP2 POP PUSH2 0x1ABD DUP3 PUSH2 0x1A56 JUMP JUMPDEST PUSH1 0x40 DUP3 ADD SWAP1 POP SWAP2 SWAP1 POP JUMP JUMPDEST PUSH1 0x0 PUSH1 0x20 DUP3 ADD SWAP1 POP DUP2 DUP2 SUB PUSH1 0x0 DUP4 ADD MSTORE PUSH2 0x1AE1 DUP2 PUSH2 0x1AA5 JUMP JUMPDEST SWAP1 POP SWAP2 SWAP1 POP JUMP JUMPDEST PUSH1 0x0 DUP2 MLOAD SWAP1 POP PUSH2 0x1AF7 DUP2 PUSH2 0x190E JUMP JUMPDEST SWAP3 SWAP2 POP POP JUMP JUMPDEST PUSH1 0x0 PUSH1 0x20 DUP3 DUP5 SUB SLT ISZERO PUSH2 0x1B13 JUMPI PUSH2 0x1B12 PUSH2 0x1909 JUMP JUMPDEST JUMPDEST PUSH1 0x0 PUSH2 0x1B21 DUP5 DUP3 DUP6 ADD PUSH2 0x1AE8 JUMP JUMPDEST SWAP2 POP POP SWAP3 SWAP2 POP POP JUMP JUMPDEST PUSH32 0x4E487B7100000000000000000000000000000000000000000000000000000000 PUSH1 0x0 MSTORE PUSH1 0x11 PUSH1 0x4 MSTORE PUSH1 0x24 PUSH1 0x0 REVERT JUMPDEST PUSH1 0x0 PUSH2 0x1B64 DUP3 PUSH2 0x18D5 JUMP JUMPDEST SWAP2 POP PUSH2 0x1B6F DUP4 PUSH2 0x18D5 JUMP JUMPDEST SWAP3 POP DUP2 PUSH32 0xFFFFFFFFFFFFFFFFFFFFFFFFFFFFFFFFFFFFFFFFFFFFFFFFFFFFFFFFFFFFFFFF DIV DUP4 GT DUP3 ISZERO ISZERO AND ISZERO PUSH2 0x1BA8 JUMPI PUSH2 0x1BA7 PUSH2 0x1B2A JUMP JUMPDEST JUMPDEST DUP3 DUP3 MUL SWAP1 POP SWAP3 SWAP2 POP POP JUMP JUMPDEST PUSH32 0x4E487B7100000000000000000000000000000000000000000000000000000000 PUSH1 0x0 MSTORE PUSH1 0x12 PUSH1 0x4 MSTORE PUSH1 0x24 PUSH1 0x0 REVERT JUMPDEST PUSH1 0x0 PUSH2 0x1BED DUP3 PUSH2 0x18D5 JUMP JUMPDEST SWAP2 POP PUSH2 0x1BF8 DUP4 PUSH2 0x18D5 JUMP JUMPDEST SWAP3 POP DUP3 PUSH2 0x1C08 JUMPI PUSH2 0x1C07 PUSH2 0x1BB3 JUMP JUMPDEST JUMPDEST DUP3 DUP3 DIV SWAP1 POP SWAP3 SWAP2 POP POP JUMP JUMPDEST PUSH1 0x0 PUSH1 0x40 DUP3 ADD SWAP1 POP PUSH2 0x1C28 PUSH1 0x0 DUP4 ADD DUP6 PUSH2 0x19C2 JUMP JUMPDEST PUSH2 0x1C35 PUSH1 0x20 DUP4 ADD DUP5 PUSH2 0x18DF JUMP JUMPDEST SWAP4 SWAP3 POP POP POP JUMP JUMPDEST PUSH1 0x0 DUP2 MLOAD SWAP1 POP SWAP2 SWAP1 POP JUMP JUMPDEST PUSH1 0x0 DUP2 SWAP1 POP SWAP3 SWAP2 POP POP JUMP JUMPDEST PUSH1 0x0 JUMPDEST DUP4 DUP2 LT ISZERO PUSH2 0x1C70 JUMPI DUP1 DUP3 ADD MLOAD DUP2 DUP5 ADD MSTORE PUSH1 0x20 DUP2 ADD SWAP1 POP PUSH2 0x1C55 JUMP JUMPDEST DUP4 DUP2 GT ISZERO PUSH2 0x1C7F JUMPI PUSH1 0x0 DUP5 DUP5 ADD MSTORE JUMPDEST POP POP POP POP JUMP JUMPDEST PUSH1 0x0 PUSH2 0x1C90 DUP3 PUSH2 0x1C3C JUMP JUMPDEST PUSH2 0x1C9A DUP2 DUP6 PUSH2 0x1C47 JUMP JUMPDEST SWAP4 POP PUSH2 0x1CAA DUP2 DUP6 PUSH1 0x20 DUP7 ADD PUSH2 0x1C52 JUMP JUMPDEST DUP1 DUP5 ADD SWAP2 POP POP SWAP3 SWAP2 POP POP JUMP JUMPDEST PUSH1 0x0 PUSH2 0x1CC2 DUP3 DUP5 PUSH2 0x1C85 JUMP JUMPDEST SWAP2 POP DUP2 SWAP1 POP SWAP3 SWAP2 POP POP JUMP JUMPDEST PUSH32 0x6275726E207478206661696C6564000000000000000000000000000000000000 PUSH1 0x0 DUP3 ADD MSTORE POP JUMP JUMPDEST PUSH1 0x0 PUSH2 0x1D03 PUSH1 0xE DUP4 PUSH2 0x1A45 JUMP JUMPDEST SWAP2 POP PUSH2 0x1D0E DUP3 PUSH2 0x1CCD JUMP JUMPDEST PUSH1 0x20 DUP3 ADD SWAP1 POP SWAP2 SWAP1 POP JUMP JUMPDEST PUSH1 0x0 PUSH1 0x20 DUP3 ADD SWAP1 POP DUP2 DUP2 SUB PUSH1 0x0 DUP4 ADD MSTORE PUSH2 0x1D32 DUP2 PUSH2 0x1CF6 JUMP JUMPDEST SWAP1 POP SWAP2 SWAP1 POP JUMP JUMPDEST PUSH1 0x0 PUSH2 0x1D44 DUP3 PUSH2 0x18D5 JUMP JUMPDEST SWAP2 POP PUSH2 0x1D4F DUP4 PUSH2 0x18D5 JUMP JUMPDEST SWAP3 POP DUP3 DUP3 LT ISZERO PUSH2 0x1D62 JUMPI PUSH2 0x1D61 PUSH2 0x1B2A JUMP JUMPDEST JUMPDEST DUP3 DUP3 SUB SWAP1 POP SWAP3 SWAP2 POP POP JUMP JUMPDEST PUSH1 0x0 DUP2 ISZERO ISZERO SWAP1 POP SWAP2 SWAP1 POP JUMP JUMPDEST PUSH2 0x1D82 DUP2 PUSH2 0x1D6D JUMP JUMPDEST DUP2 EQ PUSH2 0x1D8D JUMPI PUSH1 0x0 DUP1 REVERT JUMPDEST POP JUMP JUMPDEST PUSH1 0x0 DUP2 MLOAD SWAP1 POP PUSH2 0x1D9F DUP2 PUSH2 0x1D79 JUMP JUMPDEST SWAP3 SWAP2 POP POP JUMP JUMPDEST PUSH1 0x0 PUSH1 0x20 DUP3 DUP5 SUB SLT ISZERO PUSH2 0x1DBB JUMPI PUSH2 0x1DBA PUSH2 0x1909 JUMP JUMPDEST JUMPDEST PUSH1 0x0 PUSH2 0x1DC9 DUP5 DUP3 DUP6 ADD PUSH2 0x1D90 JUMP JUMPDEST SWAP2 POP POP SWAP3 SWAP2 POP POP JUMP JUMPDEST PUSH1 0x0 PUSH1 0x60 DUP3 ADD SWAP1 POP PUSH2 0x1DE7 PUSH1 0x0 DUP4 ADD DUP7 PUSH2 0x19C2 JUMP JUMPDEST PUSH2 0x1DF4 PUSH1 0x20 DUP4 ADD DUP6 PUSH2 0x19C2 JUMP JUMPDEST PUSH2 0x1E01 PUSH1 0x40 DUP4 ADD DUP5 PUSH2 0x18DF JUMP JUMPDEST SWAP5 SWAP4 POP POP POP POP JUMP JUMPDEST PUSH32 0x6661696C656420746F207472616E7366657220746F6B656E7300000000000000 PUSH1 0x0 DUP3 ADD MSTORE POP JUMP JUMPDEST PUSH1 0x0 PUSH2 0x1E3F PUSH1 0x19 DUP4 PUSH2 0x1A45 JUMP JUMPDEST SWAP2 POP PUSH2 0x1E4A DUP3 PUSH2 0x1E09 JUMP JUMPDEST PUSH1 0x20 DUP3 ADD SWAP1 POP SWAP2 SWAP1 POP JUMP JUMPDEST PUSH1 0x0 PUSH1 0x20 DUP3 ADD SWAP1 POP DUP2 DUP2 SUB PUSH1 0x0 DUP4 ADD MSTORE PUSH2 0x1E6E DUP2 PUSH2 0x1E32 JUMP JUMPDEST SWAP1 POP SWAP2 SWAP1 POP JUMP JUMPDEST POP JUMP JUMPDEST PUSH1 0x0 PUSH2 0x1E85 PUSH1 0x0 DUP4 PUSH2 0x1C47 JUMP JUMPDEST SWAP2 POP PUSH2 0x1E90 DUP3 PUSH2 0x1E75 JUMP JUMPDEST PUSH1 0x0 DUP3 ADD SWAP1 POP SWAP2 SWAP1 POP JUMP JUMPDEST PUSH1 0x0 PUSH2 0x1EA6 DUP3 PUSH2 0x1E78 JUMP JUMPDEST SWAP2 POP DUP2 SWAP1 POP SWAP2 SWAP1 POP JUMP JUMPDEST PUSH32 0x6661696C656420746F2073656E64204554480000000000000000000000000000 PUSH1 0x0 DUP3 ADD MSTORE POP JUMP JUMPDEST PUSH1 0x0 PUSH2 0x1EE6 PUSH1 0x12 DUP4 PUSH2 0x1A45 JUMP JUMPDEST SWAP2 POP PUSH2 0x1EF1 DUP3 PUSH2 0x1EB0 JUMP JUMPDEST PUSH1 0x20 DUP3 ADD SWAP1 POP SWAP2 SWAP1 POP JUMP JUMPDEST PUSH1 0x0 PUSH1 0x20 DUP3 ADD SWAP1 POP DUP2 DUP2 SUB PUSH1 0x0 DUP4 ADD MSTORE PUSH2 0x1F15 DUP2 PUSH2 0x1ED9 JUMP JUMPDEST SWAP1 POP SWAP2 SWAP1 POP JUMP JUMPDEST PUSH32 0x6661696C656420746F207472616E736665722045544800000000000000000000 PUSH1 0x0 DUP3 ADD MSTORE POP JUMP JUMPDEST PUSH1 0x0 PUSH2 0x1F52 PUSH1 0x16 DUP4 PUSH2 0x1A45 JUMP JUMPDEST SWAP2 POP PUSH2 0x1F5D DUP3 PUSH2 0x1F1C JUMP JUMPDEST PUSH1 0x20 DUP3 ADD SWAP1 POP SWAP2 SWAP1 POP JUMP JUMPDEST PUSH1 0x0 PUSH1 0x20 DUP3 ADD SWAP1 POP DUP2 DUP2 SUB PUSH1 0x0 DUP4 ADD MSTORE PUSH2 0x1F81 DUP2 PUSH2 0x1F45 JUMP JUMPDEST SWAP1 POP SWAP2 SWAP1 POP JUMP JUMPDEST PUSH32 0x4C5020746F6B656E204164647265737320686173206E6F74206265656E207365 PUSH1 0x0 DUP3 ADD MSTORE PUSH32 0x7420796574000000000000000000000000000000000000000000000000000000 PUSH1 0x20 DUP3 ADD MSTORE POP JUMP JUMPDEST PUSH1 0x0 PUSH2 0x1FE4 PUSH1 0x25 DUP4 PUSH2 0x1A45 JUMP JUMPDEST SWAP2 POP PUSH2 0x1FEF DUP3 PUSH2 0x1F88 JUMP JUMPDEST PUSH1 0x40 DUP3 ADD SWAP1 POP SWAP2 SWAP1 POP JUMP JUMPDEST PUSH1 0x0 PUSH1 0x20 DUP3 ADD SWAP1 POP DUP2 DUP2 SUB PUSH1 0x0 DUP4 ADD MSTORE PUSH2 0x2013 DUP2 PUSH2 0x1FD7 JUMP JUMPDEST SWAP1 POP SWAP2 SWAP1 POP JUMP JUMPDEST PUSH32 0x6465782068617320616C7265616479206265656E20696E697469616C697A6564 PUSH1 0x0 DUP3 ADD MSTORE POP JUMP JUMPDEST PUSH1 0x0 PUSH2 0x2050 PUSH1 0x20 DUP4 PUSH2 0x1A45 JUMP JUMPDEST SWAP2 POP PUSH2 0x205B DUP3 PUSH2 0x201A JUMP JUMPDEST PUSH1 0x20 DUP3 ADD SWAP1 POP SWAP2 SWAP1 POP JUMP JUMPDEST PUSH1 0x0 PUSH1 0x20 DUP3 ADD SWAP1 POP DUP2 DUP2 SUB PUSH1 0x0 DUP4 ADD MSTORE PUSH2 0x207F DUP2 PUSH2 0x2043 JUMP JUMPDEST SWAP1 POP SWAP2 SWAP1 POP JUMP JUMPDEST PUSH32 0x45544820616D6F756E74206D757374206265206F766572203000000000000000 PUSH1 0x0 DUP3 ADD MSTORE POP JUMP JUMPDEST PUSH1 0x0 PUSH2 0x20BC PUSH1 0x19 DUP4 PUSH2 0x1A45 JUMP JUMPDEST SWAP2 POP PUSH2 0x20C7 DUP3 PUSH2 0x2086 JUMP JUMPDEST PUSH1 0x20 DUP3 ADD SWAP1 POP SWAP2 SWAP1 POP JUMP JUMPDEST PUSH1 0x0 PUSH1 0x20 DUP3 ADD SWAP1 POP DUP2 DUP2 SUB PUSH1 0x0 DUP4 ADD MSTORE PUSH2 0x20EB DUP2 PUSH2 0x20AF JUMP JUMPDEST SWAP1 POP SWAP2 SWAP1 POP JUMP JUMPDEST PUSH32 0x44455820746F6B656E20616D6F756E74206D757374206265206F766572203000 PUSH1 0x0 DUP3 ADD MSTORE POP JUMP JUMPDEST PUSH1 0x0 PUSH2 0x2128 PUSH1 0x1F DUP4 PUSH2 0x1A45 JUMP JUMPDEST SWAP2 POP PUSH2 0x2133 DUP3 PUSH2 0x20F2 JUMP JUMPDEST PUSH1 0x20 DUP3 ADD SWAP1 POP SWAP2 SWAP1 POP JUMP JUMPDEST PUSH1 0x0 PUSH1 0x20 DUP3 ADD SWAP1 POP DUP2 DUP2 SUB PUSH1 0x0 DUP4 ADD MSTORE PUSH2 0x2157 DUP2 PUSH2 0x211B JUMP JUMPDEST SWAP1 POP SWAP2 SWAP1 POP JUMP JUMPDEST PUSH32 0x6D696E74207478206661696C6564000000000000000000000000000000000000 PUSH1 0x0 DUP3 ADD MSTORE POP JUMP JUMPDEST PUSH1 0x0 PUSH2 0x2194 PUSH1 0xE DUP4 PUSH2 0x1A45 JUMP JUMPDEST SWAP2 POP PUSH2 0x219F DUP3 PUSH2 0x215E JUMP JUMPDEST PUSH1 0x20 DUP3 ADD SWAP1 POP SWAP2 SWAP1 POP JUMP JUMPDEST PUSH1 0x0 PUSH1 0x20 DUP3 ADD SWAP1 POP DUP2 DUP2 SUB PUSH1 0x0 DUP4 ADD MSTORE PUSH2 0x21C3 DUP2 PUSH2 0x2187 JUMP JUMPDEST SWAP1 POP SWAP2 SWAP1 POP JUMP JUMPDEST PUSH1 0x0 PUSH2 0x21D5 DUP3 PUSH2 0x18D5 JUMP JUMPDEST SWAP2 POP PUSH2 0x21E0 DUP4 PUSH2 0x18D5 JUMP JUMPDEST SWAP3 POP DUP3 PUSH32 0xFFFFFFFFFFFFFFFFFFFFFFFFFFFFFFFFFFFFFFFFFFFFFFFFFFFFFFFFFFFFFFFF SUB DUP3 GT ISZERO PUSH2 0x2215 JUMPI PUSH2 0x2214 PUSH2 0x1B2A JUMP JUMPDEST JUMPDEST DUP3 DUP3 ADD SWAP1 POP SWAP3 SWAP2 POP POP JUMP JUMPDEST PUSH32 0x4C5020746F6B656E20616464726573732068617320616C726561647920626565 PUSH1 0x0 DUP3 ADD MSTORE PUSH32 0x6E20736574000000000000000000000000000000000000000000000000000000 PUSH1 0x20 DUP3 ADD MSTORE POP JUMP JUMPDEST PUSH1 0x0 PUSH2 0x227C PUSH1 0x25 DUP4 PUSH2 0x1A45 JUMP JUMPDEST SWAP2 POP PUSH2 0x2287 DUP3 PUSH2 0x2220 JUMP JUMPDEST PUSH1 0x40 DUP3 ADD SWAP1 POP SWAP2 SWAP1 POP JUMP JUMPDEST PUSH1 0x0 PUSH1 0x20 DUP3 ADD SWAP1 POP DUP2 DUP2 SUB PUSH1 0x0 DUP4 ADD MSTORE PUSH2 0x22AB DUP2 PUSH2 0x226F JUMP JUMPDEST SWAP1 POP SWAP2 SWAP1 POP JUMP JUMPDEST PUSH32 0x796F7520617265206E6F74207468652061646472657373207365747465720000 PUSH1 0x0 DUP3 ADD MSTORE POP JUMP JUMPDEST PUSH1 0x0 PUSH2 0x22E8 PUSH1 0x1E DUP4 PUSH2 0x1A45 JUMP JUMPDEST SWAP2 POP PUSH2 0x22F3 DUP3 PUSH2 0x22B2 JUMP JUMPDEST PUSH1 0x20 DUP3 ADD SWAP1 POP SWAP2 SWAP1 POP JUMP JUMPDEST PUSH1 0x0 PUSH1 0x20 DUP3 ADD SWAP1 POP DUP2 DUP2 SUB PUSH1 0x0 DUP4 ADD MSTORE PUSH2 0x2317 DUP2 PUSH2 0x22DB JUMP JUMPDEST SWAP1 POP SWAP2 SWAP1 POP JUMP INVALID LOG2 PUSH5 0x6970667358 0x22 SLT KECCAK256 0xC9 PUSH26 0xAF62860CE08EA2185A401BC3CD8A8419D1352B944C574606C052 DUP9 DUP9 0xD3 CHAINID PUSH5 0x736F6C6343 STOP ADDMOD MULMOD STOP CALLER "},"gasEstimates":{"creation":{"codeDepositCost":"1808800","executionCost":"infinite","totalCost":"infinite"},"external":{"LPTokenAddress()":"2558","LPTokenAddressSetter()":"2559","deposit()":"infinite","ethToToken()":"infinite","ethToTokenView(uint256)":"infinite","getLiquidity()":"363","getTokenReserves()":"infinite","getTotalLiquidity()":"2460","init(uint256)":"infinite","setLPTokenAddress(address)":"55424","tokenToEth(uint256)":"infinite","tokenToEthView(uint256)":"infinite","totalLiquidity()":"2475","withdraw(uint256)":"infinite"},"internal":{"price(uint256,uint256,uint256)":"infinite"}},"methodIdentifiers":{"LPTokenAddress()":"c3828bf0","LPTokenAddressSetter()":"9b2a75d4","deposit()":"d0e30db0","ethToToken()":"789770f4","ethToTokenView(uint256)":"80c1443b","getLiquidity()":"0910a510","getTokenReserves()":"b9cf5005","getTotalLiquidity()":"35c7e925","init(uint256)":"b7b0422d","setLPTokenAddress(address)":"f42ebbe0","tokenToEth(uint256)":"70b2a30f","tokenToEthView(uint256)":"86e35a9a","totalLiquidity()":"15770f92","withdraw(uint256)":"2e1a7d4d"}},"storageLayout":{"storage":[{"astId":1366,"contract":"contracts/DexV1.sol:DexV1","label":"token","offset":0,"slot":"0","type":"t_contract(IERC20)663"},{"astId":1368,"contract":"contracts/DexV1.sol:DexV1","label":"totalLiquidity","offset":0,"slot":"1","type":"t_uint256"},{"astId":1370,"contract":"contracts/DexV1.sol:DexV1","label":"LPTokenAddress","offset":0,"slot":"2","type":"t_address"},{"astId":1373,"contract":"contracts/DexV1.sol:DexV1","label":"LPTokenAddressIsSet","offset":20,"slot":"2","type":"t_bool"},{"astId":1376,"contract":"contracts/DexV1.sol:DexV1","label":"isInitialized","offset":21,"slot":"2","type":"t_bool"},{"astId":1378,"contract":"contracts/DexV1.sol:DexV1","label":"LPTokenAddressSetter","offset":0,"slot":"3","type":"t_address"}],"types":{"t_address":{"encoding":"inplace","label":"address","numberOfBytes":"20"},"t_bool":{"encoding":"inplace","label":"bool","numberOfBytes":"1"},"t_contract(IERC20)663":{"encoding":"inplace","label":"contract IERC20","numberOfBytes":"20"},"t_uint256":{"encoding":"inplace","label":"uint256","numberOfBytes":"32"}}},"userdoc":{"kind":"user","methods":{"deposit()":{"notice":"Deposits reserve assets into the pool and gives user LP tokens in exchange, which represent the user's share in the pool."},"ethToToken()":{"notice":"Exchanges ETH for DEX tokens."},"ethToTokenView(uint256)":{"notice":"Function thats previews the DEX token amount returned for a ETH amount exchanged, without changing state."},"init(uint256)":{"notice":"Initializes the pool with reserves of DEX token and ETH"},"setLPTokenAddress(address)":{"notice":"Function called by the deployer of the contract that sets the address for the LP tokens. It should be set only once."},"tokenToEth(uint256)":{"notice":"Exchanges DEX tokens for ETH"},"tokenToEthView(uint256)":{"notice":"Function thats previews the ETH amount returned for DEX token amount exchanged, without changing state."},"withdraw(uint256)":{"notice":"Burns LP tokens from the user and transfers the underlying assets the tokens represent from the pool back to the user."}},"notice":"This contract is meant to showcase how a AMM DEX with LP tokens works, it is for educational purposes.","version":1}}}}