{
  "_format": "hh-sol-artifact-1",
  "contractName": "BasicNft",
  "sourceName": "contracts/test/BasicNft.sol",
  "abi": [
    {
      "inputs": [],
      "stateMutability": "nonpayable",
      "type": "constructor"
    },
    {
      "anonymous": false,
      "inputs": [
        {
          "indexed": true,
          "internalType": "address",
          "name": "owner",
          "type": "address"
        },
        {
          "indexed": true,
          "internalType": "address",
          "name": "approved",
          "type": "address"
        },
        {
          "indexed": true,
          "internalType": "uint256",
          "name": "tokenId",
          "type": "uint256"
        }
      ],
      "name": "Approval",
      "type": "event"
    },
    {
      "anonymous": false,
      "inputs": [
        {
          "indexed": true,
          "internalType": "address",
          "name": "owner",
          "type": "address"
        },
        {
          "indexed": true,
          "internalType": "address",
          "name": "operator",
          "type": "address"
        },
        {
          "indexed": false,
          "internalType": "bool",
          "name": "approved",
          "type": "bool"
        }
      ],
      "name": "ApprovalForAll",
      "type": "event"
    },
    {
      "anonymous": false,
      "inputs": [
        {
          "indexed": true,
          "internalType": "address",
          "name": "from",
          "type": "address"
        },
        {
          "indexed": true,
          "internalType": "address",
          "name": "to",
          "type": "address"
        },
        {
          "indexed": true,
          "internalType": "uint256",
          "name": "tokenId",
          "type": "uint256"
        }
      ],
      "name": "Transfer",
      "type": "event"
    },
    {
      "inputs": [],
      "name": "TOKEN_URI",
      "outputs": [
        {
          "internalType": "string",
          "name": "",
          "type": "string"
        }
      ],
      "stateMutability": "view",
      "type": "function"
    },
    {
      "inputs": [
        {
          "internalType": "address",
          "name": "to",
          "type": "address"
        },
        {
          "internalType": "uint256",
          "name": "tokenId",
          "type": "uint256"
        }
      ],
      "name": "approve",
      "outputs": [],
      "stateMutability": "nonpayable",
      "type": "function"
    },
    {
      "inputs": [
        {
          "internalType": "address",
          "name": "owner",
          "type": "address"
        }
      ],
      "name": "balanceOf",
      "outputs": [
        {
          "internalType": "uint256",
          "name": "",
          "type": "uint256"
        }
      ],
      "stateMutability": "view",
      "type": "function"
    },
    {
      "inputs": [
        {
          "internalType": "uint256",
          "name": "tokenId",
          "type": "uint256"
        }
      ],
      "name": "getApproved",
      "outputs": [
        {
          "internalType": "address",
          "name": "",
          "type": "address"
        }
      ],
      "stateMutability": "view",
      "type": "function"
    },
    {
      "inputs": [
        {
          "internalType": "uint256",
          "name": "tokenId",
          "type": "uint256"
        }
      ],
      "name": "getExists",
      "outputs": [
        {
          "internalType": "bool",
          "name": "existance",
          "type": "bool"
        }
      ],
      "stateMutability": "view",
      "type": "function"
    },
    {
      "inputs": [],
      "name": "getTokenCounter",
      "outputs": [
        {
          "internalType": "uint256",
          "name": "",
          "type": "uint256"
        }
      ],
      "stateMutability": "view",
      "type": "function"
    },
    {
      "inputs": [
        {
          "internalType": "address",
          "name": "owner",
          "type": "address"
        },
        {
          "internalType": "address",
          "name": "operator",
          "type": "address"
        }
      ],
      "name": "isApprovedForAll",
      "outputs": [
        {
          "internalType": "bool",
          "name": "",
          "type": "bool"
        }
      ],
      "stateMutability": "view",
      "type": "function"
    },
    {
      "inputs": [],
      "name": "mintNft",
      "outputs": [],
      "stateMutability": "nonpayable",
      "type": "function"
    },
    {
      "inputs": [],
      "name": "name",
      "outputs": [
        {
          "internalType": "string",
          "name": "",
          "type": "string"
        }
      ],
      "stateMutability": "view",
      "type": "function"
    },
    {
      "inputs": [
        {
          "internalType": "uint256",
          "name": "tokenId",
          "type": "uint256"
        }
      ],
      "name": "ownerOf",
      "outputs": [
        {
          "internalType": "address",
          "name": "",
          "type": "address"
        }
      ],
      "stateMutability": "view",
      "type": "function"
    },
    {
      "inputs": [
        {
          "internalType": "address",
          "name": "from",
          "type": "address"
        },
        {
          "internalType": "address",
          "name": "to",
          "type": "address"
        },
        {
          "internalType": "uint256",
          "name": "tokenId",
          "type": "uint256"
        }
      ],
      "name": "safeTransferFrom",
      "outputs": [],
      "stateMutability": "nonpayable",
      "type": "function"
    },
    {
      "inputs": [
        {
          "internalType": "address",
          "name": "from",
          "type": "address"
        },
        {
          "internalType": "address",
          "name": "to",
          "type": "address"
        },
        {
          "internalType": "uint256",
          "name": "tokenId",
          "type": "uint256"
        },
        {
          "internalType": "bytes",
          "name": "data",
          "type": "bytes"
        }
      ],
      "name": "safeTransferFrom",
      "outputs": [],
      "stateMutability": "nonpayable",
      "type": "function"
    },
    {
      "inputs": [
        {
          "internalType": "address",
          "name": "operator",
          "type": "address"
        },
        {
          "internalType": "bool",
          "name": "approved",
          "type": "bool"
        }
      ],
      "name": "setApprovalForAll",
      "outputs": [],
      "stateMutability": "nonpayable",
      "type": "function"
    },
    {
      "inputs": [
        {
          "internalType": "bytes4",
          "name": "interfaceId",
          "type": "bytes4"
        }
      ],
      "name": "supportsInterface",
      "outputs": [
        {
          "internalType": "bool",
          "name": "",
          "type": "bool"
        }
      ],
      "stateMutability": "view",
      "type": "function"
    },
    {
      "inputs": [],
      "name": "symbol",
      "outputs": [
        {
          "internalType": "string",
          "name": "",
          "type": "string"
        }
      ],
      "stateMutability": "view",
      "type": "function"
    },
    {
      "inputs": [
        {
          "internalType": "uint256",
          "name": "tokenId",
          "type": "uint256"
        }
      ],
      "name": "tokenURI",
      "outputs": [
        {
          "internalType": "string",
          "name": "",
          "type": "string"
        }
      ],
      "stateMutability": "view",
      "type": "function"
    },
    {
      "inputs": [
        {
          "internalType": "address",
          "name": "from",
          "type": "address"
        },
        {
          "internalType": "address",
          "name": "to",
          "type": "address"
        },
        {
          "internalType": "uint256",
          "name": "tokenId",
          "type": "uint256"
        }
      ],
      "name": "transferFrom",
      "outputs": [],
      "stateMutability": "nonpayable",
      "type": "function"
    }
  ],
  "bytecode": "0x60806040523480156200001157600080fd5b506040518060400160405280600581526020017f446f6769650000000000000000000000000000000000000000000000000000008152506040518060400160405280600381526020017f444f470000000000000000000000000000000000000000000000000000000000815250816000908051906020019062000096929190620000c0565b508060019080519060200190620000af929190620000c0565b5050506000600681905550620001d5565b828054620000ce906200019f565b90600052602060002090601f016020900481019282620000f257600085556200013e565b82601f106200010d57805160ff19168380011785556200013e565b828001600101855582156200013e579182015b828111156200013d57825182559160200191906001019062000120565b5b5090506200014d919062000151565b5090565b5b808211156200016c57600081600090555060010162000152565b5090565b7f4e487b7100000000000000000000000000000000000000000000000000000000600052602260045260246000fd5b60006002820490506001821680620001b857607f821691505b60208210811415620001cf57620001ce62000170565b5b50919050565b6122fe80620001e56000396000f3fe608060405234801561001057600080fd5b506004361061010b5760003560e01c806370a08231116100a2578063a22cb46511610071578063a22cb465146102cc578063b88d4fde146102e8578063c2229fea14610304578063c87b56dd1461030e578063e985e9c51461033e5761010b565b806370a082311461023057806376af5bf61461026057806378ce90351461029057806395d89b41146102ae5761010b565b806323b872dd116100de57806323b872dd146101aa57806342842e0e146101c65780636352211e146101e25780636e02007d146102125761010b565b806301ffc9a71461011057806306fdde0314610140578063081812fc1461015e578063095ea7b31461018e575b600080fd5b61012a6004803603810190610125919061156f565b61036e565b60405161013791906115b7565b60405180910390f35b610148610450565b604051610155919061166b565b60405180910390f35b610178600480360381019061017391906116c3565b6104e2565b6040516101859190611731565b60405180910390f35b6101a860048036038101906101a39190611778565b610528565b005b6101c460048036038101906101bf91906117b8565b610640565b005b6101e060048036038101906101db91906117b8565b6106a0565b005b6101fc60048036038101906101f791906116c3565b6106c0565b6040516102099190611731565b60405180910390f35b61021a610772565b604051610227919061181a565b60405180910390f35b61024a60048036038101906102459190611835565b61077c565b604051610257919061181a565b60405180910390f35b61027a600480360381019061027591906116c3565b610834565b60405161028791906115b7565b60405180910390f35b610298610846565b6040516102a5919061166b565b60405180910390f35b6102b6610862565b6040516102c3919061166b565b60405180910390f35b6102e660048036038101906102e1919061188e565b6108f4565b005b61030260048036038101906102fd9190611a03565b61090a565b005b61030c61096c565b005b610328600480360381019061032391906116c3565b61098f565b604051610335919061166b565b60405180910390f35b61035860048036038101906103539190611a86565b6109b1565b60405161036591906115b7565b60405180910390f35b60007f80ac58cd000000000000000000000000000000000000000000000000000000007bffffffffffffffffffffffffffffffffffffffffffffffffffffffff1916827bffffffffffffffffffffffffffffffffffffffffffffffffffffffff1916148061043957507f5b5e139f000000000000000000000000000000000000000000000000000000007bffffffffffffffffffffffffffffffffffffffffffffffffffffffff1916827bffffffffffffffffffffffffffffffffffffffffffffffffffffffff1916145b80610449575061044882610a45565b5b9050919050565b60606000805461045f90611af5565b80601f016020809104026020016040519081016040528092919081815260200182805461048b90611af5565b80156104d85780601f106104ad576101008083540402835291602001916104d8565b820191906000526020600020905b8154815290600101906020018083116104bb57829003601f168201915b5050505050905090565b60006104ed82610aaf565b6004600083815260200190815260200160002060009054906101000a900473ffffffffffffffffffffffffffffffffffffffff169050919050565b6000610533826106c0565b90508073ffffffffffffffffffffffffffffffffffffffff168373ffffffffffffffffffffffffffffffffffffffff1614156105a4576040517f08c379a000000000000000000000000000000000000000000000000000000000815260040161059b90611b99565b60405180910390fd5b8073ffffffffffffffffffffffffffffffffffffffff166105c3610afa565b73ffffffffffffffffffffffffffffffffffffffff1614806105f257506105f1816105ec610afa565b6109b1565b5b610631576040517f08c379a000000000000000000000000000000000000000000000000000000000815260040161062890611c2b565b60405180910390fd5b61063b8383610b02565b505050565b61065161064b610afa565b82610bbb565b610690576040517f08c379a000000000000000000000000000000000000000000000000000000000815260040161068790611cbd565b60405180910390fd5b61069b838383610c50565b505050565b6106bb8383836040518060200160405280600081525061090a565b505050565b6000806002600084815260200190815260200160002060009054906101000a900473ffffffffffffffffffffffffffffffffffffffff169050600073ffffffffffffffffffffffffffffffffffffffff168173ffffffffffffffffffffffffffffffffffffffff161415610769576040517f08c379a000000000000000000000000000000000000000000000000000000000815260040161076090611d29565b60405180910390fd5b80915050919050565b6000600654905090565b60008073ffffffffffffffffffffffffffffffffffffffff168273ffffffffffffffffffffffffffffffffffffffff1614156107ed576040517f08c379a00000000000000000000000000000000000000000000000000000000081526004016107e490611dbb565b60405180910390fd5b600360008373ffffffffffffffffffffffffffffffffffffffff1673ffffffffffffffffffffffffffffffffffffffff168152602001908152602001600020549050919050565b600061083f82610eb7565b9050919050565b6040518060800160405280605781526020016122726057913981565b60606001805461087190611af5565b80601f016020809104026020016040519081016040528092919081815260200182805461089d90611af5565b80156108ea5780601f106108bf576101008083540402835291602001916108ea565b820191906000526020600020905b8154815290600101906020018083116108cd57829003601f168201915b5050505050905090565b6109066108ff610afa565b8383610f23565b5050565b61091b610915610afa565b83610bbb565b61095a576040517f08c379a000000000000000000000000000000000000000000000000000000000815260040161095190611cbd565b60405180910390fd5b61096684848484611090565b50505050565b610978336006546110ec565b60016006546109879190611e0a565b600681905550565b6060604051806080016040528060578152602001612272605791399050919050565b6000600560008473ffffffffffffffffffffffffffffffffffffffff1673ffffffffffffffffffffffffffffffffffffffff16815260200190815260200160002060008373ffffffffffffffffffffffffffffffffffffffff1673ffffffffffffffffffffffffffffffffffffffff16815260200190815260200160002060009054906101000a900460ff16905092915050565b60007f01ffc9a7000000000000000000000000000000000000000000000000000000007bffffffffffffffffffffffffffffffffffffffffffffffffffffffff1916827bffffffffffffffffffffffffffffffffffffffffffffffffffffffff1916149050919050565b610ab881610eb7565b610af7576040517f08c379a0000000000000000000000000000000000000000000000000000000008152600401610aee90611d29565b60405180910390fd5b50565b600033905090565b816004600083815260200190815260200160002060006101000a81548173ffffffffffffffffffffffffffffffffffffffff021916908373ffffffffffffffffffffffffffffffffffffffff160217905550808273ffffffffffffffffffffffffffffffffffffffff16610b75836106c0565b73ffffffffffffffffffffffffffffffffffffffff167f8c5be1e5ebec7d5bd14f71427d1e84f3dd0314c0f7b2291e5b200ac8c7c3b92560405160405180910390a45050565b600080610bc7836106c0565b90508073ffffffffffffffffffffffffffffffffffffffff168473ffffffffffffffffffffffffffffffffffffffff161480610c095750610c0881856109b1565b5b80610c4757508373ffffffffffffffffffffffffffffffffffffffff16610c2f846104e2565b73ffffffffffffffffffffffffffffffffffffffff16145b91505092915050565b8273ffffffffffffffffffffffffffffffffffffffff16610c70826106c0565b73ffffffffffffffffffffffffffffffffffffffff1614610cc6576040517f08c379a0000000000000000000000000000000000000000000000000000000008152600401610cbd90611ed2565b60405180910390fd5b600073ffffffffffffffffffffffffffffffffffffffff168273ffffffffffffffffffffffffffffffffffffffff161415610d36576040517f08c379a0000000000000000000000000000000000000000000000000000000008152600401610d2d90611f64565b60405180910390fd5b610d4183838361110a565b610d4c600082610b02565b6001600360008573ffffffffffffffffffffffffffffffffffffffff1673ffffffffffffffffffffffffffffffffffffffff1681526020019081526020016000206000828254610d9c9190611f84565b925050819055506001600360008473ffffffffffffffffffffffffffffffffffffffff1673ffffffffffffffffffffffffffffffffffffffff1681526020019081526020016000206000828254610df39190611e0a565b92505081905550816002600083815260200190815260200160002060006101000a81548173ffffffffffffffffffffffffffffffffffffffff021916908373ffffffffffffffffffffffffffffffffffffffff160217905550808273ffffffffffffffffffffffffffffffffffffffff168473ffffffffffffffffffffffffffffffffffffffff167fddf252ad1be2c89b69c2b068fc378daa952ba7f163c4a11628f55a4df523b3ef60405160405180910390a4610eb283838361110f565b505050565b60008073ffffffffffffffffffffffffffffffffffffffff166002600084815260200190815260200160002060009054906101000a900473ffffffffffffffffffffffffffffffffffffffff1673ffffffffffffffffffffffffffffffffffffffff1614159050919050565b8173ffffffffffffffffffffffffffffffffffffffff168373ffffffffffffffffffffffffffffffffffffffff161415610f92576040517f08c379a0000000000000000000000000000000000000000000000000000000008152600401610f8990612004565b60405180910390fd5b80600560008573ffffffffffffffffffffffffffffffffffffffff1673ffffffffffffffffffffffffffffffffffffffff16815260200190815260200160002060008473ffffffffffffffffffffffffffffffffffffffff1673ffffffffffffffffffffffffffffffffffffffff16815260200190815260200160002060006101000a81548160ff0219169083151502179055508173ffffffffffffffffffffffffffffffffffffffff168373ffffffffffffffffffffffffffffffffffffffff167f17307eab39ab6107e8899845ad3d59bd9653f200f220920489ca2b5937696c318360405161108391906115b7565b60405180910390a3505050565b61109b848484610c50565b6110a784848484611114565b6110e6576040517f08c379a00000000000000000000000000000000000000000000000000000000081526004016110dd90612096565b60405180910390fd5b50505050565b6111068282604051806020016040528060008152506112ab565b5050565b505050565b505050565b60006111358473ffffffffffffffffffffffffffffffffffffffff16611306565b1561129e578373ffffffffffffffffffffffffffffffffffffffff1663150b7a0261115e610afa565b8786866040518563ffffffff1660e01b8152600401611180949392919061210b565b602060405180830381600087803b15801561119a57600080fd5b505af19250505080156111cb57506040513d601f19601f820116820180604052508101906111c8919061216c565b60015b61124e573d80600081146111fb576040519150601f19603f3d011682016040523d82523d6000602084013e611200565b606091505b50600081511415611246576040517f08c379a000000000000000000000000000000000000000000000000000000000815260040161123d90612096565b60405180910390fd5b805181602001fd5b63150b7a0260e01b7bffffffffffffffffffffffffffffffffffffffffffffffffffffffff1916817bffffffffffffffffffffffffffffffffffffffffffffffffffffffff1916149150506112a3565b600190505b949350505050565b6112b58383611329565b6112c26000848484611114565b611301576040517f08c379a00000000000000000000000000000000000000000000000000000000081526004016112f890612096565b60405180910390fd5b505050565b6000808273ffffffffffffffffffffffffffffffffffffffff163b119050919050565b600073ffffffffffffffffffffffffffffffffffffffff168273ffffffffffffffffffffffffffffffffffffffff161415611399576040517f08c379a0000000000000000000000000000000000000000000000000000000008152600401611390906121e5565b60405180910390fd5b6113a281610eb7565b156113e2576040517f08c379a00000000000000000000000000000000000000000000000000000000081526004016113d990612251565b60405180910390fd5b6113ee6000838361110a565b6001600360008473ffffffffffffffffffffffffffffffffffffffff1673ffffffffffffffffffffffffffffffffffffffff168152602001908152602001600020600082825461143e9190611e0a565b92505081905550816002600083815260200190815260200160002060006101000a81548173ffffffffffffffffffffffffffffffffffffffff021916908373ffffffffffffffffffffffffffffffffffffffff160217905550808273ffffffffffffffffffffffffffffffffffffffff16600073ffffffffffffffffffffffffffffffffffffffff167fddf252ad1be2c89b69c2b068fc378daa952ba7f163c4a11628f55a4df523b3ef60405160405180910390a46114ff6000838361110f565b5050565b6000604051905090565b600080fd5b600080fd5b60007fffffffff0000000000000000000000000000000000000000000000000000000082169050919050565b61154c81611517565b811461155757600080fd5b50565b60008135905061156981611543565b92915050565b6000602082840312156115855761158461150d565b5b60006115938482850161155a565b91505092915050565b60008115159050919050565b6115b18161159c565b82525050565b60006020820190506115cc60008301846115a8565b92915050565b600081519050919050565b600082825260208201905092915050565b60005b8381101561160c5780820151818401526020810190506115f1565b8381111561161b576000848401525b50505050565b6000601f19601f8301169050919050565b600061163d826115d2565b61164781856115dd565b93506116578185602086016115ee565b61166081611621565b840191505092915050565b600060208201905081810360008301526116858184611632565b905092915050565b6000819050919050565b6116a08161168d565b81146116ab57600080fd5b50565b6000813590506116bd81611697565b92915050565b6000602082840312156116d9576116d861150d565b5b60006116e7848285016116ae565b91505092915050565b600073ffffffffffffffffffffffffffffffffffffffff82169050919050565b600061171b826116f0565b9050919050565b61172b81611710565b82525050565b60006020820190506117466000830184611722565b92915050565b61175581611710565b811461176057600080fd5b50565b6000813590506117728161174c565b92915050565b6000806040838503121561178f5761178e61150d565b5b600061179d85828601611763565b92505060206117ae858286016116ae565b9150509250929050565b6000806000606084860312156117d1576117d061150d565b5b60006117df86828701611763565b93505060206117f086828701611763565b9250506040611801868287016116ae565b9150509250925092565b6118148161168d565b82525050565b600060208201905061182f600083018461180b565b92915050565b60006020828403121561184b5761184a61150d565b5b600061185984828501611763565b91505092915050565b61186b8161159c565b811461187657600080fd5b50565b60008135905061188881611862565b92915050565b600080604083850312156118a5576118a461150d565b5b60006118b385828601611763565b92505060206118c485828601611879565b9150509250929050565b600080fd5b600080fd5b7f4e487b7100000000000000000000000000000000000000000000000000000000600052604160045260246000fd5b61191082611621565b810181811067ffffffffffffffff8211171561192f5761192e6118d8565b5b80604052505050565b6000611942611503565b905061194e8282611907565b919050565b600067ffffffffffffffff82111561196e5761196d6118d8565b5b61197782611621565b9050602081019050919050565b82818337600083830152505050565b60006119a66119a184611953565b611938565b9050828152602081018484840111156119c2576119c16118d3565b5b6119cd848285611984565b509392505050565b600082601f8301126119ea576119e96118ce565b5b81356119fa848260208601611993565b91505092915050565b60008060008060808587031215611a1d57611a1c61150d565b5b6000611a2b87828801611763565b9450506020611a3c87828801611763565b9350506040611a4d878288016116ae565b925050606085013567ffffffffffffffff811115611a6e57611a6d611512565b5b611a7a878288016119d5565b91505092959194509250565b60008060408385031215611a9d57611a9c61150d565b5b6000611aab85828601611763565b9250506020611abc85828601611763565b9150509250929050565b7f4e487b7100000000000000000000000000000000000000000000000000000000600052602260045260246000fd5b60006002820490506001821680611b0d57607f821691505b60208210811415611b2157611b20611ac6565b5b50919050565b7f4552433732313a20617070726f76616c20746f2063757272656e74206f776e6560008201527f7200000000000000000000000000000000000000000000000000000000000000602082015250565b6000611b836021836115dd565b9150611b8e82611b27565b604082019050919050565b60006020820190508181036000830152611bb281611b76565b9050919050565b7f4552433732313a20617070726f76652063616c6c6572206973206e6f7420746f60008201527f6b656e206f776e6572206e6f7220617070726f76656420666f7220616c6c0000602082015250565b6000611c15603e836115dd565b9150611c2082611bb9565b604082019050919050565b60006020820190508181036000830152611c4481611c08565b9050919050565b7f4552433732313a2063616c6c6572206973206e6f7420746f6b656e206f776e6560008201527f72206e6f7220617070726f766564000000000000000000000000000000000000602082015250565b6000611ca7602e836115dd565b9150611cb282611c4b565b604082019050919050565b60006020820190508181036000830152611cd681611c9a565b9050919050565b7f4552433732313a20696e76616c696420746f6b656e2049440000000000000000600082015250565b6000611d136018836115dd565b9150611d1e82611cdd565b602082019050919050565b60006020820190508181036000830152611d4281611d06565b9050919050565b7f4552433732313a2061646472657373207a65726f206973206e6f74206120766160008201527f6c6964206f776e65720000000000000000000000000000000000000000000000602082015250565b6000611da56029836115dd565b9150611db082611d49565b604082019050919050565b60006020820190508181036000830152611dd481611d98565b9050919050565b7f4e487b7100000000000000000000000000000000000000000000000000000000600052601160045260246000fd5b6000611e158261168d565b9150611e208361168d565b9250827fffffffffffffffffffffffffffffffffffffffffffffffffffffffffffffffff03821115611e5557611e54611ddb565b5b828201905092915050565b7f4552433732313a207472616e736665722066726f6d20696e636f72726563742060008201527f6f776e6572000000000000000000000000000000000000000000000000000000602082015250565b6000611ebc6025836115dd565b9150611ec782611e60565b604082019050919050565b60006020820190508181036000830152611eeb81611eaf565b9050919050565b7f4552433732313a207472616e7366657220746f20746865207a65726f2061646460008201527f7265737300000000000000000000000000000000000000000000000000000000602082015250565b6000611f4e6024836115dd565b9150611f5982611ef2565b604082019050919050565b60006020820190508181036000830152611f7d81611f41565b9050919050565b6000611f8f8261168d565b9150611f9a8361168d565b925082821015611fad57611fac611ddb565b5b828203905092915050565b7f4552433732313a20617070726f766520746f2063616c6c657200000000000000600082015250565b6000611fee6019836115dd565b9150611ff982611fb8565b602082019050919050565b6000602082019050818103600083015261201d81611fe1565b9050919050565b7f4552433732313a207472616e7366657220746f206e6f6e20455243373231526560008201527f63656976657220696d706c656d656e7465720000000000000000000000000000602082015250565b60006120806032836115dd565b915061208b82612024565b604082019050919050565b600060208201905081810360008301526120af81612073565b9050919050565b600081519050919050565b600082825260208201905092915050565b60006120dd826120b6565b6120e781856120c1565b93506120f78185602086016115ee565b61210081611621565b840191505092915050565b60006080820190506121206000830187611722565b61212d6020830186611722565b61213a604083018561180b565b818103606083015261214c81846120d2565b905095945050505050565b60008151905061216681611543565b92915050565b6000602082840312156121825761218161150d565b5b600061219084828501612157565b91505092915050565b7f4552433732313a206d696e7420746f20746865207a65726f2061646472657373600082015250565b60006121cf6020836115dd565b91506121da82612199565b602082019050919050565b600060208201905081810360008301526121fe816121c2565b9050919050565b7f4552433732313a20746f6b656e20616c7265616479206d696e74656400000000600082015250565b600061223b601c836115dd565b915061224682612205565b602082019050919050565b6000602082019050818103600083015261226a8161222e565b905091905056fe697066733a2f2f62616679626569673337696f6972373673376d67356f6f6265746e636f6a636d3363336878617379643472766964346a71687934676b61686567342f3f66696c656e616d653d302d5055472e6a736f6ea26469706673582212207cd21ee54ddba29ed596275744a48394421d4356440f0c9673859421cc93e1ec64736f6c63430008080033",
  "linkReferences": {},
  "deployedLinkReferences": {}
}