{
  "_format": "hh-sol-artifact-1",
  "contractName": "YEAHToken",
  "sourceName": "contracts/yeah.sol",
  "abi": [
    {
      "inputs": [
        {
          "internalType": "address",
          "name": "_controlMultiSig",
          "type": "address"
        }
      ],
      "stateMutability": "nonpayable",
      "type": "constructor"
    },
    {
      "anonymous": false,
      "inputs": [
        {
          "indexed": true,
          "internalType": "address",
          "name": "owner",
          "type": "address"
        },
        {
          "indexed": true,
          "internalType": "address",
          "name": "spender",
          "type": "address"
        },
        {
          "indexed": false,
          "internalType": "uint256",
          "name": "value",
          "type": "uint256"
        }
      ],
      "name": "Approval",
      "type": "event"
    },
    {
      "anonymous": false,
      "inputs": [
        {
          "indexed": true,
          "internalType": "address",
          "name": "from",
          "type": "address"
        },
        {
          "indexed": true,
          "internalType": "address",
          "name": "to",
          "type": "address"
        },
        {
          "indexed": false,
          "internalType": "uint256",
          "name": "value",
          "type": "uint256"
        }
      ],
      "name": "Transfer",
      "type": "event"
    },
    {
      "inputs": [
        {
          "internalType": "address",
          "name": "owner",
          "type": "address"
        },
        {
          "internalType": "address",
          "name": "spender",
          "type": "address"
        }
      ],
      "name": "allowance",
      "outputs": [
        {
          "internalType": "uint256",
          "name": "",
          "type": "uint256"
        }
      ],
      "stateMutability": "view",
      "type": "function"
    },
    {
      "inputs": [
        {
          "internalType": "address",
          "name": "spender",
          "type": "address"
        },
        {
          "internalType": "uint256",
          "name": "amount",
          "type": "uint256"
        }
      ],
      "name": "approve",
      "outputs": [
        {
          "internalType": "bool",
          "name": "",
          "type": "bool"
        }
      ],
      "stateMutability": "nonpayable",
      "type": "function"
    },
    {
      "inputs": [
        {
          "internalType": "address",
          "name": "account",
          "type": "address"
        }
      ],
      "name": "balanceOf",
      "outputs": [
        {
          "internalType": "uint256",
          "name": "",
          "type": "uint256"
        }
      ],
      "stateMutability": "view",
      "type": "function"
    },
    {
      "inputs": [],
      "name": "controlMultiSig",
      "outputs": [
        {
          "internalType": "address",
          "name": "",
          "type": "address"
        }
      ],
      "stateMutability": "view",
      "type": "function"
    },
    {
      "inputs": [],
      "name": "decimals",
      "outputs": [
        {
          "internalType": "uint8",
          "name": "",
          "type": "uint8"
        }
      ],
      "stateMutability": "view",
      "type": "function"
    },
    {
      "inputs": [
        {
          "internalType": "address",
          "name": "spender",
          "type": "address"
        },
        {
          "internalType": "uint256",
          "name": "subtractedValue",
          "type": "uint256"
        }
      ],
      "name": "decreaseAllowance",
      "outputs": [
        {
          "internalType": "bool",
          "name": "",
          "type": "bool"
        }
      ],
      "stateMutability": "nonpayable",
      "type": "function"
    },
    {
      "inputs": [
        {
          "internalType": "address",
          "name": "spender",
          "type": "address"
        },
        {
          "internalType": "uint256",
          "name": "addedValue",
          "type": "uint256"
        }
      ],
      "name": "increaseAllowance",
      "outputs": [
        {
          "internalType": "bool",
          "name": "",
          "type": "bool"
        }
      ],
      "stateMutability": "nonpayable",
      "type": "function"
    },
    {
      "inputs": [
        {
          "internalType": "address",
          "name": "mintRecipient",
          "type": "address"
        },
        {
          "internalType": "uint256",
          "name": "tokensToMint",
          "type": "uint256"
        }
      ],
      "name": "mintTokensTo",
      "outputs": [],
      "stateMutability": "nonpayable",
      "type": "function"
    },
    {
      "inputs": [],
      "name": "name",
      "outputs": [
        {
          "internalType": "string",
          "name": "",
          "type": "string"
        }
      ],
      "stateMutability": "view",
      "type": "function"
    },
    {
      "inputs": [],
      "name": "symbol",
      "outputs": [
        {
          "internalType": "string",
          "name": "",
          "type": "string"
        }
      ],
      "stateMutability": "view",
      "type": "function"
    },
    {
      "inputs": [],
      "name": "totalSupply",
      "outputs": [
        {
          "internalType": "uint256",
          "name": "",
          "type": "uint256"
        }
      ],
      "stateMutability": "view",
      "type": "function"
    },
    {
      "inputs": [
        {
          "internalType": "address",
          "name": "to",
          "type": "address"
        },
        {
          "internalType": "uint256",
          "name": "amount",
          "type": "uint256"
        }
      ],
      "name": "transfer",
      "outputs": [
        {
          "internalType": "bool",
          "name": "",
          "type": "bool"
        }
      ],
      "stateMutability": "nonpayable",
      "type": "function"
    },
    {
      "inputs": [
        {
          "internalType": "address",
          "name": "from",
          "type": "address"
        },
        {
          "internalType": "address",
          "name": "to",
          "type": "address"
        },
        {
          "internalType": "uint256",
          "name": "amount",
          "type": "uint256"
        }
      ],
      "name": "transferFrom",
      "outputs": [
        {
          "internalType": "bool",
          "name": "",
          "type": "bool"
        }
      ],
      "stateMutability": "nonpayable",
      "type": "function"
    }
  ],
  "bytecode": "0x60806040523480156200001157600080fd5b5060405162001b1238038062001b1283398181016040528101906200003791906200037d565b6040518060400160405280600481526020017f59656168000000000000000000000000000000000000000000000000000000008152506040518060400160405280600481526020017f59454148000000000000000000000000000000000000000000000000000000008152508160039080519060200190620000bb929190620002b6565b508060049080519060200190620000d4929190620002b6565b505050620000eb336103e86200013360201b60201c565b80600560006101000a81548173ffffffffffffffffffffffffffffffffffffffff021916908373ffffffffffffffffffffffffffffffffffffffff1602179055505062000595565b600073ffffffffffffffffffffffffffffffffffffffff168273ffffffffffffffffffffffffffffffffffffffff161415620001a6576040517f08c379a00000000000000000000000000000000000000000000000000000000081526004016200019d90620003fc565b60405180910390fd5b620001ba60008383620002ac60201b60201c565b8060026000828254620001ce91906200044c565b92505081905550806000808473ffffffffffffffffffffffffffffffffffffffff1673ffffffffffffffffffffffffffffffffffffffff16815260200190815260200160002060008282546200022591906200044c565b925050819055508173ffffffffffffffffffffffffffffffffffffffff16600073ffffffffffffffffffffffffffffffffffffffff167fddf252ad1be2c89b69c2b068fc378daa952ba7f163c4a11628f55a4df523b3ef836040516200028c91906200041e565b60405180910390a3620002a860008383620002b160201b60201c565b5050565b505050565b505050565b828054620002c490620004e7565b90600052602060002090601f016020900481019282620002e8576000855562000334565b82601f106200030357805160ff191683800117855562000334565b8280016001018555821562000334579182015b828111156200033357825182559160200191906001019062000316565b5b50905062000343919062000347565b5090565b5b808211156200036257600081600090555060010162000348565b5090565b60008151905062000377816200057b565b92915050565b6000602082840312156200039057600080fd5b6000620003a08482850162000366565b91505092915050565b6000620003b8601f836200043b565b91507f45524332303a206d696e7420746f20746865207a65726f2061646472657373006000830152602082019050919050565b620003f681620004dd565b82525050565b600060208201905081810360008301526200041781620003a9565b9050919050565b6000602082019050620004356000830184620003eb565b92915050565b600082825260208201905092915050565b60006200045982620004dd565b91506200046683620004dd565b9250827fffffffffffffffffffffffffffffffffffffffffffffffffffffffffffffffff038211156200049e576200049d6200051d565b5b828201905092915050565b6000620004b682620004bd565b9050919050565b600073ffffffffffffffffffffffffffffffffffffffff82169050919050565b6000819050919050565b600060028204905060018216806200050057607f821691505b602082108114156200051757620005166200054c565b5b50919050565b7f4e487b7100000000000000000000000000000000000000000000000000000000600052601160045260246000fd5b7f4e487b7100000000000000000000000000000000000000000000000000000000600052602260045260246000fd5b6200058681620004a9565b81146200059257600080fd5b50565b61156d80620005a56000396000f3fe608060405234801561001057600080fd5b50600436106100cf5760003560e01c8063395093511161008c578063a457c2d711610066578063a457c2d714610228578063a9059cbb14610258578063ae31bf1f14610288578063dd62ed3e146102a6576100cf565b806339509351146101aa57806370a08231146101da57806395d89b411461020a576100cf565b80630549a1be146100d457806306fdde03146100f0578063095ea7b31461010e57806318160ddd1461013e57806323b872dd1461015c578063313ce5671461018c575b600080fd5b6100ee60048036038101906100e99190610deb565b6102d6565b005b6100f8610374565b60405161010591906111f6565b60405180910390f35b61012860048036038101906101239190610deb565b610406565b60405161013591906111db565b60405180910390f35b610146610429565b6040516101539190611338565b60405180910390f35b61017660048036038101906101719190610d9c565b610433565b60405161018391906111db565b60405180910390f35b610194610462565b6040516101a19190611353565b60405180910390f35b6101c460048036038101906101bf9190610deb565b61046b565b6040516101d191906111db565b60405180910390f35b6101f460048036038101906101ef9190610d37565b6104a2565b6040516102019190611338565b60405180910390f35b6102126104ea565b60405161021f91906111f6565b60405180910390f35b610242600480360381019061023d9190610deb565b61057c565b60405161024f91906111db565b60405180910390f35b610272600480360381019061026d9190610deb565b6105f3565b60405161027f91906111db565b60405180910390f35b610290610616565b60405161029d91906111c0565b60405180910390f35b6102c060048036038101906102bb9190610d60565b61063c565b6040516102cd9190611338565b60405180910390f35b600560009054906101000a900473ffffffffffffffffffffffffffffffffffffffff1673ffffffffffffffffffffffffffffffffffffffff163373ffffffffffffffffffffffffffffffffffffffff1614610366576040517f08c379a000000000000000000000000000000000000000000000000000000000815260040161035d906112d8565b60405180910390fd5b61037082826106c3565b5050565b60606003805461038390611468565b80601f01602080910402602001604051908101604052809291908181526020018280546103af90611468565b80156103fc5780601f106103d1576101008083540402835291602001916103fc565b820191906000526020600020905b8154815290600101906020018083116103df57829003601f168201915b5050505050905090565b600080610411610823565b905061041e81858561082b565b600191505092915050565b6000600254905090565b60008061043e610823565b905061044b8582856109f6565b610456858585610a82565b60019150509392505050565b60006012905090565b600080610476610823565b9050610497818585610488858961063c565b610492919061138a565b61082b565b600191505092915050565b60008060008373ffffffffffffffffffffffffffffffffffffffff1673ffffffffffffffffffffffffffffffffffffffff168152602001908152602001600020549050919050565b6060600480546104f990611468565b80601f016020809104026020016040519081016040528092919081815260200182805461052590611468565b80156105725780601f1061054757610100808354040283529160200191610572565b820191906000526020600020905b81548152906001019060200180831161055557829003601f168201915b5050505050905090565b600080610587610823565b90506000610595828661063c565b9050838110156105da576040517f08c379a00000000000000000000000000000000000000000000000000000000081526004016105d1906112f8565b60405180910390fd5b6105e7828686840361082b565b60019250505092915050565b6000806105fe610823565b905061060b818585610a82565b600191505092915050565b600560009054906101000a900473ffffffffffffffffffffffffffffffffffffffff1681565b6000600160008473ffffffffffffffffffffffffffffffffffffffff1673ffffffffffffffffffffffffffffffffffffffff16815260200190815260200160002060008373ffffffffffffffffffffffffffffffffffffffff1673ffffffffffffffffffffffffffffffffffffffff16815260200190815260200160002054905092915050565b600073ffffffffffffffffffffffffffffffffffffffff168273ffffffffffffffffffffffffffffffffffffffff161415610733576040517f08c379a000000000000000000000000000000000000000000000000000000000815260040161072a90611318565b60405180910390fd5b61073f60008383610d03565b8060026000828254610751919061138a565b92505081905550806000808473ffffffffffffffffffffffffffffffffffffffff1673ffffffffffffffffffffffffffffffffffffffff16815260200190815260200160002060008282546107a6919061138a565b925050819055508173ffffffffffffffffffffffffffffffffffffffff16600073ffffffffffffffffffffffffffffffffffffffff167fddf252ad1be2c89b69c2b068fc378daa952ba7f163c4a11628f55a4df523b3ef8360405161080b9190611338565b60405180910390a361081f60008383610d08565b5050565b600033905090565b600073ffffffffffffffffffffffffffffffffffffffff168373ffffffffffffffffffffffffffffffffffffffff16141561089b576040517f08c379a0000000000000000000000000000000000000000000000000000000008152600401610892906112b8565b60405180910390fd5b600073ffffffffffffffffffffffffffffffffffffffff168273ffffffffffffffffffffffffffffffffffffffff16141561090b576040517f08c379a000000000000000000000000000000000000000000000000000000000815260040161090290611238565b60405180910390fd5b80600160008573ffffffffffffffffffffffffffffffffffffffff1673ffffffffffffffffffffffffffffffffffffffff16815260200190815260200160002060008473ffffffffffffffffffffffffffffffffffffffff1673ffffffffffffffffffffffffffffffffffffffff168152602001908152602001600020819055508173ffffffffffffffffffffffffffffffffffffffff168373ffffffffffffffffffffffffffffffffffffffff167f8c5be1e5ebec7d5bd14f71427d1e84f3dd0314c0f7b2291e5b200ac8c7c3b925836040516109e99190611338565b60405180910390a3505050565b6000610a02848461063c565b90507fffffffffffffffffffffffffffffffffffffffffffffffffffffffffffffffff8114610a7c5781811015610a6e576040517f08c379a0000000000000000000000000000000000000000000000000000000008152600401610a6590611258565b60405180910390fd5b610a7b848484840361082b565b5b50505050565b600073ffffffffffffffffffffffffffffffffffffffff168373ffffffffffffffffffffffffffffffffffffffff161415610af2576040517f08c379a0000000000000000000000000000000000000000000000000000000008152600401610ae990611298565b60405180910390fd5b600073ffffffffffffffffffffffffffffffffffffffff168273ffffffffffffffffffffffffffffffffffffffff161415610b62576040517f08c379a0000000000000000000000000000000000000000000000000000000008152600401610b5990611218565b60405180910390fd5b610b6d838383610d03565b60008060008573ffffffffffffffffffffffffffffffffffffffff1673ffffffffffffffffffffffffffffffffffffffff16815260200190815260200160002054905081811015610bf3576040517f08c379a0000000000000000000000000000000000000000000000000000000008152600401610bea90611278565b60405180910390fd5b8181036000808673ffffffffffffffffffffffffffffffffffffffff1673ffffffffffffffffffffffffffffffffffffffff16815260200190815260200160002081905550816000808573ffffffffffffffffffffffffffffffffffffffff1673ffffffffffffffffffffffffffffffffffffffff1681526020019081526020016000206000828254610c86919061138a565b925050819055508273ffffffffffffffffffffffffffffffffffffffff168473ffffffffffffffffffffffffffffffffffffffff167fddf252ad1be2c89b69c2b068fc378daa952ba7f163c4a11628f55a4df523b3ef84604051610cea9190611338565b60405180910390a3610cfd848484610d08565b50505050565b505050565b505050565b600081359050610d1c81611509565b92915050565b600081359050610d3181611520565b92915050565b600060208284031215610d4957600080fd5b6000610d5784828501610d0d565b91505092915050565b60008060408385031215610d7357600080fd5b6000610d8185828601610d0d565b9250506020610d9285828601610d0d565b9150509250929050565b600080600060608486031215610db157600080fd5b6000610dbf86828701610d0d565b9350506020610dd086828701610d0d565b9250506040610de186828701610d22565b9150509250925092565b60008060408385031215610dfe57600080fd5b6000610e0c85828601610d0d565b9250506020610e1d85828601610d22565b9150509250929050565b610e30816113e0565b82525050565b610e3f816113f2565b82525050565b6000610e508261136e565b610e5a8185611379565b9350610e6a818560208601611435565b610e73816114f8565b840191505092915050565b6000610e8b602383611379565b91507f45524332303a207472616e7366657220746f20746865207a65726f206164647260008301527f65737300000000000000000000000000000000000000000000000000000000006020830152604082019050919050565b6000610ef1602283611379565b91507f45524332303a20617070726f766520746f20746865207a65726f20616464726560008301527f73730000000000000000000000000000000000000000000000000000000000006020830152604082019050919050565b6000610f57601d83611379565b91507f45524332303a20696e73756666696369656e7420616c6c6f77616e63650000006000830152602082019050919050565b6000610f97602683611379565b91507f45524332303a207472616e7366657220616d6f756e742065786365656473206260008301527f616c616e636500000000000000000000000000000000000000000000000000006020830152604082019050919050565b6000610ffd602583611379565b91507f45524332303a207472616e736665722066726f6d20746865207a65726f20616460008301527f64726573730000000000000000000000000000000000000000000000000000006020830152604082019050919050565b6000611063602483611379565b91507f45524332303a20617070726f76652066726f6d20746865207a65726f2061646460008301527f72657373000000000000000000000000000000000000000000000000000000006020830152604082019050919050565b60006110c9600983611379565b91507f6e6f74206f776e657200000000000000000000000000000000000000000000006000830152602082019050919050565b6000611109602583611379565b91507f45524332303a2064656372656173656420616c6c6f77616e63652062656c6f7760008301527f207a65726f0000000000000000000000000000000000000000000000000000006020830152604082019050919050565b600061116f601f83611379565b91507f45524332303a206d696e7420746f20746865207a65726f2061646472657373006000830152602082019050919050565b6111ab8161141e565b82525050565b6111ba81611428565b82525050565b60006020820190506111d56000830184610e27565b92915050565b60006020820190506111f06000830184610e36565b92915050565b600060208201905081810360008301526112108184610e45565b905092915050565b6000602082019050818103600083015261123181610e7e565b9050919050565b6000602082019050818103600083015261125181610ee4565b9050919050565b6000602082019050818103600083015261127181610f4a565b9050919050565b6000602082019050818103600083015261129181610f8a565b9050919050565b600060208201905081810360008301526112b181610ff0565b9050919050565b600060208201905081810360008301526112d181611056565b9050919050565b600060208201905081810360008301526112f1816110bc565b9050919050565b60006020820190508181036000830152611311816110fc565b9050919050565b6000602082019050818103600083015261133181611162565b9050919050565b600060208201905061134d60008301846111a2565b92915050565b600060208201905061136860008301846111b1565b92915050565b600081519050919050565b600082825260208201905092915050565b60006113958261141e565b91506113a08361141e565b9250827fffffffffffffffffffffffffffffffffffffffffffffffffffffffffffffffff038211156113d5576113d461149a565b5b828201905092915050565b60006113eb826113fe565b9050919050565b60008115159050919050565b600073ffffffffffffffffffffffffffffffffffffffff82169050919050565b6000819050919050565b600060ff82169050919050565b60005b83811015611453578082015181840152602081019050611438565b83811115611462576000848401525b50505050565b6000600282049050600182168061148057607f821691505b60208210811415611494576114936114c9565b5b50919050565b7f4e487b7100000000000000000000000000000000000000000000000000000000600052601160045260246000fd5b7f4e487b7100000000000000000000000000000000000000000000000000000000600052602260045260246000fd5b6000601f19601f8301169050919050565b611512816113e0565b811461151d57600080fd5b50565b6115298161141e565b811461153457600080fd5b5056fea2646970667358221220905843bf8927d11773433935920b6911fe103ded60c155ef62c311433f80daa364736f6c63430008000033",
  "linkReferences": {},
  "deployedLinkReferences": {}
}