{
  "_format": "hh-sol-artifact-1",
  "contractName": "YeahTokenControlMultiSig",
  "sourceName": "contracts/YeahTokenControlMultiSig.sol",
  "abi": [
    {
      "inputs": [],
      "stateMutability": "nonpayable",
      "type": "constructor"
    },
    {
      "anonymous": false,
      "inputs": [
        {
          "indexed": true,
          "internalType": "address",
          "name": "owner",
          "type": "address"
        },
        {
          "indexed": true,
          "internalType": "uint256",
          "name": "txIndex",
          "type": "uint256"
        }
      ],
      "name": "ConfirmTransaction",
      "type": "event"
    },
    {
      "anonymous": false,
      "inputs": [
        {
          "indexed": true,
          "internalType": "address",
          "name": "sender",
          "type": "address"
        },
        {
          "indexed": false,
          "internalType": "uint256",
          "name": "amount",
          "type": "uint256"
        },
        {
          "indexed": false,
          "internalType": "uint256",
          "name": "balance",
          "type": "uint256"
        }
      ],
      "name": "Deposit",
      "type": "event"
    },
    {
      "anonymous": false,
      "inputs": [
        {
          "indexed": true,
          "internalType": "address",
          "name": "owner",
          "type": "address"
        },
        {
          "indexed": true,
          "internalType": "uint256",
          "name": "txIndex",
          "type": "uint256"
        }
      ],
      "name": "ExecuteTransaction",
      "type": "event"
    },
    {
      "anonymous": false,
      "inputs": [
        {
          "indexed": true,
          "internalType": "address",
          "name": "owner",
          "type": "address"
        },
        {
          "indexed": true,
          "internalType": "uint256",
          "name": "txIndex",
          "type": "uint256"
        }
      ],
      "name": "RevokeConfirmation",
      "type": "event"
    },
    {
      "anonymous": false,
      "inputs": [
        {
          "indexed": true,
          "internalType": "address",
          "name": "owner",
          "type": "address"
        },
        {
          "indexed": true,
          "internalType": "uint256",
          "name": "txIndex",
          "type": "uint256"
        },
        {
          "indexed": true,
          "internalType": "address",
          "name": "to",
          "type": "address"
        },
        {
          "indexed": false,
          "internalType": "uint256",
          "name": "value",
          "type": "uint256"
        },
        {
          "indexed": false,
          "internalType": "bytes",
          "name": "data",
          "type": "bytes"
        }
      ],
      "name": "SubmitTransaction",
      "type": "event"
    },
    {
      "inputs": [
        {
          "internalType": "address",
          "name": "newOwner",
          "type": "address"
        }
      ],
      "name": "addOwner",
      "outputs": [],
      "stateMutability": "nonpayable",
      "type": "function"
    },
    {
      "inputs": [
        {
          "internalType": "uint256",
          "name": "_txIndex",
          "type": "uint256"
        }
      ],
      "name": "confirmTransaction",
      "outputs": [],
      "stateMutability": "nonpayable",
      "type": "function"
    },
    {
      "inputs": [
        {
          "internalType": "address",
          "name": "erc20ContractAddress",
          "type": "address"
        },
        {
          "internalType": "uint256",
          "name": "tokenAmountToMint",
          "type": "uint256"
        }
      ],
      "name": "erc20Mint",
      "outputs": [
        {
          "internalType": "uint256",
          "name": "txIndex",
          "type": "uint256"
        }
      ],
      "stateMutability": "nonpayable",
      "type": "function"
    },
    {
      "inputs": [
        {
          "internalType": "uint256",
          "name": "_txIndex",
          "type": "uint256"
        }
      ],
      "name": "executeTransaction",
      "outputs": [],
      "stateMutability": "nonpayable",
      "type": "function"
    },
    {
      "inputs": [],
      "name": "getLastTxIndex",
      "outputs": [
        {
          "internalType": "uint256",
          "name": "lastTxIndex",
          "type": "uint256"
        }
      ],
      "stateMutability": "view",
      "type": "function"
    },
    {
      "inputs": [],
      "name": "getOwners",
      "outputs": [
        {
          "internalType": "address[]",
          "name": "",
          "type": "address[]"
        }
      ],
      "stateMutability": "view",
      "type": "function"
    },
    {
      "inputs": [
        {
          "internalType": "uint256",
          "name": "_txIndex",
          "type": "uint256"
        }
      ],
      "name": "getTransaction",
      "outputs": [
        {
          "internalType": "address",
          "name": "to",
          "type": "address"
        },
        {
          "internalType": "uint256",
          "name": "value",
          "type": "uint256"
        },
        {
          "internalType": "bytes",
          "name": "data",
          "type": "bytes"
        },
        {
          "internalType": "bool",
          "name": "executed",
          "type": "bool"
        },
        {
          "internalType": "uint256",
          "name": "numConfirmations",
          "type": "uint256"
        }
      ],
      "stateMutability": "view",
      "type": "function"
    },
    {
      "inputs": [],
      "name": "getTransactionCount",
      "outputs": [
        {
          "internalType": "uint256",
          "name": "",
          "type": "uint256"
        }
      ],
      "stateMutability": "view",
      "type": "function"
    },
    {
      "inputs": [
        {
          "internalType": "uint256",
          "name": "",
          "type": "uint256"
        },
        {
          "internalType": "address",
          "name": "",
          "type": "address"
        }
      ],
      "name": "isConfirmed",
      "outputs": [
        {
          "internalType": "bool",
          "name": "",
          "type": "bool"
        }
      ],
      "stateMutability": "view",
      "type": "function"
    },
    {
      "inputs": [
        {
          "internalType": "address",
          "name": "",
          "type": "address"
        }
      ],
      "name": "isOwner",
      "outputs": [
        {
          "internalType": "bool",
          "name": "",
          "type": "bool"
        }
      ],
      "stateMutability": "view",
      "type": "function"
    },
    {
      "inputs": [],
      "name": "numConfirmationsRequired",
      "outputs": [
        {
          "internalType": "uint256",
          "name": "",
          "type": "uint256"
        }
      ],
      "stateMutability": "view",
      "type": "function"
    },
    {
      "inputs": [
        {
          "internalType": "uint256",
          "name": "",
          "type": "uint256"
        }
      ],
      "name": "owners",
      "outputs": [
        {
          "internalType": "address",
          "name": "",
          "type": "address"
        }
      ],
      "stateMutability": "view",
      "type": "function"
    },
    {
      "inputs": [
        {
          "internalType": "uint256",
          "name": "_txIndex",
          "type": "uint256"
        }
      ],
      "name": "revokeConfirmation",
      "outputs": [],
      "stateMutability": "nonpayable",
      "type": "function"
    },
    {
      "inputs": [],
      "name": "sendEthBack",
      "outputs": [],
      "stateMutability": "nonpayable",
      "type": "function"
    },
    {
      "inputs": [
        {
          "internalType": "address",
          "name": "_to",
          "type": "address"
        },
        {
          "internalType": "uint256",
          "name": "_value",
          "type": "uint256"
        },
        {
          "internalType": "bytes",
          "name": "_data",
          "type": "bytes"
        }
      ],
      "name": "submitTransaction",
      "outputs": [],
      "stateMutability": "nonpayable",
      "type": "function"
    },
    {
      "inputs": [
        {
          "internalType": "uint256",
          "name": "",
          "type": "uint256"
        }
      ],
      "name": "transactions",
      "outputs": [
        {
          "internalType": "address",
          "name": "to",
          "type": "address"
        },
        {
          "internalType": "uint256",
          "name": "value",
          "type": "uint256"
        },
        {
          "internalType": "bytes",
          "name": "data",
          "type": "bytes"
        },
        {
          "internalType": "bool",
          "name": "executed",
          "type": "bool"
        },
        {
          "internalType": "uint256",
          "name": "numConfirmations",
          "type": "uint256"
        }
      ],
      "stateMutability": "view",
      "type": "function"
    },
    {
      "stateMutability": "payable",
      "type": "receive"
    }
  ],
  "bytecode": "0x608060405234801561001057600080fd5b5060028081905550612599806100276000396000f3fe6080604052600436106100f75760003560e01c80639ace38c21161008a578063d0549b8511610059578063d0549b85146103c3578063e0fb0f35146103ee578063ee22610b14610405578063fc75ac851461042e5761014e565b80639ace38c214610305578063a0e67e2b14610346578063c01a8c8414610371578063c64274741461039a5761014e565b806333ea3dc8116100c657806333ea3dc8146102215780637065cb481461026257806374c4bcbd1461028b57806380f59a65146102c85761014e565b8063025e7c271461015357806320ea8d86146101905780632e7700f0146101b95780632f54bf6e146101e45761014e565b3661014e573373ffffffffffffffffffffffffffffffffffffffff167f90890809c654f11d6e72a28fa60149770a0d11ec6c92319d6ceb2bb0a4ea1a15344760405161014492919061222f565b60405180910390a2005b600080fd5b34801561015f57600080fd5b5061017a60048036038101906101759190611af5565b610459565b6040516101879190611f99565b60405180910390f35b34801561019c57600080fd5b506101b760048036038101906101b29190611af5565b610498565b005b3480156101c557600080fd5b506101ce6107be565b6040516101db91906121e4565b60405180910390f35b3480156101f057600080fd5b5061020b60048036038101906102069190611a29565b6107cb565b6040516102189190612059565b60405180910390f35b34801561022d57600080fd5b5061024860048036038101906102439190611af5565b6107eb565b604051610259959493929190611fdd565b60405180910390f35b34801561026e57600080fd5b5061028960048036038101906102849190611a29565b610924565b005b34801561029757600080fd5b506102b260048036038101906102ad9190611a52565b610a6e565b6040516102bf91906121e4565b60405180910390f35b3480156102d457600080fd5b506102ef60048036038101906102ea9190611b1e565b610d0f565b6040516102fc9190612059565b60405180910390f35b34801561031157600080fd5b5061032c60048036038101906103279190611af5565b610d3e565b60405161033d959493929190611fdd565b60405180910390f35b34801561035257600080fd5b5061035b610e39565b6040516103689190612037565b60405180910390f35b34801561037d57600080fd5b5061039860048036038101906103939190611af5565b610ec7565b005b3480156103a657600080fd5b506103c160048036038101906103bc9190611a8e565b6111f0565b005b3480156103cf57600080fd5b506103d86113fa565b6040516103e591906121e4565b60405180910390f35b3480156103fa57600080fd5b50610403611400565b005b34801561041157600080fd5b5061042c60048036038101906104279190611af5565b61154f565b005b34801561043a57600080fd5b50610443611893565b60405161045091906121e4565b60405180910390f35b6000818154811061046957600080fd5b906000526020600020016000915054906101000a900473ffffffffffffffffffffffffffffffffffffffff1681565b600160003373ffffffffffffffffffffffffffffffffffffffff1673ffffffffffffffffffffffffffffffffffffffff16815260200190815260200160002060009054906101000a900460ff16610524576040517f08c379a000000000000000000000000000000000000000000000000000000000815260040161051b906121c4565b60405180910390fd5b80600480549050811061056c576040517f08c379a000000000000000000000000000000000000000000000000000000000815260040161056390612124565b60405180910390fd5b81600481815481106105a7577f4e487b7100000000000000000000000000000000000000000000000000000000600052603260045260246000fd5b906000526020600020906005020160030160009054906101000a900460ff1615610606576040517f08c379a00000000000000000000000000000000000000000000000000000000081526004016105fd90612164565b60405180910390fd5b600060048481548110610642577f4e487b7100000000000000000000000000000000000000000000000000000000600052603260045260246000fd5b906000526020600020906005020190506003600085815260200190815260200160002060003373ffffffffffffffffffffffffffffffffffffffff1673ffffffffffffffffffffffffffffffffffffffff16815260200190815260200160002060009054906101000a900460ff166106ef576040517f08c379a00000000000000000000000000000000000000000000000000000000081526004016106e690612184565b60405180910390fd5b60018160040160008282546107049190612395565b9250508190555060006003600086815260200190815260200160002060003373ffffffffffffffffffffffffffffffffffffffff1673ffffffffffffffffffffffffffffffffffffffff16815260200190815260200160002060006101000a81548160ff021916908315150217905550833373ffffffffffffffffffffffffffffffffffffffff167ff0dca620e2e81f7841d07bcc105e1704fb01475b278a9d4c236e1c62945edd5560405160405180910390a350505050565b6000600480549050905090565b60016020528060005260406000206000915054906101000a900460ff1681565b600080606060008060006004878154811061082f577f4e487b7100000000000000000000000000000000000000000000000000000000600052603260045260246000fd5b906000526020600020906005020190508060000160009054906101000a900473ffffffffffffffffffffffffffffffffffffffff168160010154826002018360030160009054906101000a900460ff16846004015482805461089090612465565b80601f01602080910402602001604051908101604052809291908181526020018280546108bc90612465565b80156109095780601f106108de57610100808354040283529160200191610909565b820191906000526020600020905b8154815290600101906020018083116108ec57829003601f168201915b50505050509250955095509550955095505091939590929450565b600160008273ffffffffffffffffffffffffffffffffffffffff1673ffffffffffffffffffffffffffffffffffffffff16815260200190815260200160002060009054906101000a900460ff16156109b1576040517f08c379a00000000000000000000000000000000000000000000000000000000081526004016109a8906120e4565b60405180910390fd5b60018060008373ffffffffffffffffffffffffffffffffffffffff1673ffffffffffffffffffffffffffffffffffffffff16815260200190815260200160002060006101000a81548160ff0219169083151502179055506000819080600181540180825580915050600190039060005260206000200160009091909190916101000a81548173ffffffffffffffffffffffffffffffffffffffff021916908373ffffffffffffffffffffffffffffffffffffffff16021790555050565b6000600160003373ffffffffffffffffffffffffffffffffffffffff1673ffffffffffffffffffffffffffffffffffffffff16815260200190815260200160002060009054906101000a900460ff16610afc576040517f08c379a0000000000000000000000000000000000000000000000000000000008152600401610af3906121c4565b60405180910390fd5b60003383604051602401610b11929190611fb4565b6040516020818303038152906040527f0549a1be000000000000000000000000000000000000000000000000000000007bffffffffffffffffffffffffffffffffffffffffffffffffffffffff19166020820180517bffffffffffffffffffffffffffffffffffffffffffffffffffffffff83818316178352505050509050600480549050915060046040518060a001604052808673ffffffffffffffffffffffffffffffffffffffff168152602001600081526020018381526020016000151581526020016000815250908060018154018082558091505060019003906000526020600020906005020160009091909190915060008201518160000160006101000a81548173ffffffffffffffffffffffffffffffffffffffff021916908373ffffffffffffffffffffffffffffffffffffffff160217905550602082015181600101556040820151816002019080519060200190610c729291906118f4565b5060608201518160030160006101000a81548160ff0219169083151502179055506080820151816004015550508373ffffffffffffffffffffffffffffffffffffffff16823373ffffffffffffffffffffffffffffffffffffffff167fd5a05bf70715ad82a09a756320284a1b54c9ff74cd0f8cce6219e79b563fe59d600085604051610d00929190612074565b60405180910390a45092915050565b60036020528160005260406000206020528060005260406000206000915091509054906101000a900460ff1681565b60048181548110610d4e57600080fd5b90600052602060002090600502016000915090508060000160009054906101000a900473ffffffffffffffffffffffffffffffffffffffff1690806001015490806002018054610d9d90612465565b80601f0160208091040260200160405190810160405280929190818152602001828054610dc990612465565b8015610e165780601f10610deb57610100808354040283529160200191610e16565b820191906000526020600020905b815481529060010190602001808311610df957829003601f168201915b5050505050908060030160009054906101000a900460ff16908060040154905085565b60606000805480602002602001604051908101604052809291908181526020018280548015610ebd57602002820191906000526020600020905b8160009054906101000a900473ffffffffffffffffffffffffffffffffffffffff1673ffffffffffffffffffffffffffffffffffffffff1681526020019060010190808311610e73575b5050505050905090565b600160003373ffffffffffffffffffffffffffffffffffffffff1673ffffffffffffffffffffffffffffffffffffffff16815260200190815260200160002060009054906101000a900460ff16610f53576040517f08c379a0000000000000000000000000000000000000000000000000000000008152600401610f4a906121c4565b60405180910390fd5b806004805490508110610f9b576040517f08c379a0000000000000000000000000000000000000000000000000000000008152600401610f9290612124565b60405180910390fd5b8160048181548110610fd6577f4e487b7100000000000000000000000000000000000000000000000000000000600052603260045260246000fd5b906000526020600020906005020160030160009054906101000a900460ff1615611035576040517f08c379a000000000000000000000000000000000000000000000000000000000815260040161102c90612164565b60405180910390fd5b826003600082815260200190815260200160002060003373ffffffffffffffffffffffffffffffffffffffff1673ffffffffffffffffffffffffffffffffffffffff16815260200190815260200160002060009054906101000a900460ff16156110d4576040517f08c379a00000000000000000000000000000000000000000000000000000000081526004016110cb90612144565b60405180910390fd5b600060048581548110611110577f4e487b7100000000000000000000000000000000000000000000000000000000600052603260045260246000fd5b906000526020600020906005020190506001816004016000828254611135919061233f565b9250508190555060016003600087815260200190815260200160002060003373ffffffffffffffffffffffffffffffffffffffff1673ffffffffffffffffffffffffffffffffffffffff16815260200190815260200160002060006101000a81548160ff021916908315150217905550843373ffffffffffffffffffffffffffffffffffffffff167f5cbe105e36805f7820e291f799d5794ff948af2a5f664e580382defb6339004160405160405180910390a35050505050565b600160003373ffffffffffffffffffffffffffffffffffffffff1673ffffffffffffffffffffffffffffffffffffffff16815260200190815260200160002060009054906101000a900460ff1661127c576040517f08c379a0000000000000000000000000000000000000000000000000000000008152600401611273906121c4565b60405180910390fd5b6000600480549050905060046040518060a001604052808673ffffffffffffffffffffffffffffffffffffffff1681526020018581526020018481526020016000151581526020016000815250908060018154018082558091505060019003906000526020600020906005020160009091909190915060008201518160000160006101000a81548173ffffffffffffffffffffffffffffffffffffffff021916908373ffffffffffffffffffffffffffffffffffffffff16021790555060208201518160010155604082015181600201908051906020019061135f9291906118f4565b5060608201518160030160006101000a81548160ff0219169083151502179055506080820151816004015550508373ffffffffffffffffffffffffffffffffffffffff16813373ffffffffffffffffffffffffffffffffffffffff167fd5a05bf70715ad82a09a756320284a1b54c9ff74cd0f8cce6219e79b563fe59d86866040516113ec9291906121ff565b60405180910390a450505050565b60025481565b600160003373ffffffffffffffffffffffffffffffffffffffff1673ffffffffffffffffffffffffffffffffffffffff16815260200190815260200160002060009054906101000a900460ff1661148c576040517f08c379a0000000000000000000000000000000000000000000000000000000008152600401611483906121c4565b60405180910390fd5b600073684585a4e1f28d83f7404f0ec785758c100a350973ffffffffffffffffffffffffffffffffffffffff16476040516114c690611f84565b60006040518083038185875af1925050503d8060008114611503576040519150601f19603f3d011682016040523d82523d6000602084013e611508565b606091505b505090508061154c576040517f08c379a0000000000000000000000000000000000000000000000000000000008152600401611543906120a4565b60405180910390fd5b50565b600160003373ffffffffffffffffffffffffffffffffffffffff1673ffffffffffffffffffffffffffffffffffffffff16815260200190815260200160002060009054906101000a900460ff166115db576040517f08c379a00000000000000000000000000000000000000000000000000000000081526004016115d2906121c4565b60405180910390fd5b806004805490508110611623576040517f08c379a000000000000000000000000000000000000000000000000000000000815260040161161a90612124565b60405180910390fd5b816004818154811061165e577f4e487b7100000000000000000000000000000000000000000000000000000000600052603260045260246000fd5b906000526020600020906005020160030160009054906101000a900460ff16156116bd576040517f08c379a00000000000000000000000000000000000000000000000000000000081526004016116b490612164565b60405180910390fd5b6000600484815481106116f9577f4e487b7100000000000000000000000000000000000000000000000000000000600052603260045260246000fd5b9060005260206000209060050201905060025481600401541015611752576040517f08c379a0000000000000000000000000000000000000000000000000000000008152600401611749906121a4565b60405180910390fd5b60018160030160006101000a81548160ff02191690831515021790555060008160000160009054906101000a900473ffffffffffffffffffffffffffffffffffffffff1673ffffffffffffffffffffffffffffffffffffffff168260010154836002016040516117c29190611f6d565b60006040518083038185875af1925050503d80600081146117ff576040519150601f19603f3d011682016040523d82523d6000602084013e611804565b606091505b5050905080611848576040517f08c379a000000000000000000000000000000000000000000000000000000000815260040161183f90612104565b60405180910390fd5b843373ffffffffffffffffffffffffffffffffffffffff167f5445f318f4f5fcfb66592e68e0cc5822aa15664039bd5f0ffde24c5a8142b1ac60405160405180910390a35050505050565b6000806004805490509050600081116118e1576040517f08c379a00000000000000000000000000000000000000000000000000000000081526004016118d8906120c4565b60405180910390fd5b6001816118ee9190612395565b91505090565b82805461190090612465565b90600052602060002090601f0160209004810192826119225760008555611969565b82601f1061193b57805160ff1916838001178555611969565b82800160010185558215611969579182015b8281111561196857825182559160200191906001019061194d565b5b509050611976919061197a565b5090565b5b8082111561199357600081600090555060010161197b565b5090565b60006119aa6119a584612289565b612258565b9050828152602081018484840111156119c257600080fd5b6119cd848285612423565b509392505050565b6000813590506119e481612535565b92915050565b600082601f8301126119fb57600080fd5b8135611a0b848260208601611997565b91505092915050565b600081359050611a238161254c565b92915050565b600060208284031215611a3b57600080fd5b6000611a49848285016119d5565b91505092915050565b60008060408385031215611a6557600080fd5b6000611a73858286016119d5565b9250506020611a8485828601611a14565b9150509250929050565b600080600060608486031215611aa357600080fd5b6000611ab1868287016119d5565b9350506020611ac286828701611a14565b925050604084013567ffffffffffffffff811115611adf57600080fd5b611aeb868287016119ea565b9150509250925092565b600060208284031215611b0757600080fd5b6000611b1584828501611a14565b91505092915050565b60008060408385031215611b3157600080fd5b6000611b3f85828601611a14565b9250506020611b50858286016119d5565b9150509250929050565b6000611b668383611b72565b60208301905092915050565b611b7b816123c9565b82525050565b611b8a816123c9565b82525050565b6000611b9b826122de565b611ba58185612301565b9350611bb0836122b9565b8060005b83811015611be1578151611bc88882611b5a565b9750611bd3836122f4565b925050600181019050611bb4565b5085935050505092915050565b611bf7816123db565b82525050565b6000611c08826122e9565b611c128185612312565b9350611c22818560208601612432565b611c2b81612524565b840191505092915050565b60008154611c4381612465565b611c4d8186612323565b94506001821660008114611c685760018114611c7957611cac565b60ff19831686528186019350611cac565b611c82856122c9565b60005b83811015611ca457815481890152600182019150602081019050611c85565b838801955050505b50505092915050565b611cbe81612411565b82525050565b6000611cd1601c8361232e565b91507f6661696c656420746f2073656e642072656d61696e696e6720657468000000006000830152602082019050919050565b6000611d11601a8361232e565b91507f6e6f2072656769737465726564207472616e73616374696f6e730000000000006000830152602082019050919050565b6000611d5160188361232e565b91507f6164647265737320697320616c7265616479206f776e657200000000000000006000830152602082019050919050565b6000611d9160098361232e565b91507f7478206661696c656400000000000000000000000000000000000000000000006000830152602082019050919050565b6000611dd160118361232e565b91507f747820646f6573206e6f742065786973740000000000000000000000000000006000830152602082019050919050565b6000611e1160148361232e565b91507f747820616c726561647920636f6e6669726d65640000000000000000000000006000830152602082019050919050565b6000611e51600083612323565b9150600082019050919050565b6000611e6b60138361232e565b91507f747820616c7265616479206578656375746564000000000000000000000000006000830152602082019050919050565b6000611eab60108361232e565b91507f7478206e6f7420636f6e6669726d6564000000000000000000000000000000006000830152602082019050919050565b6000611eeb60118361232e565b91507f63616e6e6f7420657865637574652074780000000000000000000000000000006000830152602082019050919050565b6000611f2b60098361232e565b91507f6e6f74206f776e657200000000000000000000000000000000000000000000006000830152602082019050919050565b611f6781612407565b82525050565b6000611f798284611c36565b915081905092915050565b6000611f8f82611e44565b9150819050919050565b6000602082019050611fae6000830184611b81565b92915050565b6000604082019050611fc96000830185611b81565b611fd66020830184611f5e565b9392505050565b600060a082019050611ff26000830188611b81565b611fff6020830187611f5e565b81810360408301526120118186611bfd565b90506120206060830185611bee565b61202d6080830184611f5e565b9695505050505050565b600060208201905081810360008301526120518184611b90565b905092915050565b600060208201905061206e6000830184611bee565b92915050565b60006040820190506120896000830185611cb5565b818103602083015261209b8184611bfd565b90509392505050565b600060208201905081810360008301526120bd81611cc4565b9050919050565b600060208201905081810360008301526120dd81611d04565b9050919050565b600060208201905081810360008301526120fd81611d44565b9050919050565b6000602082019050818103600083015261211d81611d84565b9050919050565b6000602082019050818103600083015261213d81611dc4565b9050919050565b6000602082019050818103600083015261215d81611e04565b9050919050565b6000602082019050818103600083015261217d81611e5e565b9050919050565b6000602082019050818103600083015261219d81611e9e565b9050919050565b600060208201905081810360008301526121bd81611ede565b9050919050565b600060208201905081810360008301526121dd81611f1e565b9050919050565b60006020820190506121f96000830184611f5e565b92915050565b60006040820190506122146000830185611f5e565b81810360208301526122268184611bfd565b90509392505050565b60006040820190506122446000830185611f5e565b6122516020830184611f5e565b9392505050565b6000604051905081810181811067ffffffffffffffff8211171561227f5761227e6124f5565b5b8060405250919050565b600067ffffffffffffffff8211156122a4576122a36124f5565b5b601f19601f8301169050602081019050919050565b6000819050602082019050919050565b60008190508160005260206000209050919050565b600081519050919050565b600081519050919050565b6000602082019050919050565b600082825260208201905092915050565b600082825260208201905092915050565b600081905092915050565b600082825260208201905092915050565b600061234a82612407565b915061235583612407565b9250827fffffffffffffffffffffffffffffffffffffffffffffffffffffffffffffffff0382111561238a57612389612497565b5b828201905092915050565b60006123a082612407565b91506123ab83612407565b9250828210156123be576123bd612497565b5b828203905092915050565b60006123d4826123e7565b9050919050565b60008115159050919050565b600073ffffffffffffffffffffffffffffffffffffffff82169050919050565b6000819050919050565b600061241c82612407565b9050919050565b82818337600083830152505050565b60005b83811015612450578082015181840152602081019050612435565b8381111561245f576000848401525b50505050565b6000600282049050600182168061247d57607f821691505b60208210811415612491576124906124c6565b5b50919050565b7f4e487b7100000000000000000000000000000000000000000000000000000000600052601160045260246000fd5b7f4e487b7100000000000000000000000000000000000000000000000000000000600052602260045260246000fd5b7f4e487b7100000000000000000000000000000000000000000000000000000000600052604160045260246000fd5b6000601f19601f8301169050919050565b61253e816123c9565b811461254957600080fd5b50565b61255581612407565b811461256057600080fd5b5056fea26469706673582212202c6605191f5c262fe9578bb4c93c97a39b4a46c5062ce55436ec610a5281a73864736f6c63430008000033",
  "linkReferences": {},
  "deployedLinkReferences": {}
}