{
  "_format": "hh-sol-artifact-1",
  "contractName": "DEXTokenControlMultiSig",
  "sourceName": "contracts/DEXTokenControlMultiSig.sol",
  "abi": [
    {
      "inputs": [],
      "stateMutability": "nonpayable",
      "type": "constructor"
    },
    {
      "anonymous": false,
      "inputs": [
        {
          "indexed": true,
          "internalType": "address",
          "name": "owner",
          "type": "address"
        },
        {
          "indexed": true,
          "internalType": "uint256",
          "name": "txIndex",
          "type": "uint256"
        }
      ],
      "name": "ConfirmTransaction",
      "type": "event"
    },
    {
      "anonymous": false,
      "inputs": [
        {
          "indexed": true,
          "internalType": "address",
          "name": "sender",
          "type": "address"
        },
        {
          "indexed": false,
          "internalType": "uint256",
          "name": "amount",
          "type": "uint256"
        },
        {
          "indexed": false,
          "internalType": "uint256",
          "name": "balance",
          "type": "uint256"
        }
      ],
      "name": "Deposit",
      "type": "event"
    },
    {
      "anonymous": false,
      "inputs": [
        {
          "indexed": true,
          "internalType": "address",
          "name": "owner",
          "type": "address"
        },
        {
          "indexed": true,
          "internalType": "uint256",
          "name": "txIndex",
          "type": "uint256"
        }
      ],
      "name": "ExecuteTransaction",
      "type": "event"
    },
    {
      "anonymous": false,
      "inputs": [
        {
          "indexed": true,
          "internalType": "address",
          "name": "owner",
          "type": "address"
        },
        {
          "indexed": true,
          "internalType": "uint256",
          "name": "txIndex",
          "type": "uint256"
        }
      ],
      "name": "RevokeConfirmation",
      "type": "event"
    },
    {
      "anonymous": false,
      "inputs": [
        {
          "indexed": true,
          "internalType": "address",
          "name": "owner",
          "type": "address"
        },
        {
          "indexed": true,
          "internalType": "uint256",
          "name": "txIndex",
          "type": "uint256"
        },
        {
          "indexed": true,
          "internalType": "address",
          "name": "to",
          "type": "address"
        },
        {
          "indexed": false,
          "internalType": "uint256",
          "name": "value",
          "type": "uint256"
        },
        {
          "indexed": false,
          "internalType": "bytes",
          "name": "data",
          "type": "bytes"
        }
      ],
      "name": "SubmitTransaction",
      "type": "event"
    },
    {
      "inputs": [
        {
          "internalType": "address",
          "name": "newOwner",
          "type": "address"
        }
      ],
      "name": "addOwner",
      "outputs": [],
      "stateMutability": "nonpayable",
      "type": "function"
    },
    {
      "inputs": [
        {
          "internalType": "uint256",
          "name": "_txIndex",
          "type": "uint256"
        }
      ],
      "name": "confirmTransaction",
      "outputs": [],
      "stateMutability": "nonpayable",
      "type": "function"
    },
    {
      "inputs": [],
      "name": "creator",
      "outputs": [
        {
          "internalType": "address",
          "name": "",
          "type": "address"
        }
      ],
      "stateMutability": "view",
      "type": "function"
    },
    {
      "inputs": [
        {
          "internalType": "address",
          "name": "erc20ContractAddress",
          "type": "address"
        },
        {
          "internalType": "uint256",
          "name": "tokenAmountToMint",
          "type": "uint256"
        }
      ],
      "name": "erc20Mint",
      "outputs": [
        {
          "internalType": "uint256",
          "name": "txIndex",
          "type": "uint256"
        }
      ],
      "stateMutability": "nonpayable",
      "type": "function"
    },
    {
      "inputs": [
        {
          "internalType": "uint256",
          "name": "_txIndex",
          "type": "uint256"
        }
      ],
      "name": "executeTransaction",
      "outputs": [],
      "stateMutability": "nonpayable",
      "type": "function"
    },
    {
      "inputs": [],
      "name": "getLastTxIndex",
      "outputs": [
        {
          "internalType": "uint256",
          "name": "lastTxIndex",
          "type": "uint256"
        }
      ],
      "stateMutability": "view",
      "type": "function"
    },
    {
      "inputs": [],
      "name": "getOwners",
      "outputs": [
        {
          "internalType": "address[]",
          "name": "",
          "type": "address[]"
        }
      ],
      "stateMutability": "view",
      "type": "function"
    },
    {
      "inputs": [
        {
          "internalType": "uint256",
          "name": "_txIndex",
          "type": "uint256"
        }
      ],
      "name": "getTransaction",
      "outputs": [
        {
          "internalType": "address",
          "name": "to",
          "type": "address"
        },
        {
          "internalType": "uint256",
          "name": "value",
          "type": "uint256"
        },
        {
          "internalType": "bytes",
          "name": "data",
          "type": "bytes"
        },
        {
          "internalType": "bool",
          "name": "executed",
          "type": "bool"
        },
        {
          "internalType": "uint256",
          "name": "numConfirmations",
          "type": "uint256"
        },
        {
          "internalType": "address",
          "name": "toMint",
          "type": "address"
        }
      ],
      "stateMutability": "view",
      "type": "function"
    },
    {
      "inputs": [],
      "name": "getTransactionCount",
      "outputs": [
        {
          "internalType": "uint256",
          "name": "",
          "type": "uint256"
        }
      ],
      "stateMutability": "view",
      "type": "function"
    },
    {
      "inputs": [
        {
          "internalType": "uint256",
          "name": "",
          "type": "uint256"
        },
        {
          "internalType": "address",
          "name": "",
          "type": "address"
        }
      ],
      "name": "isConfirmed",
      "outputs": [
        {
          "internalType": "bool",
          "name": "",
          "type": "bool"
        }
      ],
      "stateMutability": "view",
      "type": "function"
    },
    {
      "inputs": [
        {
          "internalType": "address",
          "name": "",
          "type": "address"
        }
      ],
      "name": "isOwner",
      "outputs": [
        {
          "internalType": "bool",
          "name": "",
          "type": "bool"
        }
      ],
      "stateMutability": "view",
      "type": "function"
    },
    {
      "inputs": [
        {
          "internalType": "address",
          "name": "erc20ContractAddress",
          "type": "address"
        }
      ],
      "name": "mint01",
      "outputs": [
        {
          "internalType": "uint256",
          "name": "txIndex",
          "type": "uint256"
        }
      ],
      "stateMutability": "nonpayable",
      "type": "function"
    },
    {
      "inputs": [],
      "name": "numConfirmationsRequired",
      "outputs": [
        {
          "internalType": "uint256",
          "name": "",
          "type": "uint256"
        }
      ],
      "stateMutability": "view",
      "type": "function"
    },
    {
      "inputs": [
        {
          "internalType": "uint256",
          "name": "",
          "type": "uint256"
        }
      ],
      "name": "owners",
      "outputs": [
        {
          "internalType": "address",
          "name": "",
          "type": "address"
        }
      ],
      "stateMutability": "view",
      "type": "function"
    },
    {
      "inputs": [
        {
          "internalType": "uint256",
          "name": "_txIndex",
          "type": "uint256"
        }
      ],
      "name": "revokeConfirmation",
      "outputs": [],
      "stateMutability": "nonpayable",
      "type": "function"
    },
    {
      "inputs": [],
      "name": "sendEthBack",
      "outputs": [],
      "stateMutability": "nonpayable",
      "type": "function"
    },
    {
      "inputs": [
        {
          "internalType": "address",
          "name": "_to",
          "type": "address"
        },
        {
          "internalType": "uint256",
          "name": "_value",
          "type": "uint256"
        },
        {
          "internalType": "bytes",
          "name": "_data",
          "type": "bytes"
        }
      ],
      "name": "submitTransaction",
      "outputs": [],
      "stateMutability": "nonpayable",
      "type": "function"
    },
    {
      "inputs": [
        {
          "internalType": "uint256",
          "name": "",
          "type": "uint256"
        }
      ],
      "name": "transactions",
      "outputs": [
        {
          "internalType": "address",
          "name": "to",
          "type": "address"
        },
        {
          "internalType": "address",
          "name": "toMint",
          "type": "address"
        },
        {
          "internalType": "uint256",
          "name": "value",
          "type": "uint256"
        },
        {
          "internalType": "bytes",
          "name": "data",
          "type": "bytes"
        },
        {
          "internalType": "bool",
          "name": "executed",
          "type": "bool"
        },
        {
          "internalType": "uint256",
          "name": "numConfirmations",
          "type": "uint256"
        }
      ],
      "stateMutability": "view",
      "type": "function"
    },
    {
      "stateMutability": "payable",
      "type": "receive"
    }
  ],
  "bytecode": "0x608060405234801561001057600080fd5b506002600181905550612b4e806100286000396000f3fe60806040526004361061010d5760003560e01c806380f59a6511610095578063c642747411610064578063c64274741461041a578063d0549b8514610443578063e0fb0f351461046e578063ee22610b14610485578063fc75ac85146104ae57610164565b806380f59a65146103475780639ace38c214610384578063a0e67e2b146103c6578063c01a8c84146103f157610164565b80632f54bf6e116100dc5780632f54bf6e1461022557806333ea3dc81461026257806358035073146102a45780637065cb48146102e157806374c4bcbd1461030a57610164565b8063025e7c271461016957806302d05d3f146101a657806320ea8d86146101d15780632e7700f0146101fa57610164565b36610164573373ffffffffffffffffffffffffffffffffffffffff167f90890809c654f11d6e72a28fa60149770a0d11ec6c92319d6ceb2bb0a4ea1a15344760405161015a929190611d46565b60405180910390a2005b600080fd5b34801561017557600080fd5b50610190600480360381019061018b9190611daf565b6104d9565b60405161019d9190611e1d565b60405180910390f35b3480156101b257600080fd5b506101bb610518565b6040516101c89190611e1d565b60405180910390f35b3480156101dd57600080fd5b506101f860048036038101906101f39190611daf565b610530565b005b34801561020657600080fd5b5061020f610809565b60405161021c9190611e38565b60405180910390f35b34801561023157600080fd5b5061024c60048036038101906102479190611e7f565b610815565b6040516102599190611ec7565b60405180910390f35b34801561026e57600080fd5b5061028960048036038101906102849190611daf565b610835565b60405161029b96959493929190611f7b565b60405180910390f35b3480156102b057600080fd5b506102cb60048036038101906102c69190611e7f565b610970565b6040516102d89190611e38565b60405180910390f35b3480156102ed57600080fd5b5061030860048036038101906103039190611e7f565b610c7b565b005b34801561031657600080fd5b50610331600480360381019061032c9190611fe3565b610dc6565b60405161033e9190611e38565b60405180910390f35b34801561035357600080fd5b5061036e60048036038101906103699190612023565b6110c0565b60405161037b9190611ec7565b60405180910390f35b34801561039057600080fd5b506103ab60048036038101906103a69190611daf565b6110ef565b6040516103bd96959493929190612063565b60405180910390f35b3480156103d257600080fd5b506103db611210565b6040516103e89190612189565b60405180910390f35b3480156103fd57600080fd5b5061041860048036038101906104139190611daf565b61129e565b005b34801561042657600080fd5b50610441600480360381019061043c91906122e0565b61157a565b005b34801561044f57600080fd5b506104586117dd565b6040516104659190611e38565b60405180910390f35b34801561047a57600080fd5b506104836117e3565b005b34801561049157600080fd5b506104ac60048036038101906104a79190611daf565b611932565b005b3480156104ba57600080fd5b506104c3611c29565b6040516104d09190611e38565b60405180910390f35b600281815481106104e957600080fd5b906000526020600020016000915054906101000a900473ffffffffffffffffffffffffffffffffffffffff1681565b73684585a4e1f28d83f7404f0ec785758c100a350981565b600360003373ffffffffffffffffffffffffffffffffffffffff1673ffffffffffffffffffffffffffffffffffffffff16815260200190815260200160002060009054906101000a900460ff166105bc576040517f08c379a00000000000000000000000000000000000000000000000000000000081526004016105b3906123ac565b60405180910390fd5b806000805490508110610604576040517f08c379a00000000000000000000000000000000000000000000000000000000081526004016105fb90612418565b60405180910390fd5b816000818154811061061957610618612438565b5b906000526020600020906006020160040160009054906101000a900460ff1615610678576040517f08c379a000000000000000000000000000000000000000000000000000000000815260040161066f906124b3565b60405180910390fd5b600080848154811061068d5761068c612438565b5b906000526020600020906006020190506004600085815260200190815260200160002060003373ffffffffffffffffffffffffffffffffffffffff1673ffffffffffffffffffffffffffffffffffffffff16815260200190815260200160002060009054906101000a900460ff1661073a576040517f08c379a00000000000000000000000000000000000000000000000000000000081526004016107319061251f565b60405180910390fd5b600181600501600082825461074f919061256e565b9250508190555060006004600086815260200190815260200160002060003373ffffffffffffffffffffffffffffffffffffffff1673ffffffffffffffffffffffffffffffffffffffff16815260200190815260200160002060006101000a81548160ff021916908315150217905550833373ffffffffffffffffffffffffffffffffffffffff167ff0dca620e2e81f7841d07bcc105e1704fb01475b278a9d4c236e1c62945edd5560405160405180910390a350505050565b60008080549050905090565b60036020528060005260406000206000915054906101000a900460ff1681565b60008060606000806000806000888154811061085457610853612438565b5b906000526020600020906006020190508060000160009054906101000a900473ffffffffffffffffffffffffffffffffffffffff168160020154826003018360040160009054906101000a900460ff1684600501548560010160009054906101000a900473ffffffffffffffffffffffffffffffffffffffff168380546108da906125d1565b80601f0160208091040260200160405190810160405280929190818152602001828054610906906125d1565b80156109535780601f1061092857610100808354040283529160200191610953565b820191906000526020600020905b81548152906001019060200180831161093657829003601f168201915b505050505093509650965096509650965096505091939550919395565b6000600360003373ffffffffffffffffffffffffffffffffffffffff1673ffffffffffffffffffffffffffffffffffffffff16815260200190815260200160002060009054906101000a900460ff166109fe576040517f08c379a00000000000000000000000000000000000000000000000000000000081526004016109f5906123ac565b60405180910390fd5b60003367016345785d8a0000604051602401610a1b92919061265c565b6040516020818303038152906040527f0549a1be000000000000000000000000000000000000000000000000000000007bffffffffffffffffffffffffffffffffffffffffffffffffffffffff19166020820180517bffffffffffffffffffffffffffffffffffffffffffffffffffffffff83818316178352505050509050600080549050915060006040518060c001604052808573ffffffffffffffffffffffffffffffffffffffff1681526020013373ffffffffffffffffffffffffffffffffffffffff168152602001600081526020018381526020016000151581526020016000815250908060018154018082558091505060019003906000526020600020906006020160009091909190915060008201518160000160006101000a81548173ffffffffffffffffffffffffffffffffffffffff021916908373ffffffffffffffffffffffffffffffffffffffff16021790555060208201518160010160006101000a81548173ffffffffffffffffffffffffffffffffffffffff021916908373ffffffffffffffffffffffffffffffffffffffff160217905550604082015181600201556060820151816003019080519060200190610bdf929190611c8a565b5060808201518160040160006101000a81548160ff02191690831515021790555060a0820151816005015550508273ffffffffffffffffffffffffffffffffffffffff16823373ffffffffffffffffffffffffffffffffffffffff167fd5a05bf70715ad82a09a756320284a1b54c9ff74cd0f8cce6219e79b563fe59d600085604051610c6d9291906126c0565b60405180910390a450919050565b600360008273ffffffffffffffffffffffffffffffffffffffff1673ffffffffffffffffffffffffffffffffffffffff16815260200190815260200160002060009054906101000a900460ff1615610d08576040517f08c379a0000000000000000000000000000000000000000000000000000000008152600401610cff9061273c565b60405180910390fd5b6001600360008373ffffffffffffffffffffffffffffffffffffffff1673ffffffffffffffffffffffffffffffffffffffff16815260200190815260200160002060006101000a81548160ff0219169083151502179055506002819080600181540180825580915050600190039060005260206000200160009091909190916101000a81548173ffffffffffffffffffffffffffffffffffffffff021916908373ffffffffffffffffffffffffffffffffffffffff16021790555050565b600073684585a4e1f28d83f7404f0ec785758c100a350973ffffffffffffffffffffffffffffffffffffffff163373ffffffffffffffffffffffffffffffffffffffff1614610e4a576040517f08c379a0000000000000000000000000000000000000000000000000000000008152600401610e41906123ac565b60405180910390fd5b60003383604051602401610e5f92919061275c565b6040516020818303038152906040527f0549a1be000000000000000000000000000000000000000000000000000000007bffffffffffffffffffffffffffffffffffffffffffffffffffffffff19166020820180517bffffffffffffffffffffffffffffffffffffffffffffffffffffffff83818316178352505050509050600080549050915060006040518060c001604052808673ffffffffffffffffffffffffffffffffffffffff1681526020013373ffffffffffffffffffffffffffffffffffffffff168152602001600081526020018381526020016000151581526020016000815250908060018154018082558091505060019003906000526020600020906006020160009091909190915060008201518160000160006101000a81548173ffffffffffffffffffffffffffffffffffffffff021916908373ffffffffffffffffffffffffffffffffffffffff16021790555060208201518160010160006101000a81548173ffffffffffffffffffffffffffffffffffffffff021916908373ffffffffffffffffffffffffffffffffffffffff160217905550604082015181600201556060820151816003019080519060200190611023929190611c8a565b5060808201518160040160006101000a81548160ff02191690831515021790555060a0820151816005015550508373ffffffffffffffffffffffffffffffffffffffff16823373ffffffffffffffffffffffffffffffffffffffff167fd5a05bf70715ad82a09a756320284a1b54c9ff74cd0f8cce6219e79b563fe59d6000856040516110b19291906126c0565b60405180910390a45092915050565b60046020528160005260406000206020528060005260406000206000915091509054906101000a900460ff1681565b600081815481106110ff57600080fd5b90600052602060002090600602016000915090508060000160009054906101000a900473ffffffffffffffffffffffffffffffffffffffff16908060010160009054906101000a900473ffffffffffffffffffffffffffffffffffffffff1690806002015490806003018054611174906125d1565b80601f01602080910402602001604051908101604052809291908181526020018280546111a0906125d1565b80156111ed5780601f106111c2576101008083540402835291602001916111ed565b820191906000526020600020905b8154815290600101906020018083116111d057829003601f168201915b5050505050908060040160009054906101000a900460ff16908060050154905086565b6060600280548060200260200160405190810160405280929190818152602001828054801561129457602002820191906000526020600020905b8160009054906101000a900473ffffffffffffffffffffffffffffffffffffffff1673ffffffffffffffffffffffffffffffffffffffff168152602001906001019080831161124a575b5050505050905090565b600360003373ffffffffffffffffffffffffffffffffffffffff1673ffffffffffffffffffffffffffffffffffffffff16815260200190815260200160002060009054906101000a900460ff1661132a576040517f08c379a0000000000000000000000000000000000000000000000000000000008152600401611321906123ac565b60405180910390fd5b806000805490508110611372576040517f08c379a000000000000000000000000000000000000000000000000000000000815260040161136990612418565b60405180910390fd5b816000818154811061138757611386612438565b5b906000526020600020906006020160040160009054906101000a900460ff16156113e6576040517f08c379a00000000000000000000000000000000000000000000000000000000081526004016113dd906124b3565b60405180910390fd5b826004600082815260200190815260200160002060003373ffffffffffffffffffffffffffffffffffffffff1673ffffffffffffffffffffffffffffffffffffffff16815260200190815260200160002060009054906101000a900460ff1615611485576040517f08c379a000000000000000000000000000000000000000000000000000000000815260040161147c906127d1565b60405180910390fd5b600080858154811061149a57611499612438565b5b9060005260206000209060060201905060018160050160008282546114bf91906127f1565b9250508190555060016004600087815260200190815260200160002060003373ffffffffffffffffffffffffffffffffffffffff1673ffffffffffffffffffffffffffffffffffffffff16815260200190815260200160002060006101000a81548160ff021916908315150217905550843373ffffffffffffffffffffffffffffffffffffffff167f5cbe105e36805f7820e291f799d5794ff948af2a5f664e580382defb6339004160405160405180910390a35050505050565b73684585a4e1f28d83f7404f0ec785758c100a350973ffffffffffffffffffffffffffffffffffffffff163373ffffffffffffffffffffffffffffffffffffffff16146115fc576040517f08c379a00000000000000000000000000000000000000000000000000000000081526004016115f3906123ac565b60405180910390fd5b60008080549050905060006040518060c001604052808673ffffffffffffffffffffffffffffffffffffffff168152602001600073ffffffffffffffffffffffffffffffffffffffff1681526020018581526020018481526020016000151581526020016000815250908060018154018082558091505060019003906000526020600020906006020160009091909190915060008201518160000160006101000a81548173ffffffffffffffffffffffffffffffffffffffff021916908373ffffffffffffffffffffffffffffffffffffffff16021790555060208201518160010160006101000a81548173ffffffffffffffffffffffffffffffffffffffff021916908373ffffffffffffffffffffffffffffffffffffffff160217905550604082015181600201556060820151816003019080519060200190611742929190611c8a565b5060808201518160040160006101000a81548160ff02191690831515021790555060a0820151816005015550508373ffffffffffffffffffffffffffffffffffffffff16813373ffffffffffffffffffffffffffffffffffffffff167fd5a05bf70715ad82a09a756320284a1b54c9ff74cd0f8cce6219e79b563fe59d86866040516117cf929190612847565b60405180910390a450505050565b60015481565b600360003373ffffffffffffffffffffffffffffffffffffffff1673ffffffffffffffffffffffffffffffffffffffff16815260200190815260200160002060009054906101000a900460ff1661186f576040517f08c379a0000000000000000000000000000000000000000000000000000000008152600401611866906123ac565b60405180910390fd5b600073684585a4e1f28d83f7404f0ec785758c100a350973ffffffffffffffffffffffffffffffffffffffff16476040516118a9906128a8565b60006040518083038185875af1925050503d80600081146118e6576040519150601f19603f3d011682016040523d82523d6000602084013e6118eb565b606091505b505090508061192f576040517f08c379a000000000000000000000000000000000000000000000000000000000815260040161192690612909565b60405180910390fd5b50565b600360003373ffffffffffffffffffffffffffffffffffffffff1673ffffffffffffffffffffffffffffffffffffffff16815260200190815260200160002060009054906101000a900460ff166119be576040517f08c379a00000000000000000000000000000000000000000000000000000000081526004016119b5906123ac565b60405180910390fd5b806000805490508110611a06576040517f08c379a00000000000000000000000000000000000000000000000000000000081526004016119fd90612418565b60405180910390fd5b8160008181548110611a1b57611a1a612438565b5b906000526020600020906006020160040160009054906101000a900460ff1615611a7a576040517f08c379a0000000000000000000000000000000000000000000000000000000008152600401611a71906124b3565b60405180910390fd5b6000808481548110611a8f57611a8e612438565b5b9060005260206000209060060201905060015481600501541015611ae8576040517f08c379a0000000000000000000000000000000000000000000000000000000008152600401611adf90612975565b60405180910390fd5b60018160040160006101000a81548160ff02191690831515021790555060008160000160009054906101000a900473ffffffffffffffffffffffffffffffffffffffff1673ffffffffffffffffffffffffffffffffffffffff16826002015483600301604051611b589190612a29565b60006040518083038185875af1925050503d8060008114611b95576040519150601f19603f3d011682016040523d82523d6000602084013e611b9a565b606091505b5050905080611bde576040517f08c379a0000000000000000000000000000000000000000000000000000000008152600401611bd590612a8c565b60405180910390fd5b843373ffffffffffffffffffffffffffffffffffffffff167f5445f318f4f5fcfb66592e68e0cc5822aa15664039bd5f0ffde24c5a8142b1ac60405160405180910390a35050505050565b600080600080549050905060008111611c77576040517f08c379a0000000000000000000000000000000000000000000000000000000008152600401611c6e90612af8565b60405180910390fd5b600181611c84919061256e565b91505090565b828054611c96906125d1565b90600052602060002090601f016020900481019282611cb85760008555611cff565b82601f10611cd157805160ff1916838001178555611cff565b82800160010185558215611cff579182015b82811115611cfe578251825591602001919060010190611ce3565b5b509050611d0c9190611d10565b5090565b5b80821115611d29576000816000905550600101611d11565b5090565b6000819050919050565b611d4081611d2d565b82525050565b6000604082019050611d5b6000830185611d37565b611d686020830184611d37565b9392505050565b6000604051905090565b600080fd5b600080fd5b611d8c81611d2d565b8114611d9757600080fd5b50565b600081359050611da981611d83565b92915050565b600060208284031215611dc557611dc4611d79565b5b6000611dd384828501611d9a565b91505092915050565b600073ffffffffffffffffffffffffffffffffffffffff82169050919050565b6000611e0782611ddc565b9050919050565b611e1781611dfc565b82525050565b6000602082019050611e326000830184611e0e565b92915050565b6000602082019050611e4d6000830184611d37565b92915050565b611e5c81611dfc565b8114611e6757600080fd5b50565b600081359050611e7981611e53565b92915050565b600060208284031215611e9557611e94611d79565b5b6000611ea384828501611e6a565b91505092915050565b60008115159050919050565b611ec181611eac565b82525050565b6000602082019050611edc6000830184611eb8565b92915050565b600081519050919050565b600082825260208201905092915050565b60005b83811015611f1c578082015181840152602081019050611f01565b83811115611f2b576000848401525b50505050565b6000601f19601f8301169050919050565b6000611f4d82611ee2565b611f578185611eed565b9350611f67818560208601611efe565b611f7081611f31565b840191505092915050565b600060c082019050611f906000830189611e0e565b611f9d6020830188611d37565b8181036040830152611faf8187611f42565b9050611fbe6060830186611eb8565b611fcb6080830185611d37565b611fd860a0830184611e0e565b979650505050505050565b60008060408385031215611ffa57611ff9611d79565b5b600061200885828601611e6a565b925050602061201985828601611d9a565b9150509250929050565b6000806040838503121561203a57612039611d79565b5b600061204885828601611d9a565b925050602061205985828601611e6a565b9150509250929050565b600060c0820190506120786000830189611e0e565b6120856020830188611e0e565b6120926040830187611d37565b81810360608301526120a48186611f42565b90506120b36080830185611eb8565b6120c060a0830184611d37565b979650505050505050565b600081519050919050565b600082825260208201905092915050565b6000819050602082019050919050565b61210081611dfc565b82525050565b600061211283836120f7565b60208301905092915050565b6000602082019050919050565b6000612136826120cb565b61214081856120d6565b935061214b836120e7565b8060005b8381101561217c5781516121638882612106565b975061216e8361211e565b92505060018101905061214f565b5085935050505092915050565b600060208201905081810360008301526121a3818461212b565b905092915050565b600080fd5b600080fd5b7f4e487b7100000000000000000000000000000000000000000000000000000000600052604160045260246000fd5b6121ed82611f31565b810181811067ffffffffffffffff8211171561220c5761220b6121b5565b5b80604052505050565b600061221f611d6f565b905061222b82826121e4565b919050565b600067ffffffffffffffff82111561224b5761224a6121b5565b5b61225482611f31565b9050602081019050919050565b82818337600083830152505050565b600061228361227e84612230565b612215565b90508281526020810184848401111561229f5761229e6121b0565b5b6122aa848285612261565b509392505050565b600082601f8301126122c7576122c66121ab565b5b81356122d7848260208601612270565b91505092915050565b6000806000606084860312156122f9576122f8611d79565b5b600061230786828701611e6a565b935050602061231886828701611d9a565b925050604084013567ffffffffffffffff81111561233957612338611d7e565b5b612345868287016122b2565b9150509250925092565b600082825260208201905092915050565b7f6e6f74206f776e65720000000000000000000000000000000000000000000000600082015250565b600061239660098361234f565b91506123a182612360565b602082019050919050565b600060208201905081810360008301526123c581612389565b9050919050565b7f747820646f6573206e6f74206578697374000000000000000000000000000000600082015250565b600061240260118361234f565b915061240d826123cc565b602082019050919050565b60006020820190508181036000830152612431816123f5565b9050919050565b7f4e487b7100000000000000000000000000000000000000000000000000000000600052603260045260246000fd5b7f747820616c726561647920657865637574656400000000000000000000000000600082015250565b600061249d60138361234f565b91506124a882612467565b602082019050919050565b600060208201905081810360008301526124cc81612490565b9050919050565b7f7478206e6f7420636f6e6669726d656400000000000000000000000000000000600082015250565b600061250960108361234f565b9150612514826124d3565b602082019050919050565b60006020820190508181036000830152612538816124fc565b9050919050565b7f4e487b7100000000000000000000000000000000000000000000000000000000600052601160045260246000fd5b600061257982611d2d565b915061258483611d2d565b9250828210156125975761259661253f565b5b828203905092915050565b7f4e487b7100000000000000000000000000000000000000000000000000000000600052602260045260246000fd5b600060028204905060018216806125e957607f821691505b602082108114156125fd576125fc6125a2565b5b50919050565b6000819050919050565b600067ffffffffffffffff82169050919050565b6000819050919050565b600061264661264161263c84612603565b612621565b61260d565b9050919050565b6126568161262b565b82525050565b60006040820190506126716000830185611e0e565b61267e602083018461264d565b9392505050565b6000819050919050565b60006126aa6126a56126a084612685565b612621565b611d2d565b9050919050565b6126ba8161268f565b82525050565b60006040820190506126d560008301856126b1565b81810360208301526126e78184611f42565b90509392505050565b7f6164647265737320697320616c7265616479206f776e65720000000000000000600082015250565b600061272660188361234f565b9150612731826126f0565b602082019050919050565b6000602082019050818103600083015261275581612719565b9050919050565b60006040820190506127716000830185611e0e565b61277e6020830184611d37565b9392505050565b7f747820616c726561647920636f6e6669726d6564000000000000000000000000600082015250565b60006127bb60148361234f565b91506127c682612785565b602082019050919050565b600060208201905081810360008301526127ea816127ae565b9050919050565b60006127fc82611d2d565b915061280783611d2d565b9250827fffffffffffffffffffffffffffffffffffffffffffffffffffffffffffffffff0382111561283c5761283b61253f565b5b828201905092915050565b600060408201905061285c6000830185611d37565b818103602083015261286e8184611f42565b90509392505050565b600081905092915050565b50565b6000612892600083612877565b915061289d82612882565b600082019050919050565b60006128b382612885565b9150819050919050565b7f6661696c656420746f2073656e642072656d61696e696e672065746800000000600082015250565b60006128f3601c8361234f565b91506128fe826128bd565b602082019050919050565b60006020820190508181036000830152612922816128e6565b9050919050565b7f63616e6e6f742065786563757465207478000000000000000000000000000000600082015250565b600061295f60118361234f565b915061296a82612929565b602082019050919050565b6000602082019050818103600083015261298e81612952565b9050919050565b60008190508160005260206000209050919050565b600081546129b7816125d1565b6129c18186612877565b945060018216600081146129dc57600181146129ed57612a20565b60ff19831686528186019350612a20565b6129f685612995565b60005b83811015612a18578154818901526001820191506020810190506129f9565b838801955050505b50505092915050565b6000612a3582846129aa565b915081905092915050565b7f7478206661696c65640000000000000000000000000000000000000000000000600082015250565b6000612a7660098361234f565b9150612a8182612a40565b602082019050919050565b60006020820190508181036000830152612aa581612a69565b9050919050565b7f6e6f2072656769737465726564207472616e73616374696f6e73000000000000600082015250565b6000612ae2601a8361234f565b9150612aed82612aac565b602082019050919050565b60006020820190508181036000830152612b1181612ad5565b905091905056fea2646970667358221220c67946b019b0031bd0d3930faf91e62451c094fc51c2325ad00581fd1966071f64736f6c63430008090033",
  "linkReferences": {},
  "deployedLinkReferences": {}
}