{
  "_format": "hh-sol-artifact-1",
  "contractName": "DEXTokenControlMultiSig",
  "sourceName": "contracts/DEXTokenControlMultiSig.sol",
  "abi": [
    {
      "inputs": [],
      "stateMutability": "nonpayable",
      "type": "constructor"
    },
    {
      "anonymous": false,
      "inputs": [
        {
          "indexed": true,
          "internalType": "address",
          "name": "owner",
          "type": "address"
        },
        {
          "indexed": true,
          "internalType": "uint256",
          "name": "txIndex",
          "type": "uint256"
        }
      ],
      "name": "ConfirmTransaction",
      "type": "event"
    },
    {
      "anonymous": false,
      "inputs": [
        {
          "indexed": true,
          "internalType": "address",
          "name": "sender",
          "type": "address"
        },
        {
          "indexed": false,
          "internalType": "uint256",
          "name": "amount",
          "type": "uint256"
        },
        {
          "indexed": false,
          "internalType": "uint256",
          "name": "balance",
          "type": "uint256"
        }
      ],
      "name": "Deposit",
      "type": "event"
    },
    {
      "anonymous": false,
      "inputs": [
        {
          "indexed": true,
          "internalType": "address",
          "name": "owner",
          "type": "address"
        },
        {
          "indexed": true,
          "internalType": "uint256",
          "name": "txIndex",
          "type": "uint256"
        }
      ],
      "name": "ExecuteTransaction",
      "type": "event"
    },
    {
      "anonymous": false,
      "inputs": [
        {
          "indexed": true,
          "internalType": "address",
          "name": "owner",
          "type": "address"
        },
        {
          "indexed": true,
          "internalType": "uint256",
          "name": "txIndex",
          "type": "uint256"
        }
      ],
      "name": "RevokeConfirmation",
      "type": "event"
    },
    {
      "anonymous": false,
      "inputs": [
        {
          "indexed": true,
          "internalType": "address",
          "name": "owner",
          "type": "address"
        },
        {
          "indexed": true,
          "internalType": "uint256",
          "name": "txIndex",
          "type": "uint256"
        },
        {
          "indexed": true,
          "internalType": "address",
          "name": "to",
          "type": "address"
        },
        {
          "indexed": false,
          "internalType": "uint256",
          "name": "value",
          "type": "uint256"
        },
        {
          "indexed": false,
          "internalType": "bytes",
          "name": "data",
          "type": "bytes"
        }
      ],
      "name": "SubmitTransaction",
      "type": "event"
    },
    {
      "inputs": [
        {
          "internalType": "address",
          "name": "erc20ContractAddress",
          "type": "address"
        }
      ],
      "name": "Mint1",
      "outputs": [
        {
          "internalType": "uint256",
          "name": "txIndex",
          "type": "uint256"
        }
      ],
      "stateMutability": "nonpayable",
      "type": "function"
    },
    {
      "inputs": [
        {
          "internalType": "address",
          "name": "newOwner",
          "type": "address"
        }
      ],
      "name": "addOwner",
      "outputs": [],
      "stateMutability": "nonpayable",
      "type": "function"
    },
    {
      "inputs": [
        {
          "internalType": "uint256",
          "name": "_txIndex",
          "type": "uint256"
        }
      ],
      "name": "confirmTransaction",
      "outputs": [],
      "stateMutability": "nonpayable",
      "type": "function"
    },
    {
      "inputs": [],
      "name": "creator",
      "outputs": [
        {
          "internalType": "address",
          "name": "",
          "type": "address"
        }
      ],
      "stateMutability": "view",
      "type": "function"
    },
    {
      "inputs": [
        {
          "internalType": "address",
          "name": "erc20ContractAddress",
          "type": "address"
        },
        {
          "internalType": "uint256",
          "name": "tokenAmountToMint",
          "type": "uint256"
        }
      ],
      "name": "erc20Mint",
      "outputs": [
        {
          "internalType": "uint256",
          "name": "txIndex",
          "type": "uint256"
        }
      ],
      "stateMutability": "nonpayable",
      "type": "function"
    },
    {
      "inputs": [
        {
          "internalType": "uint256",
          "name": "_txIndex",
          "type": "uint256"
        }
      ],
      "name": "executeTransaction",
      "outputs": [],
      "stateMutability": "nonpayable",
      "type": "function"
    },
    {
      "inputs": [],
      "name": "getLastTxIndex",
      "outputs": [
        {
          "internalType": "uint256",
          "name": "lastTxIndex",
          "type": "uint256"
        }
      ],
      "stateMutability": "view",
      "type": "function"
    },
    {
      "inputs": [],
      "name": "getOwners",
      "outputs": [
        {
          "internalType": "address[]",
          "name": "",
          "type": "address[]"
        }
      ],
      "stateMutability": "view",
      "type": "function"
    },
    {
      "inputs": [
        {
          "internalType": "uint256",
          "name": "_txIndex",
          "type": "uint256"
        }
      ],
      "name": "getTransaction",
      "outputs": [
        {
          "internalType": "address",
          "name": "to",
          "type": "address"
        },
        {
          "internalType": "uint256",
          "name": "value",
          "type": "uint256"
        },
        {
          "internalType": "bytes",
          "name": "data",
          "type": "bytes"
        },
        {
          "internalType": "bool",
          "name": "executed",
          "type": "bool"
        },
        {
          "internalType": "uint256",
          "name": "numConfirmations",
          "type": "uint256"
        },
        {
          "internalType": "address",
          "name": "toMint",
          "type": "address"
        }
      ],
      "stateMutability": "view",
      "type": "function"
    },
    {
      "inputs": [],
      "name": "getTransactionCount",
      "outputs": [
        {
          "internalType": "uint256",
          "name": "",
          "type": "uint256"
        }
      ],
      "stateMutability": "view",
      "type": "function"
    },
    {
      "inputs": [
        {
          "internalType": "uint256",
          "name": "",
          "type": "uint256"
        },
        {
          "internalType": "address",
          "name": "",
          "type": "address"
        }
      ],
      "name": "isConfirmed",
      "outputs": [
        {
          "internalType": "bool",
          "name": "",
          "type": "bool"
        }
      ],
      "stateMutability": "view",
      "type": "function"
    },
    {
      "inputs": [
        {
          "internalType": "address",
          "name": "",
          "type": "address"
        }
      ],
      "name": "isOwner",
      "outputs": [
        {
          "internalType": "bool",
          "name": "",
          "type": "bool"
        }
      ],
      "stateMutability": "view",
      "type": "function"
    },
    {
      "inputs": [],
      "name": "numConfirmationsRequired",
      "outputs": [
        {
          "internalType": "uint256",
          "name": "",
          "type": "uint256"
        }
      ],
      "stateMutability": "view",
      "type": "function"
    },
    {
      "inputs": [
        {
          "internalType": "uint256",
          "name": "",
          "type": "uint256"
        }
      ],
      "name": "owners",
      "outputs": [
        {
          "internalType": "address",
          "name": "",
          "type": "address"
        }
      ],
      "stateMutability": "view",
      "type": "function"
    },
    {
      "inputs": [
        {
          "internalType": "uint256",
          "name": "_txIndex",
          "type": "uint256"
        }
      ],
      "name": "revokeConfirmation",
      "outputs": [],
      "stateMutability": "nonpayable",
      "type": "function"
    },
    {
      "inputs": [],
      "name": "sendEthBack",
      "outputs": [],
      "stateMutability": "nonpayable",
      "type": "function"
    },
    {
      "inputs": [
        {
          "internalType": "address",
          "name": "_to",
          "type": "address"
        },
        {
          "internalType": "uint256",
          "name": "_value",
          "type": "uint256"
        },
        {
          "internalType": "bytes",
          "name": "_data",
          "type": "bytes"
        }
      ],
      "name": "submitTransaction",
      "outputs": [],
      "stateMutability": "nonpayable",
      "type": "function"
    },
    {
      "inputs": [
        {
          "internalType": "uint256",
          "name": "",
          "type": "uint256"
        }
      ],
      "name": "transactions",
      "outputs": [
        {
          "internalType": "address",
          "name": "to",
          "type": "address"
        },
        {
          "internalType": "address",
          "name": "toMint",
          "type": "address"
        },
        {
          "internalType": "uint256",
          "name": "value",
          "type": "uint256"
        },
        {
          "internalType": "bytes",
          "name": "data",
          "type": "bytes"
        },
        {
          "internalType": "bool",
          "name": "executed",
          "type": "bool"
        },
        {
          "internalType": "uint256",
          "name": "numConfirmations",
          "type": "uint256"
        }
      ],
      "stateMutability": "view",
      "type": "function"
    },
    {
      "stateMutability": "payable",
      "type": "receive"
    }
  ],
  "bytecode": "0x608060405273684585a4e1f28d83f7404f0ec785758c100a3509600160006101000a81548173ffffffffffffffffffffffffffffffffffffffff021916908373ffffffffffffffffffffffffffffffffffffffff16021790555034801561006557600080fd5b506002600381905550612b388061007d6000396000f3fe60806040526004361061010d5760003560e01c806390a908d511610095578063c642747411610064578063c64274741461041a578063d0549b8514610443578063e0fb0f351461046e578063ee22610b14610485578063fc75ac85146104ae57610164565b806390a908d5146103475780639ace38c214610384578063a0e67e2b146103c6578063c01a8c84146103f157610164565b80632f54bf6e116100dc5780632f54bf6e1461022557806333ea3dc8146102625780637065cb48146102a457806374c4bcbd146102cd57806380f59a651461030a57610164565b8063025e7c271461016957806302d05d3f146101a657806320ea8d86146101d15780632e7700f0146101fa57610164565b36610164573373ffffffffffffffffffffffffffffffffffffffff167f90890809c654f11d6e72a28fa60149770a0d11ec6c92319d6ceb2bb0a4ea1a15344760405161015a9291906127a8565b60405180910390a2005b600080fd5b34801561017557600080fd5b50610190600480360381019061018b9190611fc0565b6104d9565b60405161019d9190612473565b60405180910390f35b3480156101b257600080fd5b506101bb610518565b6040516101c89190612473565b60405180910390f35b3480156101dd57600080fd5b506101f860048036038101906101f39190611fc0565b61053e565b005b34801561020657600080fd5b5061020f610864565b60405161021c919061275d565b60405180910390f35b34801561023157600080fd5b5061024c60048036038101906102479190611ef4565b610871565b60405161025991906125d2565b60405180910390f35b34801561026e57600080fd5b5061028960048036038101906102849190611fc0565b610891565b60405161029b96959493929190612548565b60405180910390f35b3480156102b057600080fd5b506102cb60048036038101906102c69190611ef4565b6109f2565b005b3480156102d957600080fd5b506102f460048036038101906102ef9190611f1d565b610b3d565b604051610301919061275d565b60405180910390f35b34801561031657600080fd5b50610331600480360381019061032c9190611fe9565b610e45565b60405161033e91906125d2565b60405180910390f35b34801561035357600080fd5b5061036e60048036038101906103699190611ef4565b610e74565b60405161037b919061275d565b60405180910390f35b34801561039057600080fd5b506103ab60048036038101906103a69190611fc0565b61117f565b6040516103bd9695949392919061248e565b60405180910390f35b3480156103d257600080fd5b506103db6112a0565b6040516103e891906125b0565b60405180910390f35b3480156103fd57600080fd5b5061041860048036038101906104139190611fc0565b61132e565b005b34801561042657600080fd5b50610441600480360381019061043c9190611f59565b611657565b005b34801561044f57600080fd5b506104586118c5565b604051610465919061275d565b60405180910390f35b34801561047a57600080fd5b506104836118cb565b005b34801561049157600080fd5b506104ac60048036038101906104a79190611fc0565b611a1a565b005b3480156104ba57600080fd5b506104c3611d5e565b6040516104d0919061275d565b60405180910390f35b600081815481106104e957600080fd5b906000526020600020016000915054906101000a900473ffffffffffffffffffffffffffffffffffffffff1681565b600160009054906101000a900473ffffffffffffffffffffffffffffffffffffffff1681565b600260003373ffffffffffffffffffffffffffffffffffffffff1673ffffffffffffffffffffffffffffffffffffffff16815260200190815260200160002060009054906101000a900460ff166105ca576040517f08c379a00000000000000000000000000000000000000000000000000000000081526004016105c19061273d565b60405180910390fd5b806005805490508110610612576040517f08c379a00000000000000000000000000000000000000000000000000000000081526004016106099061269d565b60405180910390fd5b816005818154811061064d577f4e487b7100000000000000000000000000000000000000000000000000000000600052603260045260246000fd5b906000526020600020906006020160040160009054906101000a900460ff16156106ac576040517f08c379a00000000000000000000000000000000000000000000000000000000081526004016106a3906126dd565b60405180910390fd5b6000600584815481106106e8577f4e487b7100000000000000000000000000000000000000000000000000000000600052603260045260246000fd5b906000526020600020906006020190506004600085815260200190815260200160002060003373ffffffffffffffffffffffffffffffffffffffff1673ffffffffffffffffffffffffffffffffffffffff16815260200190815260200160002060009054906101000a900460ff16610795576040517f08c379a000000000000000000000000000000000000000000000000000000000815260040161078c906126fd565b60405180910390fd5b60018160050160008282546107aa919061290e565b9250508190555060006004600086815260200190815260200160002060003373ffffffffffffffffffffffffffffffffffffffff1673ffffffffffffffffffffffffffffffffffffffff16815260200190815260200160002060006101000a81548160ff021916908315150217905550833373ffffffffffffffffffffffffffffffffffffffff167ff0dca620e2e81f7841d07bcc105e1704fb01475b278a9d4c236e1c62945edd5560405160405180910390a350505050565b6000600580549050905090565b60026020528060005260406000206000915054906101000a900460ff1681565b6000806060600080600080600588815481106108d6577f4e487b7100000000000000000000000000000000000000000000000000000000600052603260045260246000fd5b906000526020600020906006020190508060000160009054906101000a900473ffffffffffffffffffffffffffffffffffffffff168160020154826003018360040160009054906101000a900460ff1684600501548560010160009054906101000a900473ffffffffffffffffffffffffffffffffffffffff1683805461095c90612a04565b80601f016020809104026020016040519081016040528092919081815260200182805461098890612a04565b80156109d55780601f106109aa576101008083540402835291602001916109d5565b820191906000526020600020905b8154815290600101906020018083116109b857829003601f168201915b505050505093509650965096509650965096505091939550919395565b600260008273ffffffffffffffffffffffffffffffffffffffff1673ffffffffffffffffffffffffffffffffffffffff16815260200190815260200160002060009054906101000a900460ff1615610a7f576040517f08c379a0000000000000000000000000000000000000000000000000000000008152600401610a769061265d565b60405180910390fd5b6001600260008373ffffffffffffffffffffffffffffffffffffffff1673ffffffffffffffffffffffffffffffffffffffff16815260200190815260200160002060006101000a81548160ff0219169083151502179055506000819080600181540180825580915050600190039060005260206000200160009091909190916101000a81548173ffffffffffffffffffffffffffffffffffffffff021916908373ffffffffffffffffffffffffffffffffffffffff16021790555050565b6000600160009054906101000a900473ffffffffffffffffffffffffffffffffffffffff1673ffffffffffffffffffffffffffffffffffffffff163373ffffffffffffffffffffffffffffffffffffffff1614610bcf576040517f08c379a0000000000000000000000000000000000000000000000000000000008152600401610bc69061273d565b60405180910390fd5b60003383604051602401610be492919061251f565b6040516020818303038152906040527f0549a1be000000000000000000000000000000000000000000000000000000007bffffffffffffffffffffffffffffffffffffffffffffffffffffffff19166020820180517bffffffffffffffffffffffffffffffffffffffffffffffffffffffff83818316178352505050509050600580549050915060056040518060c001604052808673ffffffffffffffffffffffffffffffffffffffff1681526020013373ffffffffffffffffffffffffffffffffffffffff168152602001600081526020018381526020016000151581526020016000815250908060018154018082558091505060019003906000526020600020906006020160009091909190915060008201518160000160006101000a81548173ffffffffffffffffffffffffffffffffffffffff021916908373ffffffffffffffffffffffffffffffffffffffff16021790555060208201518160010160006101000a81548173ffffffffffffffffffffffffffffffffffffffff021916908373ffffffffffffffffffffffffffffffffffffffff160217905550604082015181600201556060820151816003019080519060200190610da8929190611dbf565b5060808201518160040160006101000a81548160ff02191690831515021790555060a0820151816005015550508373ffffffffffffffffffffffffffffffffffffffff16823373ffffffffffffffffffffffffffffffffffffffff167fd5a05bf70715ad82a09a756320284a1b54c9ff74cd0f8cce6219e79b563fe59d600085604051610e369291906125ed565b60405180910390a45092915050565b60046020528160005260406000206020528060005260406000206000915091509054906101000a900460ff1681565b6000600260003373ffffffffffffffffffffffffffffffffffffffff1673ffffffffffffffffffffffffffffffffffffffff16815260200190815260200160002060009054906101000a900460ff16610f02576040517f08c379a0000000000000000000000000000000000000000000000000000000008152600401610ef99061273d565b60405180910390fd5b60003367016345785d8a0000604051602401610f1f9291906124f6565b6040516020818303038152906040527f0549a1be000000000000000000000000000000000000000000000000000000007bffffffffffffffffffffffffffffffffffffffffffffffffffffffff19166020820180517bffffffffffffffffffffffffffffffffffffffffffffffffffffffff83818316178352505050509050600580549050915060056040518060c001604052808573ffffffffffffffffffffffffffffffffffffffff1681526020013373ffffffffffffffffffffffffffffffffffffffff168152602001600081526020018381526020016000151581526020016000815250908060018154018082558091505060019003906000526020600020906006020160009091909190915060008201518160000160006101000a81548173ffffffffffffffffffffffffffffffffffffffff021916908373ffffffffffffffffffffffffffffffffffffffff16021790555060208201518160010160006101000a81548173ffffffffffffffffffffffffffffffffffffffff021916908373ffffffffffffffffffffffffffffffffffffffff1602179055506040820151816002015560608201518160030190805190602001906110e3929190611dbf565b5060808201518160040160006101000a81548160ff02191690831515021790555060a0820151816005015550508273ffffffffffffffffffffffffffffffffffffffff16823373ffffffffffffffffffffffffffffffffffffffff167fd5a05bf70715ad82a09a756320284a1b54c9ff74cd0f8cce6219e79b563fe59d6000856040516111719291906125ed565b60405180910390a450919050565b6005818154811061118f57600080fd5b90600052602060002090600602016000915090508060000160009054906101000a900473ffffffffffffffffffffffffffffffffffffffff16908060010160009054906101000a900473ffffffffffffffffffffffffffffffffffffffff169080600201549080600301805461120490612a04565b80601f016020809104026020016040519081016040528092919081815260200182805461123090612a04565b801561127d5780601f106112525761010080835404028352916020019161127d565b820191906000526020600020905b81548152906001019060200180831161126057829003601f168201915b5050505050908060040160009054906101000a900460ff16908060050154905086565b6060600080548060200260200160405190810160405280929190818152602001828054801561132457602002820191906000526020600020905b8160009054906101000a900473ffffffffffffffffffffffffffffffffffffffff1673ffffffffffffffffffffffffffffffffffffffff16815260200190600101908083116112da575b5050505050905090565b600260003373ffffffffffffffffffffffffffffffffffffffff1673ffffffffffffffffffffffffffffffffffffffff16815260200190815260200160002060009054906101000a900460ff166113ba576040517f08c379a00000000000000000000000000000000000000000000000000000000081526004016113b19061273d565b60405180910390fd5b806005805490508110611402576040517f08c379a00000000000000000000000000000000000000000000000000000000081526004016113f99061269d565b60405180910390fd5b816005818154811061143d577f4e487b7100000000000000000000000000000000000000000000000000000000600052603260045260246000fd5b906000526020600020906006020160040160009054906101000a900460ff161561149c576040517f08c379a0000000000000000000000000000000000000000000000000000000008152600401611493906126dd565b60405180910390fd5b826004600082815260200190815260200160002060003373ffffffffffffffffffffffffffffffffffffffff1673ffffffffffffffffffffffffffffffffffffffff16815260200190815260200160002060009054906101000a900460ff161561153b576040517f08c379a0000000000000000000000000000000000000000000000000000000008152600401611532906126bd565b60405180910390fd5b600060058581548110611577577f4e487b7100000000000000000000000000000000000000000000000000000000600052603260045260246000fd5b90600052602060002090600602019050600181600501600082825461159c91906128b8565b9250508190555060016004600087815260200190815260200160002060003373ffffffffffffffffffffffffffffffffffffffff1673ffffffffffffffffffffffffffffffffffffffff16815260200190815260200160002060006101000a81548160ff021916908315150217905550843373ffffffffffffffffffffffffffffffffffffffff167f5cbe105e36805f7820e291f799d5794ff948af2a5f664e580382defb6339004160405160405180910390a35050505050565b600260003373ffffffffffffffffffffffffffffffffffffffff1673ffffffffffffffffffffffffffffffffffffffff16815260200190815260200160002060009054906101000a900460ff166116e3576040517f08c379a00000000000000000000000000000000000000000000000000000000081526004016116da9061273d565b60405180910390fd5b6000600580549050905060056040518060c001604052808673ffffffffffffffffffffffffffffffffffffffff168152602001600073ffffffffffffffffffffffffffffffffffffffff1681526020018581526020018481526020016000151581526020016000815250908060018154018082558091505060019003906000526020600020906006020160009091909190915060008201518160000160006101000a81548173ffffffffffffffffffffffffffffffffffffffff021916908373ffffffffffffffffffffffffffffffffffffffff16021790555060208201518160010160006101000a81548173ffffffffffffffffffffffffffffffffffffffff021916908373ffffffffffffffffffffffffffffffffffffffff16021790555060408201518160020155606082015181600301908051906020019061182a929190611dbf565b5060808201518160040160006101000a81548160ff02191690831515021790555060a0820151816005015550508373ffffffffffffffffffffffffffffffffffffffff16813373ffffffffffffffffffffffffffffffffffffffff167fd5a05bf70715ad82a09a756320284a1b54c9ff74cd0f8cce6219e79b563fe59d86866040516118b7929190612778565b60405180910390a450505050565b60035481565b600260003373ffffffffffffffffffffffffffffffffffffffff1673ffffffffffffffffffffffffffffffffffffffff16815260200190815260200160002060009054906101000a900460ff16611957576040517f08c379a000000000000000000000000000000000000000000000000000000000815260040161194e9061273d565b60405180910390fd5b600073684585a4e1f28d83f7404f0ec785758c100a350973ffffffffffffffffffffffffffffffffffffffff16476040516119919061245e565b60006040518083038185875af1925050503d80600081146119ce576040519150601f19603f3d011682016040523d82523d6000602084013e6119d3565b606091505b5050905080611a17576040517f08c379a0000000000000000000000000000000000000000000000000000000008152600401611a0e9061261d565b60405180910390fd5b50565b600260003373ffffffffffffffffffffffffffffffffffffffff1673ffffffffffffffffffffffffffffffffffffffff16815260200190815260200160002060009054906101000a900460ff16611aa6576040517f08c379a0000000000000000000000000000000000000000000000000000000008152600401611a9d9061273d565b60405180910390fd5b806005805490508110611aee576040517f08c379a0000000000000000000000000000000000000000000000000000000008152600401611ae59061269d565b60405180910390fd5b8160058181548110611b29577f4e487b7100000000000000000000000000000000000000000000000000000000600052603260045260246000fd5b906000526020600020906006020160040160009054906101000a900460ff1615611b88576040517f08c379a0000000000000000000000000000000000000000000000000000000008152600401611b7f906126dd565b60405180910390fd5b600060058481548110611bc4577f4e487b7100000000000000000000000000000000000000000000000000000000600052603260045260246000fd5b9060005260206000209060060201905060035481600501541015611c1d576040517f08c379a0000000000000000000000000000000000000000000000000000000008152600401611c149061271d565b60405180910390fd5b60018160040160006101000a81548160ff02191690831515021790555060008160000160009054906101000a900473ffffffffffffffffffffffffffffffffffffffff1673ffffffffffffffffffffffffffffffffffffffff16826002015483600301604051611c8d9190612447565b60006040518083038185875af1925050503d8060008114611cca576040519150601f19603f3d011682016040523d82523d6000602084013e611ccf565b606091505b5050905080611d13576040517f08c379a0000000000000000000000000000000000000000000000000000000008152600401611d0a9061267d565b60405180910390fd5b843373ffffffffffffffffffffffffffffffffffffffff167f5445f318f4f5fcfb66592e68e0cc5822aa15664039bd5f0ffde24c5a8142b1ac60405160405180910390a35050505050565b600080600580549050905060008111611dac576040517f08c379a0000000000000000000000000000000000000000000000000000000008152600401611da39061263d565b60405180910390fd5b600181611db9919061290e565b91505090565b828054611dcb90612a04565b90600052602060002090601f016020900481019282611ded5760008555611e34565b82601f10611e0657805160ff1916838001178555611e34565b82800160010185558215611e34579182015b82811115611e33578251825591602001919060010190611e18565b5b509050611e419190611e45565b5090565b5b80821115611e5e576000816000905550600101611e46565b5090565b6000611e75611e7084612802565b6127d1565b905082815260208101848484011115611e8d57600080fd5b611e988482856129c2565b509392505050565b600081359050611eaf81612ad4565b92915050565b600082601f830112611ec657600080fd5b8135611ed6848260208601611e62565b91505092915050565b600081359050611eee81612aeb565b92915050565b600060208284031215611f0657600080fd5b6000611f1484828501611ea0565b91505092915050565b60008060408385031215611f3057600080fd5b6000611f3e85828601611ea0565b9250506020611f4f85828601611edf565b9150509250929050565b600080600060608486031215611f6e57600080fd5b6000611f7c86828701611ea0565b9350506020611f8d86828701611edf565b925050604084013567ffffffffffffffff811115611faa57600080fd5b611fb686828701611eb5565b9150509250925092565b600060208284031215611fd257600080fd5b6000611fe084828501611edf565b91505092915050565b60008060408385031215611ffc57600080fd5b600061200a85828601611edf565b925050602061201b85828601611ea0565b9150509250929050565b6000612031838361203d565b60208301905092915050565b61204681612942565b82525050565b61205581612942565b82525050565b600061206682612857565b612070818561287a565b935061207b83612832565b8060005b838110156120ac5781516120938882612025565b975061209e8361286d565b92505060018101905061207f565b5085935050505092915050565b6120c281612954565b82525050565b60006120d382612862565b6120dd818561288b565b93506120ed8185602086016129d1565b6120f681612ac3565b840191505092915050565b6000815461210e81612a04565b612118818661289c565b94506001821660008114612133576001811461214457612177565b60ff19831686528186019350612177565b61214d85612842565b60005b8381101561216f57815481890152600182019150602081019050612150565b838801955050505b50505092915050565b6121898161299e565b82525050565b612198816129b0565b82525050565b60006121ab601c836128a7565b91507f6661696c656420746f2073656e642072656d61696e696e6720657468000000006000830152602082019050919050565b60006121eb601a836128a7565b91507f6e6f2072656769737465726564207472616e73616374696f6e730000000000006000830152602082019050919050565b600061222b6018836128a7565b91507f6164647265737320697320616c7265616479206f776e657200000000000000006000830152602082019050919050565b600061226b6009836128a7565b91507f7478206661696c656400000000000000000000000000000000000000000000006000830152602082019050919050565b60006122ab6011836128a7565b91507f747820646f6573206e6f742065786973740000000000000000000000000000006000830152602082019050919050565b60006122eb6014836128a7565b91507f747820616c726561647920636f6e6669726d65640000000000000000000000006000830152602082019050919050565b600061232b60008361289c565b9150600082019050919050565b60006123456013836128a7565b91507f747820616c7265616479206578656375746564000000000000000000000000006000830152602082019050919050565b60006123856010836128a7565b91507f7478206e6f7420636f6e6669726d6564000000000000000000000000000000006000830152602082019050919050565b60006123c56011836128a7565b91507f63616e6e6f7420657865637574652074780000000000000000000000000000006000830152602082019050919050565b60006124056009836128a7565b91507f6e6f74206f776e657200000000000000000000000000000000000000000000006000830152602082019050919050565b61244181612980565b82525050565b60006124538284612101565b915081905092915050565b60006124698261231e565b9150819050919050565b6000602082019050612488600083018461204c565b92915050565b600060c0820190506124a3600083018961204c565b6124b0602083018861204c565b6124bd6040830187612438565b81810360608301526124cf81866120c8565b90506124de60808301856120b9565b6124eb60a0830184612438565b979650505050505050565b600060408201905061250b600083018561204c565b612518602083018461218f565b9392505050565b6000604082019050612534600083018561204c565b6125416020830184612438565b9392505050565b600060c08201905061255d600083018961204c565b61256a6020830188612438565b818103604083015261257c81876120c8565b905061258b60608301866120b9565b6125986080830185612438565b6125a560a083018461204c565b979650505050505050565b600060208201905081810360008301526125ca818461205b565b905092915050565b60006020820190506125e760008301846120b9565b92915050565b60006040820190506126026000830185612180565b818103602083015261261481846120c8565b90509392505050565b600060208201905081810360008301526126368161219e565b9050919050565b60006020820190508181036000830152612656816121de565b9050919050565b600060208201905081810360008301526126768161221e565b9050919050565b600060208201905081810360008301526126968161225e565b9050919050565b600060208201905081810360008301526126b68161229e565b9050919050565b600060208201905081810360008301526126d6816122de565b9050919050565b600060208201905081810360008301526126f681612338565b9050919050565b6000602082019050818103600083015261271681612378565b9050919050565b60006020820190508181036000830152612736816123b8565b9050919050565b60006020820190508181036000830152612756816123f8565b9050919050565b60006020820190506127726000830184612438565b92915050565b600060408201905061278d6000830185612438565b818103602083015261279f81846120c8565b90509392505050565b60006040820190506127bd6000830185612438565b6127ca6020830184612438565b9392505050565b6000604051905081810181811067ffffffffffffffff821117156127f8576127f7612a94565b5b8060405250919050565b600067ffffffffffffffff82111561281d5761281c612a94565b5b601f19601f8301169050602081019050919050565b6000819050602082019050919050565b60008190508160005260206000209050919050565b600081519050919050565b600081519050919050565b6000602082019050919050565b600082825260208201905092915050565b600082825260208201905092915050565b600081905092915050565b600082825260208201905092915050565b60006128c382612980565b91506128ce83612980565b9250827fffffffffffffffffffffffffffffffffffffffffffffffffffffffffffffffff0382111561290357612902612a36565b5b828201905092915050565b600061291982612980565b915061292483612980565b92508282101561293757612936612a36565b5b828203905092915050565b600061294d82612960565b9050919050565b60008115159050919050565b600073ffffffffffffffffffffffffffffffffffffffff82169050919050565b6000819050919050565b600067ffffffffffffffff82169050919050565b60006129a982612980565b9050919050565b60006129bb8261298a565b9050919050565b82818337600083830152505050565b60005b838110156129ef5780820151818401526020810190506129d4565b838111156129fe576000848401525b50505050565b60006002820490506001821680612a1c57607f821691505b60208210811415612a3057612a2f612a65565b5b50919050565b7f4e487b7100000000000000000000000000000000000000000000000000000000600052601160045260246000fd5b7f4e487b7100000000000000000000000000000000000000000000000000000000600052602260045260246000fd5b7f4e487b7100000000000000000000000000000000000000000000000000000000600052604160045260246000fd5b6000601f19601f8301169050919050565b612add81612942565b8114612ae857600080fd5b50565b612af481612980565b8114612aff57600080fd5b5056fea2646970667358221220cc2046eb518fad7bc31a9671b5ba375e356dd152dfacc69833829cc65a1a81ce64736f6c63430008000033",
  "linkReferences": {},
  "deployedLinkReferences": {}
}