{
  "_format": "hh-sol-artifact-1",
  "contractName": "DexV1",
  "sourceName": "contracts/DexV1.sol",
  "abi": [
    {
      "inputs": [
        {
          "internalType": "address",
          "name": "yeahTokenAddress",
          "type": "address"
        }
      ],
      "stateMutability": "nonpayable",
      "type": "constructor"
    },
    {
      "anonymous": false,
      "inputs": [
        {
          "indexed": true,
          "internalType": "uint256",
          "name": "_ethAmount",
          "type": "uint256"
        },
        {
          "indexed": true,
          "internalType": "uint256",
          "name": "amountSentToFunc",
          "type": "uint256"
        }
      ],
      "name": "deposited",
      "type": "event"
    },
    {
      "anonymous": false,
      "inputs": [
        {
          "indexed": true,
          "internalType": "uint256",
          "name": "_ethAmount",
          "type": "uint256"
        },
        {
          "indexed": true,
          "internalType": "uint256",
          "name": "amountSentToFunc",
          "type": "uint256"
        }
      ],
      "name": "withdrawed",
      "type": "event"
    },
    {
      "inputs": [],
      "name": "LPTokenAddress",
      "outputs": [
        {
          "internalType": "address",
          "name": "",
          "type": "address"
        }
      ],
      "stateMutability": "view",
      "type": "function"
    },
    {
      "inputs": [],
      "name": "LPTokenAddressSetter",
      "outputs": [
        {
          "internalType": "address",
          "name": "",
          "type": "address"
        }
      ],
      "stateMutability": "view",
      "type": "function"
    },
    {
      "inputs": [
        {
          "internalType": "address",
          "name": "_LPTokenAddress",
          "type": "address"
        }
      ],
      "name": "LPTokenSetAddress",
      "outputs": [],
      "stateMutability": "nonpayable",
      "type": "function"
    },
    {
      "inputs": [],
      "name": "deposit",
      "outputs": [
        {
          "internalType": "uint256",
          "name": "",
          "type": "uint256"
        }
      ],
      "stateMutability": "payable",
      "type": "function"
    },
    {
      "inputs": [],
      "name": "ethToToken",
      "outputs": [
        {
          "internalType": "uint256",
          "name": "",
          "type": "uint256"
        }
      ],
      "stateMutability": "payable",
      "type": "function"
    },
    {
      "inputs": [
        {
          "internalType": "uint256",
          "name": "msgValue",
          "type": "uint256"
        }
      ],
      "name": "ethToTokenView",
      "outputs": [
        {
          "internalType": "uint256",
          "name": "",
          "type": "uint256"
        }
      ],
      "stateMutability": "view",
      "type": "function"
    },
    {
      "inputs": [],
      "name": "getLiquidity",
      "outputs": [
        {
          "internalType": "uint256",
          "name": "",
          "type": "uint256"
        }
      ],
      "stateMutability": "view",
      "type": "function"
    },
    {
      "inputs": [],
      "name": "getTokenReserves",
      "outputs": [
        {
          "internalType": "uint256",
          "name": "",
          "type": "uint256"
        }
      ],
      "stateMutability": "view",
      "type": "function"
    },
    {
      "inputs": [],
      "name": "getTotalLiquidity",
      "outputs": [
        {
          "internalType": "uint256",
          "name": "",
          "type": "uint256"
        }
      ],
      "stateMutability": "view",
      "type": "function"
    },
    {
      "inputs": [
        {
          "internalType": "uint256",
          "name": "tokens",
          "type": "uint256"
        }
      ],
      "name": "init",
      "outputs": [
        {
          "internalType": "uint256",
          "name": "",
          "type": "uint256"
        }
      ],
      "stateMutability": "payable",
      "type": "function"
    },
    {
      "inputs": [
        {
          "internalType": "uint256",
          "name": "tokens",
          "type": "uint256"
        }
      ],
      "name": "tokenToEth",
      "outputs": [
        {
          "internalType": "uint256",
          "name": "",
          "type": "uint256"
        }
      ],
      "stateMutability": "payable",
      "type": "function"
    },
    {
      "inputs": [
        {
          "internalType": "uint256",
          "name": "tokens",
          "type": "uint256"
        }
      ],
      "name": "tokenToEthView",
      "outputs": [
        {
          "internalType": "uint256",
          "name": "",
          "type": "uint256"
        }
      ],
      "stateMutability": "view",
      "type": "function"
    },
    {
      "inputs": [],
      "name": "totalLiquidity",
      "outputs": [
        {
          "internalType": "uint256",
          "name": "",
          "type": "uint256"
        }
      ],
      "stateMutability": "view",
      "type": "function"
    },
    {
      "inputs": [
        {
          "internalType": "uint256",
          "name": "amount",
          "type": "uint256"
        }
      ],
      "name": "withdraw",
      "outputs": [
        {
          "internalType": "uint256",
          "name": "",
          "type": "uint256"
        },
        {
          "internalType": "uint256",
          "name": "",
          "type": "uint256"
        }
      ],
      "stateMutability": "nonpayable",
      "type": "function"
    }
  ],
  "bytecode": "0x60806040523480156200001157600080fd5b5060405162001e3438038062001e348339818101604052810190620000379190620000d6565b806000806101000a81548173ffffffffffffffffffffffffffffffffffffffff021916908373ffffffffffffffffffffffffffffffffffffffff16021790555033600360006101000a81548173ffffffffffffffffffffffffffffffffffffffff021916908373ffffffffffffffffffffffffffffffffffffffff1602179055505062000150565b600081519050620000d08162000136565b92915050565b600060208284031215620000e957600080fd5b6000620000f984828501620000bf565b91505092915050565b60006200010f8262000116565b9050919050565b600073ffffffffffffffffffffffffffffffffffffffff82169050919050565b620001418162000102565b81146200014d57600080fd5b50565b611cd480620001606000396000f3fe6080604052600436106100dd5760003560e01c806380c1443b1161007f578063b7b0422d11610059578063b7b0422d146102bd578063b9cf5005146102ed578063c3828bf014610318578063d0e30db014610343576100dd565b806380c1443b1461021857806386e35a9a146102555780639b2a75d414610292576100dd565b80632e1a7d4d116100bb5780632e1a7d4d1461016157806335c7e9251461019f57806370b2a30f146101ca578063789770f4146101fa576100dd565b80630910a510146100e257806315770f921461010d57806315e8927414610138575b600080fd5b3480156100ee57600080fd5b506100f7610361565b6040516101049190611a00565b60405180910390f35b34801561011957600080fd5b50610122610369565b60405161012f9190611a00565b60405180910390f35b34801561014457600080fd5b5061015f600480360381019061015a91906115ac565b61036f565b005b34801561016d57600080fd5b50610188600480360381019061018391906115fe565b610443565b604051610196929190611a1b565b60405180910390f35b3480156101ab57600080fd5b506101b46107ef565b6040516101c19190611a00565b60405180910390f35b6101e460048036038101906101df91906115fe565b6107f9565b6040516101f19190611a00565b60405180910390f35b610202610a5b565b60405161020f9190611a00565b60405180910390f35b34801561022457600080fd5b5061023f600480360381019061023a91906115fe565b610c1e565b60405161024c9190611a00565b60405180910390f35b34801561026157600080fd5b5061027c600480360381019061027791906115fe565b610ce5565b6040516102899190611a00565b60405180910390f35b34801561029e57600080fd5b506102a7610dac565b6040516102b491906118a5565b60405180910390f35b6102d760048036038101906102d291906115fe565b610dd2565b6040516102e49190611a00565b60405180910390f35b3480156102f957600080fd5b50610302611042565b60405161030f9190611a00565b60405180910390f35b34801561032457600080fd5b5061032d6110f3565b60405161033a91906118a5565b60405180910390f35b61034b611119565b6040516103589190611a00565b60405180910390f35b600047905090565b60015481565b600360009054906101000a900473ffffffffffffffffffffffffffffffffffffffff1673ffffffffffffffffffffffffffffffffffffffff163373ffffffffffffffffffffffffffffffffffffffff16146103ff576040517f08c379a00000000000000000000000000000000000000000000000000000000081526004016103f6906119e0565b60405180910390fd5b80600260006101000a81548173ffffffffffffffffffffffffffffffffffffffff021916908373ffffffffffffffffffffffffffffffffffffffff16021790555050565b60008060008060009054906101000a900473ffffffffffffffffffffffffffffffffffffffff1673ffffffffffffffffffffffffffffffffffffffff166370a08231306040518263ffffffff1660e01b81526004016104a291906118a5565b60206040518083038186803b1580156104ba57600080fd5b505afa1580156104ce573d6000803e3d6000fd5b505050506040513d601f19601f820116820180604052508101906104f29190611627565b9050600060015461050c47876114a290919063ffffffff16565b6105169190611ac1565b9050600060015461053084886114a290919063ffffffff16565b61053a9190611ac1565b905085817f85705d1b6e637d62ab8073c9b76fa16b8728f3edfcd9e55e14160ff8c97cb5e260405160405180910390a36000600260009054906101000a900473ffffffffffffffffffffffffffffffffffffffff1673ffffffffffffffffffffffffffffffffffffffff1633886040516024016105b89291906118f7565b6040516020818303038152906040527f9159521f000000000000000000000000000000000000000000000000000000007bffffffffffffffffffffffffffffffffffffffffffffffffffffffff19166020820180517bffffffffffffffffffffffffffffffffffffffffffffffffffffffff83818316178352505050506040516106429190611879565b6000604051808303816000865af19150503d806000811461067f576040519150601f19603f3d011682016040523d82523d6000602084013e610684565b606091505b50509050806106c8576040517f08c379a00000000000000000000000000000000000000000000000000000000081526004016106bf90611920565b60405180910390fd5b6106dd836001546114b890919063ffffffff16565b6001819055503373ffffffffffffffffffffffffffffffffffffffff166108fc849081150290604051600060405180830381858888f19350505050158015610729573d6000803e3d6000fd5b5060008054906101000a900473ffffffffffffffffffffffffffffffffffffffff1673ffffffffffffffffffffffffffffffffffffffff1663a9059cbb33846040518363ffffffff1660e01b81526004016107859291906118f7565b602060405180830381600087803b15801561079f57600080fd5b505af11580156107b3573d6000803e3d6000fd5b505050506040513d601f19601f820116820180604052508101906107d791906115d5565b6107e057600080fd5b82829550955050505050915091565b6000600154905090565b60008060008054906101000a900473ffffffffffffffffffffffffffffffffffffffff1673ffffffffffffffffffffffffffffffffffffffff166370a08231306040518263ffffffff1660e01b815260040161085591906118a5565b60206040518083038186803b15801561086d57600080fd5b505afa158015610881573d6000803e3d6000fd5b505050506040513d601f19601f820116820180604052508101906108a59190611627565b905060006108b48483476114ce565b905060008054906101000a900473ffffffffffffffffffffffffffffffffffffffff1673ffffffffffffffffffffffffffffffffffffffff166323b872dd3330876040518463ffffffff1660e01b8152600401610913939291906118c0565b602060405180830381600087803b15801561092d57600080fd5b505af1158015610941573d6000803e3d6000fd5b505050506040513d601f19601f8201168201806040525081019061096591906115d5565b6109a4576040517f08c379a000000000000000000000000000000000000000000000000000000000815260040161099b90611940565b60405180910390fd5b60003373ffffffffffffffffffffffffffffffffffffffff16826040516109ca90611890565b60006040518083038185875af1925050503d8060008114610a07576040519150601f19603f3d011682016040523d82523d6000602084013e610a0c565b606091505b5050905080610a50576040517f08c379a0000000000000000000000000000000000000000000000000000000008152600401610a4790611980565b60405180910390fd5b819350505050919050565b60008060008054906101000a900473ffffffffffffffffffffffffffffffffffffffff1673ffffffffffffffffffffffffffffffffffffffff166370a08231306040518263ffffffff1660e01b8152600401610ab791906118a5565b60206040518083038186803b158015610acf57600080fd5b505afa158015610ae3573d6000803e3d6000fd5b505050506040513d601f19601f82011682018060405250810190610b079190611627565b90506000610b2834610b2234476114b890919063ffffffff16565b846114ce565b905060008054906101000a900473ffffffffffffffffffffffffffffffffffffffff1673ffffffffffffffffffffffffffffffffffffffff1663a9059cbb33836040518363ffffffff1660e01b8152600401610b859291906118f7565b602060405180830381600087803b158015610b9f57600080fd5b505af1158015610bb3573d6000803e3d6000fd5b505050506040513d601f19601f82011682018060405250810190610bd791906115d5565b610c16576040517f08c379a0000000000000000000000000000000000000000000000000000000008152600401610c0d906119c0565b60405180910390fd5b809250505090565b60008060008054906101000a900473ffffffffffffffffffffffffffffffffffffffff1673ffffffffffffffffffffffffffffffffffffffff166370a08231306040518263ffffffff1660e01b8152600401610c7a91906118a5565b60206040518083038186803b158015610c9257600080fd5b505afa158015610ca6573d6000803e3d6000fd5b505050506040513d601f19601f82011682018060405250810190610cca9190611627565b90506000610cd98447846114ce565b90508092505050919050565b60008060008054906101000a900473ffffffffffffffffffffffffffffffffffffffff1673ffffffffffffffffffffffffffffffffffffffff166370a08231306040518263ffffffff1660e01b8152600401610d4191906118a5565b60206040518083038186803b158015610d5957600080fd5b505afa158015610d6d573d6000803e3d6000fd5b505050506040513d601f19601f82011682018060405250810190610d919190611627565b90506000610da08483476114ce565b90508092505050919050565b600360009054906101000a900473ffffffffffffffffffffffffffffffffffffffff1681565b60008060015414610e18576040517f08c379a0000000000000000000000000000000000000000000000000000000008152600401610e0f90611960565b60405180910390fd5b476001819055506000600260009054906101000a900473ffffffffffffffffffffffffffffffffffffffff1673ffffffffffffffffffffffffffffffffffffffff1633600154604051602401610e6f9291906118f7565b6040516020818303038152906040527f0549a1be000000000000000000000000000000000000000000000000000000007bffffffffffffffffffffffffffffffffffffffffffffffffffffffff19166020820180517bffffffffffffffffffffffffffffffffffffffffffffffffffffffff8381831617835250505050604051610ef99190611879565b6000604051808303816000865af19150503d8060008114610f36576040519150601f19603f3d011682016040523d82523d6000602084013e610f3b565b606091505b5050905080610f7f576040517f08c379a0000000000000000000000000000000000000000000000000000000008152600401610f76906119a0565b60405180910390fd5b60008054906101000a900473ffffffffffffffffffffffffffffffffffffffff1673ffffffffffffffffffffffffffffffffffffffff166323b872dd3330866040518463ffffffff1660e01b8152600401610fdc939291906118c0565b602060405180830381600087803b158015610ff657600080fd5b505af115801561100a573d6000803e3d6000fd5b505050506040513d601f19601f8201168201806040525081019061102e91906115d5565b61103757600080fd5b600154915050919050565b60008060009054906101000a900473ffffffffffffffffffffffffffffffffffffffff1673ffffffffffffffffffffffffffffffffffffffff166370a08231306040518263ffffffff1660e01b815260040161109e91906118a5565b60206040518083038186803b1580156110b657600080fd5b505afa1580156110ca573d6000803e3d6000fd5b505050506040513d601f19601f820116820180604052508101906110ee9190611627565b905090565b600260009054906101000a900473ffffffffffffffffffffffffffffffffffffffff1681565b60008061112f34476114b890919063ffffffff16565b905060008060009054906101000a900473ffffffffffffffffffffffffffffffffffffffff1673ffffffffffffffffffffffffffffffffffffffff166370a08231306040518263ffffffff1660e01b815260040161118d91906118a5565b60206040518083038186803b1580156111a557600080fd5b505afa1580156111b9573d6000803e3d6000fd5b505050506040513d601f19601f820116820180604052508101906111dd9190611627565b905060006112126001846111fa85346114a290919063ffffffff16565b6112049190611ac1565b61154290919063ffffffff16565b905060008361122c600154346114a290919063ffffffff16565b6112369190611ac1565b905034817f34ae341f17c047360b12a629691d1f03b4810838a55ccb85a144466d209f794060405160405180910390a36000600260009054906101000a900473ffffffffffffffffffffffffffffffffffffffff1673ffffffffffffffffffffffffffffffffffffffff1633836040516024016112b49291906118f7565b6040516020818303038152906040527f0549a1be000000000000000000000000000000000000000000000000000000007bffffffffffffffffffffffffffffffffffffffffffffffffffffffff19166020820180517bffffffffffffffffffffffffffffffffffffffffffffffffffffffff838183161783525050505060405161133e9190611879565b6000604051808303816000865af19150503d806000811461137b576040519150601f19603f3d011682016040523d82523d6000602084013e611380565b606091505b50509050806113c4576040517f08c379a00000000000000000000000000000000000000000000000000000000081526004016113bb906119a0565b60405180910390fd5b6113d98260015461154290919063ffffffff16565b60018190555060008054906101000a900473ffffffffffffffffffffffffffffffffffffffff1673ffffffffffffffffffffffffffffffffffffffff166323b872dd3330866040518463ffffffff1660e01b815260040161143c939291906118c0565b602060405180830381600087803b15801561145657600080fd5b505af115801561146a573d6000803e3d6000fd5b505050506040513d601f19601f8201168201806040525081019061148e91906115d5565b61149757600080fd5b819550505050505090565b600081836114b09190611af2565b905092915050565b600081836114c69190611b4c565b905092915050565b6000806114e66103e5866114a290919063ffffffff16565b905060006114fd82856114a290919063ffffffff16565b905060006115288361151a6103e8896114a290919063ffffffff16565b61154290919063ffffffff16565b905080826115369190611ac1565b93505050509392505050565b600081836115509190611a6b565b905092915050565b60008135905061156781611c59565b92915050565b60008151905061157c81611c70565b92915050565b60008135905061159181611c87565b92915050565b6000815190506115a681611c87565b92915050565b6000602082840312156115be57600080fd5b60006115cc84828501611558565b91505092915050565b6000602082840312156115e757600080fd5b60006115f58482850161156d565b91505092915050565b60006020828403121561161057600080fd5b600061161e84828501611582565b91505092915050565b60006020828403121561163957600080fd5b600061164784828501611597565b91505092915050565b61165981611b80565b82525050565b600061166a82611a44565b6116748185611a4f565b9350611684818560208601611bc8565b80840191505092915050565b600061169d600e83611a5a565b91507f6275726e207478206661696c65640000000000000000000000000000000000006000830152602082019050919050565b60006116dd601983611a5a565b91507f6661696c656420746f207472616e7366657220746f6b656e73000000000000006000830152602082019050919050565b600061171d602083611a5a565b91507f6465782068617320616c7265616479206265656e20696e697469616c697a65646000830152602082019050919050565b600061175d601283611a5a565b91507f6661696c656420746f2073656e642045544800000000000000000000000000006000830152602082019050919050565b600061179d600083611a4f565b9150600082019050919050565b60006117b7600e83611a5a565b91507f6d696e74207478206661696c65640000000000000000000000000000000000006000830152602082019050919050565b60006117f7601683611a5a565b91507f6661696c656420746f207472616e7366657220455448000000000000000000006000830152602082019050919050565b6000611837601e83611a5a565b91507f796f7520617265206e6f742074686520616464726573732073657474657200006000830152602082019050919050565b61187381611bbe565b82525050565b6000611885828461165f565b915081905092915050565b600061189b82611790565b9150819050919050565b60006020820190506118ba6000830184611650565b92915050565b60006060820190506118d56000830186611650565b6118e26020830185611650565b6118ef604083018461186a565b949350505050565b600060408201905061190c6000830185611650565b611919602083018461186a565b9392505050565b6000602082019050818103600083015261193981611690565b9050919050565b60006020820190508181036000830152611959816116d0565b9050919050565b6000602082019050818103600083015261197981611710565b9050919050565b6000602082019050818103600083015261199981611750565b9050919050565b600060208201905081810360008301526119b9816117aa565b9050919050565b600060208201905081810360008301526119d9816117ea565b9050919050565b600060208201905081810360008301526119f98161182a565b9050919050565b6000602082019050611a15600083018461186a565b92915050565b6000604082019050611a30600083018561186a565b611a3d602083018461186a565b9392505050565b600081519050919050565b600081905092915050565b600082825260208201905092915050565b6000611a7682611bbe565b9150611a8183611bbe565b9250827fffffffffffffffffffffffffffffffffffffffffffffffffffffffffffffffff03821115611ab657611ab5611bfb565b5b828201905092915050565b6000611acc82611bbe565b9150611ad783611bbe565b925082611ae757611ae6611c2a565b5b828204905092915050565b6000611afd82611bbe565b9150611b0883611bbe565b9250817fffffffffffffffffffffffffffffffffffffffffffffffffffffffffffffffff0483118215151615611b4157611b40611bfb565b5b828202905092915050565b6000611b5782611bbe565b9150611b6283611bbe565b925082821015611b7557611b74611bfb565b5b828203905092915050565b6000611b8b82611b9e565b9050919050565b60008115159050919050565b600073ffffffffffffffffffffffffffffffffffffffff82169050919050565b6000819050919050565b60005b83811015611be6578082015181840152602081019050611bcb565b83811115611bf5576000848401525b50505050565b7f4e487b7100000000000000000000000000000000000000000000000000000000600052601160045260246000fd5b7f4e487b7100000000000000000000000000000000000000000000000000000000600052601260045260246000fd5b611c6281611b80565b8114611c6d57600080fd5b50565b611c7981611b92565b8114611c8457600080fd5b50565b611c9081611bbe565b8114611c9b57600080fd5b5056fea26469706673582212206b1c950c4fabbae0d2a60fd97a8a8f2afa919905ee36ea2c8a5c148951836c5a64736f6c63430008000033",
  "linkReferences": {},
  "deployedLinkReferences": {}
}