{
  "_format": "hh-sol-artifact-1",
  "contractName": "DexV1",
  "sourceName": "contracts/DexV1.sol",
  "abi": [
    {
      "inputs": [
        {
          "internalType": "address",
          "name": "yeahTokenAddress",
          "type": "address"
        }
      ],
      "stateMutability": "nonpayable",
      "type": "constructor"
    },
    {
      "anonymous": false,
      "inputs": [
        {
          "indexed": true,
          "internalType": "address",
          "name": "user",
          "type": "address"
        },
        {
          "indexed": true,
          "internalType": "uint256",
          "name": "ethDeposited",
          "type": "uint256"
        },
        {
          "indexed": true,
          "internalType": "uint256",
          "name": "tokensDeposited",
          "type": "uint256"
        }
      ],
      "name": "Deposited",
      "type": "event"
    },
    {
      "anonymous": false,
      "inputs": [
        {
          "indexed": true,
          "internalType": "address",
          "name": "user",
          "type": "address"
        },
        {
          "indexed": true,
          "internalType": "uint256",
          "name": "ethSent",
          "type": "uint256"
        },
        {
          "indexed": true,
          "internalType": "uint256",
          "name": "tokensBought",
          "type": "uint256"
        }
      ],
      "name": "EthToTokenExchanged",
      "type": "event"
    },
    {
      "anonymous": false,
      "inputs": [
        {
          "indexed": true,
          "internalType": "uint256",
          "name": "ETHAmount",
          "type": "uint256"
        },
        {
          "indexed": true,
          "internalType": "uint256",
          "name": "TokenAmount",
          "type": "uint256"
        },
        {
          "indexed": true,
          "internalType": "address",
          "name": "initializer",
          "type": "address"
        }
      ],
      "name": "Initialized",
      "type": "event"
    },
    {
      "anonymous": false,
      "inputs": [
        {
          "indexed": true,
          "internalType": "address",
          "name": "LPTokenAddress",
          "type": "address"
        },
        {
          "indexed": true,
          "internalType": "address",
          "name": "user",
          "type": "address"
        },
        {
          "indexed": true,
          "internalType": "uint256",
          "name": "time",
          "type": "uint256"
        }
      ],
      "name": "LPTokenAddressSet",
      "type": "event"
    },
    {
      "anonymous": false,
      "inputs": [
        {
          "indexed": true,
          "internalType": "address",
          "name": "user",
          "type": "address"
        },
        {
          "indexed": true,
          "internalType": "uint256",
          "name": "tokensSent",
          "type": "uint256"
        },
        {
          "indexed": true,
          "internalType": "uint256",
          "name": "ethBought",
          "type": "uint256"
        }
      ],
      "name": "TokenToEthExchanged",
      "type": "event"
    },
    {
      "anonymous": false,
      "inputs": [
        {
          "indexed": true,
          "internalType": "address",
          "name": "user",
          "type": "address"
        },
        {
          "indexed": true,
          "internalType": "uint256",
          "name": "ethWithdrawed",
          "type": "uint256"
        },
        {
          "indexed": true,
          "internalType": "uint256",
          "name": "tokensWithdrawed",
          "type": "uint256"
        }
      ],
      "name": "Withdrawed",
      "type": "event"
    },
    {
      "inputs": [],
      "name": "LPTokenAddress",
      "outputs": [
        {
          "internalType": "address",
          "name": "",
          "type": "address"
        }
      ],
      "stateMutability": "view",
      "type": "function"
    },
    {
      "inputs": [],
      "name": "LPTokenAddressSetter",
      "outputs": [
        {
          "internalType": "address",
          "name": "",
          "type": "address"
        }
      ],
      "stateMutability": "view",
      "type": "function"
    },
    {
      "inputs": [],
      "name": "deposit",
      "outputs": [
        {
          "internalType": "uint256",
          "name": "",
          "type": "uint256"
        }
      ],
      "stateMutability": "payable",
      "type": "function"
    },
    {
      "inputs": [],
      "name": "ethToToken",
      "outputs": [
        {
          "internalType": "uint256",
          "name": "",
          "type": "uint256"
        }
      ],
      "stateMutability": "payable",
      "type": "function"
    },
    {
      "inputs": [
        {
          "internalType": "uint256",
          "name": "msgValue",
          "type": "uint256"
        }
      ],
      "name": "ethToTokenView",
      "outputs": [
        {
          "internalType": "uint256",
          "name": "",
          "type": "uint256"
        }
      ],
      "stateMutability": "view",
      "type": "function"
    },
    {
      "inputs": [],
      "name": "getLiquidity",
      "outputs": [
        {
          "internalType": "uint256",
          "name": "",
          "type": "uint256"
        }
      ],
      "stateMutability": "view",
      "type": "function"
    },
    {
      "inputs": [],
      "name": "getTokenReserves",
      "outputs": [
        {
          "internalType": "uint256",
          "name": "",
          "type": "uint256"
        }
      ],
      "stateMutability": "view",
      "type": "function"
    },
    {
      "inputs": [],
      "name": "getTotalLiquidity",
      "outputs": [
        {
          "internalType": "uint256",
          "name": "",
          "type": "uint256"
        }
      ],
      "stateMutability": "view",
      "type": "function"
    },
    {
      "inputs": [
        {
          "internalType": "uint256",
          "name": "tokens",
          "type": "uint256"
        }
      ],
      "name": "init",
      "outputs": [
        {
          "internalType": "uint256",
          "name": "",
          "type": "uint256"
        }
      ],
      "stateMutability": "payable",
      "type": "function"
    },
    {
      "inputs": [
        {
          "internalType": "address",
          "name": "_LPTokenAddress",
          "type": "address"
        }
      ],
      "name": "setLPTokenAddress",
      "outputs": [],
      "stateMutability": "nonpayable",
      "type": "function"
    },
    {
      "inputs": [
        {
          "internalType": "uint256",
          "name": "tokens",
          "type": "uint256"
        }
      ],
      "name": "tokenToEth",
      "outputs": [
        {
          "internalType": "uint256",
          "name": "",
          "type": "uint256"
        }
      ],
      "stateMutability": "payable",
      "type": "function"
    },
    {
      "inputs": [
        {
          "internalType": "uint256",
          "name": "tokens",
          "type": "uint256"
        }
      ],
      "name": "tokenToEthView",
      "outputs": [
        {
          "internalType": "uint256",
          "name": "",
          "type": "uint256"
        }
      ],
      "stateMutability": "view",
      "type": "function"
    },
    {
      "inputs": [],
      "name": "totalLiquidity",
      "outputs": [
        {
          "internalType": "uint256",
          "name": "",
          "type": "uint256"
        }
      ],
      "stateMutability": "view",
      "type": "function"
    },
    {
      "inputs": [
        {
          "internalType": "uint256",
          "name": "amount",
          "type": "uint256"
        }
      ],
      "name": "withdraw",
      "outputs": [
        {
          "internalType": "uint256",
          "name": "",
          "type": "uint256"
        },
        {
          "internalType": "uint256",
          "name": "",
          "type": "uint256"
        }
      ],
      "stateMutability": "nonpayable",
      "type": "function"
    }
  ],
  "bytecode": "0x60806040526000600260146101000a81548160ff0219169083151502179055506000600260156101000a81548160ff0219169083151502179055503480156200004757600080fd5b50604051620024f5380380620024f583398181016040528101906200006d91906200015f565b806000806101000a81548173ffffffffffffffffffffffffffffffffffffffff021916908373ffffffffffffffffffffffffffffffffffffffff16021790555033600360006101000a81548173ffffffffffffffffffffffffffffffffffffffff021916908373ffffffffffffffffffffffffffffffffffffffff1602179055505062000191565b600080fd5b600073ffffffffffffffffffffffffffffffffffffffff82169050919050565b60006200012782620000fa565b9050919050565b62000139816200011a565b81146200014557600080fd5b50565b60008151905062000159816200012e565b92915050565b600060208284031215620001785762000177620000f5565b5b6000620001888482850162000148565b91505092915050565b61235480620001a16000396000f3fe6080604052600436106100dd5760003560e01c806386e35a9a1161007f578063b9cf500511610059578063b9cf5005146102c4578063c3828bf0146102ef578063d0e30db01461031a578063f42ebbe014610338576100dd565b806386e35a9a1461022c5780639b2a75d414610269578063b7b0422d14610294576100dd565b806335c7e925116100bb57806335c7e9251461017657806370b2a30f146101a1578063789770f4146101d157806380c1443b146101ef576100dd565b80630910a510146100e257806315770f921461010d5780632e1a7d4d14610138575b600080fd5b3480156100ee57600080fd5b506100f7610361565b60405161010491906118ee565b60405180910390f35b34801561011957600080fd5b50610122610369565b60405161012f91906118ee565b60405180910390f35b34801561014457600080fd5b5061015f600480360381019061015a919061193a565b61036f565b60405161016d929190611967565b60405180910390f35b34801561018257600080fd5b5061018b610773565b60405161019891906118ee565b60405180910390f35b6101bb60048036038101906101b6919061193a565b61077d565b6040516101c891906118ee565b60405180910390f35b6101d9610a7c565b6040516101e691906118ee565b60405180910390f35b3480156101fb57600080fd5b506102166004803603810190610211919061193a565b610cd5565b60405161022391906118ee565b60405180910390f35b34801561023857600080fd5b50610253600480360381019061024e919061193a565b610d9c565b60405161026091906118ee565b60405180910390f35b34801561027557600080fd5b5061027e610e63565b60405161028b91906119d1565b60405180910390f35b6102ae60048036038101906102a9919061193a565b610e89565b6040516102bb91906118ee565b60405180910390f35b3480156102d057600080fd5b506102d9611238565b6040516102e691906118ee565b60405180910390f35b3480156102fb57600080fd5b506103046112e9565b60405161031191906119d1565b60405180910390f35b61032261130f565b60405161032f91906118ee565b60405180910390f35b34801561034457600080fd5b5061035f600480360381019061035a9190611a18565b6116e3565b005b600047905090565b60015481565b60008060011515600260159054906101000a900460ff161515146103c8576040517f08c379a00000000000000000000000000000000000000000000000000000000081526004016103bf90611ac8565b60405180910390fd5b60008060009054906101000a900473ffffffffffffffffffffffffffffffffffffffff1673ffffffffffffffffffffffffffffffffffffffff166370a08231306040518263ffffffff1660e01b815260040161042491906119d1565b60206040518083038186803b15801561043c57600080fd5b505afa158015610450573d6000803e3d6000fd5b505050506040513d601f19601f820116820180604052508101906104749190611afd565b9050600060015447866104879190611b59565b6104919190611be2565b9050600060015483876104a49190611b59565b6104ae9190611be2565b90506000600260009054906101000a900473ffffffffffffffffffffffffffffffffffffffff1673ffffffffffffffffffffffffffffffffffffffff1633886040516024016104fe929190611c13565b6040516020818303038152906040527f9159521f000000000000000000000000000000000000000000000000000000007bffffffffffffffffffffffffffffffffffffffffffffffffffffffff19166020820180517bffffffffffffffffffffffffffffffffffffffffffffffffffffffff83818316178352505050506040516105889190611cb6565b6000604051808303816000865af19150503d80600081146105c5576040519150601f19603f3d011682016040523d82523d6000602084013e6105ca565b606091505b505090508061060e576040517f08c379a000000000000000000000000000000000000000000000000000000000815260040161060590611d19565b60405180910390fd5b8660015461061c9190611d39565b6001819055503373ffffffffffffffffffffffffffffffffffffffff166108fc849081150290604051600060405180830381858888f19350505050158015610668573d6000803e3d6000fd5b5060008054906101000a900473ffffffffffffffffffffffffffffffffffffffff1673ffffffffffffffffffffffffffffffffffffffff1663a9059cbb33846040518363ffffffff1660e01b81526004016106c4929190611c13565b602060405180830381600087803b1580156106de57600080fd5b505af11580156106f2573d6000803e3d6000fd5b505050506040513d601f19601f820116820180604052508101906107169190611da5565b61071f57600080fd5b81833373ffffffffffffffffffffffffffffffffffffffff167f4cdcd27ae88503b2d4d3034a348b78aec00eca6369f48e5002ca3df8686b9b3e60405160405180910390a482829550955050505050915091565b6000600154905090565b600060011515600260159054906101000a900460ff161515146107d5576040517f08c379a00000000000000000000000000000000000000000000000000000000081526004016107cc90611ac8565b60405180910390fd5b60008060009054906101000a900473ffffffffffffffffffffffffffffffffffffffff1673ffffffffffffffffffffffffffffffffffffffff166370a08231306040518263ffffffff1660e01b815260040161083191906119d1565b60206040518083038186803b15801561084957600080fd5b505afa15801561085d573d6000803e3d6000fd5b505050506040513d601f19601f820116820180604052508101906108819190611afd565b9050600061089084834761187d565b905060008054906101000a900473ffffffffffffffffffffffffffffffffffffffff1673ffffffffffffffffffffffffffffffffffffffff166323b872dd3330876040518463ffffffff1660e01b81526004016108ef93929190611dd2565b602060405180830381600087803b15801561090957600080fd5b505af115801561091d573d6000803e3d6000fd5b505050506040513d601f19601f820116820180604052508101906109419190611da5565b610980576040517f08c379a000000000000000000000000000000000000000000000000000000000815260040161097790611e55565b60405180910390fd5b60003373ffffffffffffffffffffffffffffffffffffffff16826040516109a690611e9b565b60006040518083038185875af1925050503d80600081146109e3576040519150601f19603f3d011682016040523d82523d6000602084013e6109e8565b606091505b5050905080610a2c576040517f08c379a0000000000000000000000000000000000000000000000000000000008152600401610a2390611efc565b60405180910390fd5b81853373ffffffffffffffffffffffffffffffffffffffff167f5318c777103946814b46248dbdc94be4bed778ae0d794ddf73bb3f62474df8f060405160405180910390a4819350505050919050565b600060011515600260159054906101000a900460ff16151514610ad4576040517f08c379a0000000000000000000000000000000000000000000000000000000008152600401610acb90611ac8565b60405180910390fd5b60008060009054906101000a900473ffffffffffffffffffffffffffffffffffffffff1673ffffffffffffffffffffffffffffffffffffffff166370a08231306040518263ffffffff1660e01b8152600401610b3091906119d1565b60206040518083038186803b158015610b4857600080fd5b505afa158015610b5c573d6000803e3d6000fd5b505050506040513d601f19601f82011682018060405250810190610b809190611afd565b90506000610b9a343447610b949190611d39565b8461187d565b905060008054906101000a900473ffffffffffffffffffffffffffffffffffffffff1673ffffffffffffffffffffffffffffffffffffffff1663a9059cbb33836040518363ffffffff1660e01b8152600401610bf7929190611c13565b602060405180830381600087803b158015610c1157600080fd5b505af1158015610c25573d6000803e3d6000fd5b505050506040513d601f19601f82011682018060405250810190610c499190611da5565b610c88576040517f08c379a0000000000000000000000000000000000000000000000000000000008152600401610c7f90611f68565b60405180910390fd5b80343373ffffffffffffffffffffffffffffffffffffffff167f401f833a0b9902aaeca3e915f5c2286b037e7f5e4286a6ba479f3bc748685e2c60405160405180910390a4809250505090565b60008060008054906101000a900473ffffffffffffffffffffffffffffffffffffffff1673ffffffffffffffffffffffffffffffffffffffff166370a08231306040518263ffffffff1660e01b8152600401610d3191906119d1565b60206040518083038186803b158015610d4957600080fd5b505afa158015610d5d573d6000803e3d6000fd5b505050506040513d601f19601f82011682018060405250810190610d819190611afd565b90506000610d9084478461187d565b90508092505050919050565b60008060008054906101000a900473ffffffffffffffffffffffffffffffffffffffff1673ffffffffffffffffffffffffffffffffffffffff166370a08231306040518263ffffffff1660e01b8152600401610df891906119d1565b60206040518083038186803b158015610e1057600080fd5b505afa158015610e24573d6000803e3d6000fd5b505050506040513d601f19601f82011682018060405250810190610e489190611afd565b90506000610e5784834761187d565b90508092505050919050565b600360009054906101000a900473ffffffffffffffffffffffffffffffffffffffff1681565b600060011515600260149054906101000a900460ff16151514610ee1576040517f08c379a0000000000000000000000000000000000000000000000000000000008152600401610ed890611ffa565b60405180910390fd5b600060015414610f26576040517f08c379a0000000000000000000000000000000000000000000000000000000008152600401610f1d90612066565b60405180910390fd5b60003411610f69576040517f08c379a0000000000000000000000000000000000000000000000000000000008152600401610f60906120d2565b60405180910390fd5b60008211610fac576040517f08c379a0000000000000000000000000000000000000000000000000000000008152600401610fa39061213e565b60405180910390fd5b4760018190555060008054906101000a900473ffffffffffffffffffffffffffffffffffffffff1673ffffffffffffffffffffffffffffffffffffffff166323b872dd3330856040518463ffffffff1660e01b815260040161101093929190611dd2565b602060405180830381600087803b15801561102a57600080fd5b505af115801561103e573d6000803e3d6000fd5b505050506040513d601f19601f820116820180604052508101906110629190611da5565b61106b57600080fd5b6000600260009054906101000a900473ffffffffffffffffffffffffffffffffffffffff1673ffffffffffffffffffffffffffffffffffffffff16336001546040516024016110bb929190611c13565b6040516020818303038152906040527f0549a1be000000000000000000000000000000000000000000000000000000007bffffffffffffffffffffffffffffffffffffffffffffffffffffffff19166020820180517bffffffffffffffffffffffffffffffffffffffffffffffffffffffff83818316178352505050506040516111459190611cb6565b6000604051808303816000865af19150503d8060008114611182576040519150601f19603f3d011682016040523d82523d6000602084013e611187565b606091505b50509050806111cb576040517f08c379a00000000000000000000000000000000000000000000000000000000081526004016111c2906121aa565b60405180910390fd5b6001600260156101000a81548160ff0219169083151502179055503373ffffffffffffffffffffffffffffffffffffffff16836001547ff125169608390d6b5a774e5c064d5a7c558839a45f04600c7b1d5c9b8da0899960405160405180910390a4600154915050919050565b60008060009054906101000a900473ffffffffffffffffffffffffffffffffffffffff1673ffffffffffffffffffffffffffffffffffffffff166370a08231306040518263ffffffff1660e01b815260040161129491906119d1565b60206040518083038186803b1580156112ac57600080fd5b505afa1580156112c0573d6000803e3d6000fd5b505050506040513d601f19601f820116820180604052508101906112e49190611afd565b905090565b600260009054906101000a900473ffffffffffffffffffffffffffffffffffffffff1681565b600060011515600260159054906101000a900460ff16151514611367576040517f08c379a000000000000000000000000000000000000000000000000000000000815260040161135e90611ac8565b60405180910390fd5b600034476113759190611d39565b905060008060009054906101000a900473ffffffffffffffffffffffffffffffffffffffff1673ffffffffffffffffffffffffffffffffffffffff166370a08231306040518263ffffffff1660e01b81526004016113d391906119d1565b60206040518083038186803b1580156113eb57600080fd5b505afa1580156113ff573d6000803e3d6000fd5b505050506040513d601f19601f820116820180604052508101906114239190611afd565b9050600060018383346114369190611b59565b6114409190611be2565b61144a91906121ca565b90506000836001543461145d9190611b59565b6114679190611be2565b90508060015461147791906121ca565b60018190555060008054906101000a900473ffffffffffffffffffffffffffffffffffffffff1673ffffffffffffffffffffffffffffffffffffffff166323b872dd3330856040518463ffffffff1660e01b81526004016114da93929190611dd2565b602060405180830381600087803b1580156114f457600080fd5b505af1158015611508573d6000803e3d6000fd5b505050506040513d601f19601f8201168201806040525081019061152c9190611da5565b61153557600080fd5b6000600260009054906101000a900473ffffffffffffffffffffffffffffffffffffffff1673ffffffffffffffffffffffffffffffffffffffff163383604051602401611583929190611c13565b6040516020818303038152906040527f0549a1be000000000000000000000000000000000000000000000000000000007bffffffffffffffffffffffffffffffffffffffffffffffffffffffff19166020820180517bffffffffffffffffffffffffffffffffffffffffffffffffffffffff838183161783525050505060405161160d9190611cb6565b6000604051808303816000865af19150503d806000811461164a576040519150601f19603f3d011682016040523d82523d6000602084013e61164f565b606091505b5050905080611693576040517f08c379a000000000000000000000000000000000000000000000000000000000815260040161168a906121aa565b60405180910390fd5b82343373ffffffffffffffffffffffffffffffffffffffff167f73a19dd210f1a7f902193214c0ee91dd35ee5b4d920cba8d519eca65a7b488ca60405160405180910390a4819550505050505090565b600260149054906101000a900460ff1615611733576040517f08c379a000000000000000000000000000000000000000000000000000000000815260040161172a90612292565b60405180910390fd5b600360009054906101000a900473ffffffffffffffffffffffffffffffffffffffff1673ffffffffffffffffffffffffffffffffffffffff163373ffffffffffffffffffffffffffffffffffffffff16146117c3576040517f08c379a00000000000000000000000000000000000000000000000000000000081526004016117ba906122fe565b60405180910390fd5b80600260006101000a81548173ffffffffffffffffffffffffffffffffffffffff021916908373ffffffffffffffffffffffffffffffffffffffff1602179055506001600260146101000a81548160ff021916908315150217905550423373ffffffffffffffffffffffffffffffffffffffff168273ffffffffffffffffffffffffffffffffffffffff167f4961ebe740e0a6ad6d500be9a192ef37ffaec7468276312286cd31ee2bb1520c60405160405180910390a450565b6000806103e58561188e9190611b59565b90506000818461189e9190611b59565b90506000826103e8876118b19190611b59565b6118bb91906121ca565b905080826118c99190611be2565b93505050509392505050565b6000819050919050565b6118e8816118d5565b82525050565b600060208201905061190360008301846118df565b92915050565b600080fd5b611917816118d5565b811461192257600080fd5b50565b6000813590506119348161190e565b92915050565b6000602082840312156119505761194f611909565b5b600061195e84828501611925565b91505092915050565b600060408201905061197c60008301856118df565b61198960208301846118df565b9392505050565b600073ffffffffffffffffffffffffffffffffffffffff82169050919050565b60006119bb82611990565b9050919050565b6119cb816119b0565b82525050565b60006020820190506119e660008301846119c2565b92915050565b6119f5816119b0565b8114611a0057600080fd5b50565b600081359050611a12816119ec565b92915050565b600060208284031215611a2e57611a2d611909565b5b6000611a3c84828501611a03565b91505092915050565b600082825260208201905092915050565b7f6c697175696469747920706f6f6c20686173206e6f74206265656e20696e697460008201527f69616c697a656420796574000000000000000000000000000000000000000000602082015250565b6000611ab2602b83611a45565b9150611abd82611a56565b604082019050919050565b60006020820190508181036000830152611ae181611aa5565b9050919050565b600081519050611af78161190e565b92915050565b600060208284031215611b1357611b12611909565b5b6000611b2184828501611ae8565b91505092915050565b7f4e487b7100000000000000000000000000000000000000000000000000000000600052601160045260246000fd5b6000611b64826118d5565b9150611b6f836118d5565b9250817fffffffffffffffffffffffffffffffffffffffffffffffffffffffffffffffff0483118215151615611ba857611ba7611b2a565b5b828202905092915050565b7f4e487b7100000000000000000000000000000000000000000000000000000000600052601260045260246000fd5b6000611bed826118d5565b9150611bf8836118d5565b925082611c0857611c07611bb3565b5b828204905092915050565b6000604082019050611c2860008301856119c2565b611c3560208301846118df565b9392505050565b600081519050919050565b600081905092915050565b60005b83811015611c70578082015181840152602081019050611c55565b83811115611c7f576000848401525b50505050565b6000611c9082611c3c565b611c9a8185611c47565b9350611caa818560208601611c52565b80840191505092915050565b6000611cc28284611c85565b915081905092915050565b7f6275726e207478206661696c6564000000000000000000000000000000000000600082015250565b6000611d03600e83611a45565b9150611d0e82611ccd565b602082019050919050565b60006020820190508181036000830152611d3281611cf6565b9050919050565b6000611d44826118d5565b9150611d4f836118d5565b925082821015611d6257611d61611b2a565b5b828203905092915050565b60008115159050919050565b611d8281611d6d565b8114611d8d57600080fd5b50565b600081519050611d9f81611d79565b92915050565b600060208284031215611dbb57611dba611909565b5b6000611dc984828501611d90565b91505092915050565b6000606082019050611de760008301866119c2565b611df460208301856119c2565b611e0160408301846118df565b949350505050565b7f6661696c656420746f207472616e7366657220746f6b656e7300000000000000600082015250565b6000611e3f601983611a45565b9150611e4a82611e09565b602082019050919050565b60006020820190508181036000830152611e6e81611e32565b9050919050565b50565b6000611e85600083611c47565b9150611e9082611e75565b600082019050919050565b6000611ea682611e78565b9150819050919050565b7f6661696c656420746f2073656e64204554480000000000000000000000000000600082015250565b6000611ee6601283611a45565b9150611ef182611eb0565b602082019050919050565b60006020820190508181036000830152611f1581611ed9565b9050919050565b7f6661696c656420746f207472616e736665722045544800000000000000000000600082015250565b6000611f52601683611a45565b9150611f5d82611f1c565b602082019050919050565b60006020820190508181036000830152611f8181611f45565b9050919050565b7f4c5020746f6b656e204164647265737320686173206e6f74206265656e20736560008201527f7420796574000000000000000000000000000000000000000000000000000000602082015250565b6000611fe4602583611a45565b9150611fef82611f88565b604082019050919050565b6000602082019050818103600083015261201381611fd7565b9050919050565b7f6465782068617320616c7265616479206265656e20696e697469616c697a6564600082015250565b6000612050602083611a45565b915061205b8261201a565b602082019050919050565b6000602082019050818103600083015261207f81612043565b9050919050565b7f45544820616d6f756e74206d757374206265206f766572203000000000000000600082015250565b60006120bc601983611a45565b91506120c782612086565b602082019050919050565b600060208201905081810360008301526120eb816120af565b9050919050565b7f44455820746f6b656e20616d6f756e74206d757374206265206f766572203000600082015250565b6000612128601f83611a45565b9150612133826120f2565b602082019050919050565b600060208201905081810360008301526121578161211b565b9050919050565b7f6d696e74207478206661696c6564000000000000000000000000000000000000600082015250565b6000612194600e83611a45565b915061219f8261215e565b602082019050919050565b600060208201905081810360008301526121c381612187565b9050919050565b60006121d5826118d5565b91506121e0836118d5565b9250827fffffffffffffffffffffffffffffffffffffffffffffffffffffffffffffffff0382111561221557612214611b2a565b5b828201905092915050565b7f4c5020746f6b656e20616464726573732068617320616c72656164792062656560008201527f6e20736574000000000000000000000000000000000000000000000000000000602082015250565b600061227c602583611a45565b915061228782612220565b604082019050919050565b600060208201905081810360008301526122ab8161226f565b9050919050565b7f796f7520617265206e6f74207468652061646472657373207365747465720000600082015250565b60006122e8601e83611a45565b91506122f3826122b2565b602082019050919050565b60006020820190508181036000830152612317816122db565b905091905056fea2646970667358221220c979af62860ce08ea2185a401bc3cd8a8419d1352b944c574606c0528888d34664736f6c63430008090033",
  "linkReferences": {},
  "deployedLinkReferences": {}
}