{
  "_format": "hh-sol-artifact-1",
  "contractName": "DexV1",
  "sourceName": "contracts/DexV1.sol",
  "abi": [
    {
      "inputs": [
        {
          "internalType": "address",
          "name": "yeahTokenAddress",
          "type": "address"
        }
      ],
      "stateMutability": "nonpayable",
      "type": "constructor"
    },
    {
      "inputs": [],
      "name": "deposit",
      "outputs": [
        {
          "internalType": "uint256",
          "name": "",
          "type": "uint256"
        }
      ],
      "stateMutability": "payable",
      "type": "function"
    },
    {
      "inputs": [],
      "name": "ethRes",
      "outputs": [
        {
          "internalType": "uint256",
          "name": "",
          "type": "uint256"
        }
      ],
      "stateMutability": "view",
      "type": "function"
    },
    {
      "inputs": [],
      "name": "ethToToken",
      "outputs": [
        {
          "internalType": "uint256",
          "name": "",
          "type": "uint256"
        }
      ],
      "stateMutability": "payable",
      "type": "function"
    },
    {
      "inputs": [
        {
          "internalType": "uint256",
          "name": "msgValue",
          "type": "uint256"
        }
      ],
      "name": "ethToTokenView",
      "outputs": [
        {
          "internalType": "uint256",
          "name": "",
          "type": "uint256"
        }
      ],
      "stateMutability": "view",
      "type": "function"
    },
    {
      "inputs": [],
      "name": "getLiquidity",
      "outputs": [
        {
          "internalType": "uint256",
          "name": "",
          "type": "uint256"
        }
      ],
      "stateMutability": "view",
      "type": "function"
    },
    {
      "inputs": [
        {
          "internalType": "address",
          "name": "liquidityProvider",
          "type": "address"
        }
      ],
      "name": "getLiquidityProvided",
      "outputs": [
        {
          "internalType": "uint256",
          "name": "",
          "type": "uint256"
        }
      ],
      "stateMutability": "view",
      "type": "function"
    },
    {
      "inputs": [],
      "name": "getTokenReserves",
      "outputs": [
        {
          "internalType": "uint256",
          "name": "",
          "type": "uint256"
        }
      ],
      "stateMutability": "view",
      "type": "function"
    },
    {
      "inputs": [],
      "name": "getTotalLiquidity",
      "outputs": [
        {
          "internalType": "uint256",
          "name": "",
          "type": "uint256"
        }
      ],
      "stateMutability": "view",
      "type": "function"
    },
    {
      "inputs": [
        {
          "internalType": "uint256",
          "name": "tokens",
          "type": "uint256"
        }
      ],
      "name": "init",
      "outputs": [
        {
          "internalType": "uint256",
          "name": "",
          "type": "uint256"
        }
      ],
      "stateMutability": "payable",
      "type": "function"
    },
    {
      "inputs": [
        {
          "internalType": "address",
          "name": "",
          "type": "address"
        }
      ],
      "name": "liquidityProvided",
      "outputs": [
        {
          "internalType": "uint256",
          "name": "",
          "type": "uint256"
        }
      ],
      "stateMutability": "view",
      "type": "function"
    },
    {
      "inputs": [],
      "name": "msgVal",
      "outputs": [
        {
          "internalType": "uint256",
          "name": "",
          "type": "uint256"
        }
      ],
      "stateMutability": "view",
      "type": "function"
    },
    {
      "inputs": [],
      "name": "tokenAmount",
      "outputs": [
        {
          "internalType": "uint256",
          "name": "",
          "type": "uint256"
        }
      ],
      "stateMutability": "view",
      "type": "function"
    },
    {
      "inputs": [],
      "name": "tokenRes",
      "outputs": [
        {
          "internalType": "uint256",
          "name": "",
          "type": "uint256"
        }
      ],
      "stateMutability": "view",
      "type": "function"
    },
    {
      "inputs": [
        {
          "internalType": "uint256",
          "name": "tokens",
          "type": "uint256"
        }
      ],
      "name": "tokenToEth",
      "outputs": [
        {
          "internalType": "uint256",
          "name": "",
          "type": "uint256"
        }
      ],
      "stateMutability": "payable",
      "type": "function"
    },
    {
      "inputs": [
        {
          "internalType": "uint256",
          "name": "tokens",
          "type": "uint256"
        }
      ],
      "name": "tokenToEthView",
      "outputs": [
        {
          "internalType": "uint256",
          "name": "",
          "type": "uint256"
        }
      ],
      "stateMutability": "view",
      "type": "function"
    },
    {
      "inputs": [],
      "name": "totalLiquidity",
      "outputs": [
        {
          "internalType": "uint256",
          "name": "",
          "type": "uint256"
        }
      ],
      "stateMutability": "view",
      "type": "function"
    },
    {
      "inputs": [
        {
          "internalType": "uint256",
          "name": "amount",
          "type": "uint256"
        }
      ],
      "name": "withdraw",
      "outputs": [
        {
          "internalType": "uint256",
          "name": "",
          "type": "uint256"
        },
        {
          "internalType": "uint256",
          "name": "",
          "type": "uint256"
        }
      ],
      "stateMutability": "nonpayable",
      "type": "function"
    }
  ],
  "bytecode": "0x60806040523480156200001157600080fd5b5060405162001a8638038062001a86833981810160405281019062000037919062000095565b806000806101000a81548173ffffffffffffffffffffffffffffffffffffffff021916908373ffffffffffffffffffffffffffffffffffffffff160217905550506200010f565b6000815190506200008f81620000f5565b92915050565b600060208284031215620000a857600080fd5b6000620000b8848285016200007e565b91505092915050565b6000620000ce82620000d5565b9050919050565b600073ffffffffffffffffffffffffffffffffffffffff82169050919050565b6200010081620000c1565b81146200010c57600080fd5b50565b611967806200011f6000396000f3fe6080604052600436106100fe5760003560e01c806370b2a30f11610095578063b7b0422d11610064578063b7b0422d1461035a578063b9cf50051461038a578063d0e30db0146103b5578063ea915f91146103d3578063eec7faa1146103fe576100fe565b806370b2a30f14610292578063789770f4146102c257806380c1443b146102e057806386e35a9a1461031d576100fe565b80632e1a7d4d116100d15780632e1a7d4d146101c157806335c7e925146101ff5780634099cfc21461022a57806365119f7214610255576100fe565b80630910a510146101035780630ea229181461012e57806315770f92146101595780631e2bc32114610184575b600080fd5b34801561010f57600080fd5b50610118610429565b60405161012591906116d1565b60405180910390f35b34801561013a57600080fd5b50610143610431565b60405161015091906116d1565b60405180910390f35b34801561016557600080fd5b5061016e610437565b60405161017b91906116d1565b60405180910390f35b34801561019057600080fd5b506101ab60048036038101906101a6919061135f565b61043d565b6040516101b891906116d1565b60405180910390f35b3480156101cd57600080fd5b506101e860048036038101906101e391906113b1565b610507565b6040516101f69291906116ec565b60405180910390f35b34801561020b57600080fd5b506102146107bb565b60405161022191906116d1565b60405180910390f35b34801561023657600080fd5b5061023f6107c5565b60405161024c91906116d1565b60405180910390f35b34801561026157600080fd5b5061027c6004803603810190610277919061135f565b6107cb565b60405161028991906116d1565b60405180910390f35b6102ac60048036038101906102a791906113b1565b6107e3565b6040516102b991906116d1565b60405180910390f35b6102ca610a45565b6040516102d791906116d1565b60405180910390f35b3480156102ec57600080fd5b50610307600480360381019061030291906113b1565b610c08565b60405161031491906116d1565b60405180910390f35b34801561032957600080fd5b50610344600480360381019061033f91906113b1565b610ccf565b60405161035191906116d1565b60405180910390f35b610374600480360381019061036f91906113b1565b610d96565b60405161038191906116d1565b60405180910390f35b34801561039657600080fd5b5061039f610eeb565b6040516103ac91906116d1565b60405180910390f35b6103bd610f9c565b6040516103ca91906116d1565b60405180910390f35b3480156103df57600080fd5b506103e8611249565b6040516103f591906116d1565b60405180910390f35b34801561040a57600080fd5b5061041361124f565b60405161042091906116d1565b60405180910390f35b600047905090565b60055481565b60015481565b600080600260008473ffffffffffffffffffffffffffffffffffffffff1673ffffffffffffffffffffffffffffffffffffffff16815260200190815260200160002054116104c0576040517f08c379a00000000000000000000000000000000000000000000000000000000081526004016104b790611631565b60405180910390fd5b600260008373ffffffffffffffffffffffffffffffffffffffff1673ffffffffffffffffffffffffffffffffffffffff168152602001908152602001600020549050919050565b60008060008060009054906101000a900473ffffffffffffffffffffffffffffffffffffffff1673ffffffffffffffffffffffffffffffffffffffff166370a08231306040518263ffffffff1660e01b815260040161056691906115b6565b60206040518083038186803b15801561057e57600080fd5b505afa158015610592573d6000803e3d6000fd5b505050506040513d601f19601f820116820180604052508101906105b691906113da565b905060006001546105d0478761125590919063ffffffff16565b6105da9190611787565b905060006001546105f4848861125590919063ffffffff16565b6105fe9190611787565b905061065282600260003373ffffffffffffffffffffffffffffffffffffffff1673ffffffffffffffffffffffffffffffffffffffff1681526020019081526020016000205461126b90919063ffffffff16565b600260003373ffffffffffffffffffffffffffffffffffffffff1673ffffffffffffffffffffffffffffffffffffffff168152602001908152602001600020819055506106aa8260015461126b90919063ffffffff16565b6001819055503373ffffffffffffffffffffffffffffffffffffffff166108fc839081150290604051600060405180830381858888f193505050501580156106f6573d6000803e3d6000fd5b5060008054906101000a900473ffffffffffffffffffffffffffffffffffffffff1673ffffffffffffffffffffffffffffffffffffffff1663a9059cbb33836040518363ffffffff1660e01b8152600401610752929190611608565b602060405180830381600087803b15801561076c57600080fd5b505af1158015610780573d6000803e3d6000fd5b505050506040513d601f19601f820116820180604052508101906107a49190611388565b6107ad57600080fd5b818194509450505050915091565b6000600154905090565b60035481565b60026020528060005260406000206000915090505481565b60008060008054906101000a900473ffffffffffffffffffffffffffffffffffffffff1673ffffffffffffffffffffffffffffffffffffffff166370a08231306040518263ffffffff1660e01b815260040161083f91906115b6565b60206040518083038186803b15801561085757600080fd5b505afa15801561086b573d6000803e3d6000fd5b505050506040513d601f19601f8201168201806040525081019061088f91906113da565b9050600061089e848347611281565b905060008054906101000a900473ffffffffffffffffffffffffffffffffffffffff1673ffffffffffffffffffffffffffffffffffffffff166323b872dd3330876040518463ffffffff1660e01b81526004016108fd939291906115d1565b602060405180830381600087803b15801561091757600080fd5b505af115801561092b573d6000803e3d6000fd5b505050506040513d601f19601f8201168201806040525081019061094f9190611388565b61098e576040517f08c379a000000000000000000000000000000000000000000000000000000000815260040161098590611651565b60405180910390fd5b60003373ffffffffffffffffffffffffffffffffffffffff16826040516109b4906115a1565b60006040518083038185875af1925050503d80600081146109f1576040519150601f19603f3d011682016040523d82523d6000602084013e6109f6565b606091505b5050905080610a3a576040517f08c379a0000000000000000000000000000000000000000000000000000000008152600401610a3190611691565b60405180910390fd5b819350505050919050565b60008060008054906101000a900473ffffffffffffffffffffffffffffffffffffffff1673ffffffffffffffffffffffffffffffffffffffff166370a08231306040518263ffffffff1660e01b8152600401610aa191906115b6565b60206040518083038186803b158015610ab957600080fd5b505afa158015610acd573d6000803e3d6000fd5b505050506040513d601f19601f82011682018060405250810190610af191906113da565b90506000610b1234610b0c344761126b90919063ffffffff16565b84611281565b905060008054906101000a900473ffffffffffffffffffffffffffffffffffffffff1673ffffffffffffffffffffffffffffffffffffffff1663a9059cbb33836040518363ffffffff1660e01b8152600401610b6f929190611608565b602060405180830381600087803b158015610b8957600080fd5b505af1158015610b9d573d6000803e3d6000fd5b505050506040513d601f19601f82011682018060405250810190610bc19190611388565b610c00576040517f08c379a0000000000000000000000000000000000000000000000000000000008152600401610bf7906116b1565b60405180910390fd5b809250505090565b60008060008054906101000a900473ffffffffffffffffffffffffffffffffffffffff1673ffffffffffffffffffffffffffffffffffffffff166370a08231306040518263ffffffff1660e01b8152600401610c6491906115b6565b60206040518083038186803b158015610c7c57600080fd5b505afa158015610c90573d6000803e3d6000fd5b505050506040513d601f19601f82011682018060405250810190610cb491906113da565b90506000610cc3844784611281565b90508092505050919050565b60008060008054906101000a900473ffffffffffffffffffffffffffffffffffffffff1673ffffffffffffffffffffffffffffffffffffffff166370a08231306040518263ffffffff1660e01b8152600401610d2b91906115b6565b60206040518083038186803b158015610d4357600080fd5b505afa158015610d57573d6000803e3d6000fd5b505050506040513d601f19601f82011682018060405250810190610d7b91906113da565b90506000610d8a848347611281565b90508092505050919050565b60008060015414610ddc576040517f08c379a0000000000000000000000000000000000000000000000000000000008152600401610dd390611671565b60405180910390fd5b47600181905550600154600260003373ffffffffffffffffffffffffffffffffffffffff1673ffffffffffffffffffffffffffffffffffffffff1681526020019081526020016000208190555060008054906101000a900473ffffffffffffffffffffffffffffffffffffffff1673ffffffffffffffffffffffffffffffffffffffff166323b872dd3330856040518463ffffffff1660e01b8152600401610e86939291906115d1565b602060405180830381600087803b158015610ea057600080fd5b505af1158015610eb4573d6000803e3d6000fd5b505050506040513d601f19601f82011682018060405250810190610ed89190611388565b610ee157600080fd5b6001549050919050565b60008060009054906101000a900473ffffffffffffffffffffffffffffffffffffffff1673ffffffffffffffffffffffffffffffffffffffff166370a08231306040518263ffffffff1660e01b8152600401610f4791906115b6565b60206040518083038186803b158015610f5f57600080fd5b505afa158015610f73573d6000803e3d6000fd5b505050506040513d601f19601f82011682018060405250810190610f9791906113da565b905090565b600080610fb2344761126b90919063ffffffff16565b90508060038190555060008060009054906101000a900473ffffffffffffffffffffffffffffffffffffffff1673ffffffffffffffffffffffffffffffffffffffff166370a08231306040518263ffffffff1660e01b815260040161101791906115b6565b60206040518083038186803b15801561102f57600080fd5b505afa158015611043573d6000803e3d6000fd5b505050506040513d601f19601f8201168201806040525081019061106791906113da565b90508060048190555060006110a360018461108b853461125590919063ffffffff16565b6110959190611787565b6112f590919063ffffffff16565b905034600581905550806006819055506000836110cb6001543461125590919063ffffffff16565b6110d59190611787565b905061112981600260003373ffffffffffffffffffffffffffffffffffffffff1673ffffffffffffffffffffffffffffffffffffffff168152602001908152602001600020546112f590919063ffffffff16565b600260003373ffffffffffffffffffffffffffffffffffffffff1673ffffffffffffffffffffffffffffffffffffffff16815260200190815260200160002081905550611181816001546112f590919063ffffffff16565b60018190555060008054906101000a900473ffffffffffffffffffffffffffffffffffffffff1673ffffffffffffffffffffffffffffffffffffffff166323b872dd3330856040518463ffffffff1660e01b81526004016111e4939291906115d1565b602060405180830381600087803b1580156111fe57600080fd5b505af1158015611212573d6000803e3d6000fd5b505050506040513d601f19601f820116820180604052508101906112369190611388565b61123f57600080fd5b8094505050505090565b60045481565b60065481565b6000818361126391906117b8565b905092915050565b600081836112799190611812565b905092915050565b6000806112996103e58661125590919063ffffffff16565b905060006112b0828561125590919063ffffffff16565b905060006112db836112cd6103e88961125590919063ffffffff16565b6112f590919063ffffffff16565b905080826112e99190611787565b93505050509392505050565b600081836113039190611731565b905092915050565b60008135905061131a816118ec565b92915050565b60008151905061132f81611903565b92915050565b6000813590506113448161191a565b92915050565b6000815190506113598161191a565b92915050565b60006020828403121561137157600080fd5b600061137f8482850161130b565b91505092915050565b60006020828403121561139a57600080fd5b60006113a884828501611320565b91505092915050565b6000602082840312156113c357600080fd5b60006113d184828501611335565b91505092915050565b6000602082840312156113ec57600080fd5b60006113fa8482850161134a565b91505092915050565b61140c81611846565b82525050565b600061141f602f83611720565b91507f6164647265737320686173206e6f742070726f7669646564206c69717569646960008301527f747920746f207468697320706f6f6c00000000000000000000000000000000006020830152604082019050919050565b6000611485601983611720565b91507f6661696c656420746f207472616e7366657220746f6b656e73000000000000006000830152602082019050919050565b60006114c5602083611720565b91507f6465782068617320616c7265616479206265656e20696e697469616c697a65646000830152602082019050919050565b6000611505601283611720565b91507f6661696c656420746f2073656e642045544800000000000000000000000000006000830152602082019050919050565b6000611545600083611715565b9150600082019050919050565b600061155f601683611720565b91507f6661696c656420746f207472616e7366657220455448000000000000000000006000830152602082019050919050565b61159b81611884565b82525050565b60006115ac82611538565b9150819050919050565b60006020820190506115cb6000830184611403565b92915050565b60006060820190506115e66000830186611403565b6115f36020830185611403565b6116006040830184611592565b949350505050565b600060408201905061161d6000830185611403565b61162a6020830184611592565b9392505050565b6000602082019050818103600083015261164a81611412565b9050919050565b6000602082019050818103600083015261166a81611478565b9050919050565b6000602082019050818103600083015261168a816114b8565b9050919050565b600060208201905081810360008301526116aa816114f8565b9050919050565b600060208201905081810360008301526116ca81611552565b9050919050565b60006020820190506116e66000830184611592565b92915050565b60006040820190506117016000830185611592565b61170e6020830184611592565b9392505050565b600081905092915050565b600082825260208201905092915050565b600061173c82611884565b915061174783611884565b9250827fffffffffffffffffffffffffffffffffffffffffffffffffffffffffffffffff0382111561177c5761177b61188e565b5b828201905092915050565b600061179282611884565b915061179d83611884565b9250826117ad576117ac6118bd565b5b828204905092915050565b60006117c382611884565b91506117ce83611884565b9250817fffffffffffffffffffffffffffffffffffffffffffffffffffffffffffffffff04831182151516156118075761180661188e565b5b828202905092915050565b600061181d82611884565b915061182883611884565b92508282101561183b5761183a61188e565b5b828203905092915050565b600061185182611864565b9050919050565b60008115159050919050565b600073ffffffffffffffffffffffffffffffffffffffff82169050919050565b6000819050919050565b7f4e487b7100000000000000000000000000000000000000000000000000000000600052601160045260246000fd5b7f4e487b7100000000000000000000000000000000000000000000000000000000600052601260045260246000fd5b6118f581611846565b811461190057600080fd5b50565b61190c81611858565b811461191757600080fd5b50565b61192381611884565b811461192e57600080fd5b5056fea26469706673582212206989116a2ba68c6a40d6b087d8681c4f7b922e6fd4f38278f360a89f86b1bde164736f6c63430008000033",
  "linkReferences": {},
  "deployedLinkReferences": {}
}