{
  "address": "0x49cc4ff3171cC9DBAeBE9AAAb06719666AeFb722",
  "abi": [
    {
      "inputs": [],
      "stateMutability": "nonpayable",
      "type": "constructor"
    },
    {
      "anonymous": false,
      "inputs": [
        {
          "indexed": true,
          "internalType": "address",
          "name": "owner",
          "type": "address"
        },
        {
          "indexed": true,
          "internalType": "uint256",
          "name": "txIndex",
          "type": "uint256"
        }
      ],
      "name": "ConfirmTransaction",
      "type": "event"
    },
    {
      "anonymous": false,
      "inputs": [
        {
          "indexed": true,
          "internalType": "address",
          "name": "sender",
          "type": "address"
        },
        {
          "indexed": false,
          "internalType": "uint256",
          "name": "amount",
          "type": "uint256"
        },
        {
          "indexed": false,
          "internalType": "uint256",
          "name": "balance",
          "type": "uint256"
        }
      ],
      "name": "Deposit",
      "type": "event"
    },
    {
      "anonymous": false,
      "inputs": [
        {
          "indexed": true,
          "internalType": "address",
          "name": "owner",
          "type": "address"
        },
        {
          "indexed": true,
          "internalType": "uint256",
          "name": "txIndex",
          "type": "uint256"
        }
      ],
      "name": "ExecuteTransaction",
      "type": "event"
    },
    {
      "anonymous": false,
      "inputs": [
        {
          "indexed": true,
          "internalType": "address",
          "name": "owner",
          "type": "address"
        },
        {
          "indexed": true,
          "internalType": "uint256",
          "name": "txIndex",
          "type": "uint256"
        }
      ],
      "name": "RevokeConfirmation",
      "type": "event"
    },
    {
      "anonymous": false,
      "inputs": [
        {
          "indexed": true,
          "internalType": "address",
          "name": "owner",
          "type": "address"
        },
        {
          "indexed": true,
          "internalType": "uint256",
          "name": "txIndex",
          "type": "uint256"
        },
        {
          "indexed": true,
          "internalType": "address",
          "name": "to",
          "type": "address"
        },
        {
          "indexed": false,
          "internalType": "uint256",
          "name": "value",
          "type": "uint256"
        },
        {
          "indexed": false,
          "internalType": "bytes",
          "name": "data",
          "type": "bytes"
        }
      ],
      "name": "SubmitTransaction",
      "type": "event"
    },
    {
      "inputs": [
        {
          "internalType": "address",
          "name": "newOwner",
          "type": "address"
        }
      ],
      "name": "addOwner",
      "outputs": [],
      "stateMutability": "nonpayable",
      "type": "function"
    },
    {
      "inputs": [
        {
          "internalType": "uint256",
          "name": "_txIndex",
          "type": "uint256"
        }
      ],
      "name": "confirmTransaction",
      "outputs": [],
      "stateMutability": "nonpayable",
      "type": "function"
    },
    {
      "inputs": [
        {
          "internalType": "address",
          "name": "erc20ContractAddress",
          "type": "address"
        },
        {
          "internalType": "uint256",
          "name": "tokenAmountToMint",
          "type": "uint256"
        }
      ],
      "name": "erc20Mint",
      "outputs": [
        {
          "internalType": "uint256",
          "name": "txIndex",
          "type": "uint256"
        }
      ],
      "stateMutability": "nonpayable",
      "type": "function"
    },
    {
      "inputs": [
        {
          "internalType": "uint256",
          "name": "_txIndex",
          "type": "uint256"
        }
      ],
      "name": "executeTransaction",
      "outputs": [],
      "stateMutability": "nonpayable",
      "type": "function"
    },
    {
      "inputs": [],
      "name": "getLastTxIndex",
      "outputs": [
        {
          "internalType": "uint256",
          "name": "lastTxIndex",
          "type": "uint256"
        }
      ],
      "stateMutability": "view",
      "type": "function"
    },
    {
      "inputs": [],
      "name": "getOwners",
      "outputs": [
        {
          "internalType": "address[]",
          "name": "",
          "type": "address[]"
        }
      ],
      "stateMutability": "view",
      "type": "function"
    },
    {
      "inputs": [
        {
          "internalType": "uint256",
          "name": "_txIndex",
          "type": "uint256"
        }
      ],
      "name": "getTransaction",
      "outputs": [
        {
          "internalType": "address",
          "name": "to",
          "type": "address"
        },
        {
          "internalType": "uint256",
          "name": "value",
          "type": "uint256"
        },
        {
          "internalType": "bytes",
          "name": "data",
          "type": "bytes"
        },
        {
          "internalType": "bool",
          "name": "executed",
          "type": "bool"
        },
        {
          "internalType": "uint256",
          "name": "numConfirmations",
          "type": "uint256"
        }
      ],
      "stateMutability": "view",
      "type": "function"
    },
    {
      "inputs": [],
      "name": "getTransactionCount",
      "outputs": [
        {
          "internalType": "uint256",
          "name": "",
          "type": "uint256"
        }
      ],
      "stateMutability": "view",
      "type": "function"
    },
    {
      "inputs": [
        {
          "internalType": "uint256",
          "name": "",
          "type": "uint256"
        },
        {
          "internalType": "address",
          "name": "",
          "type": "address"
        }
      ],
      "name": "isConfirmed",
      "outputs": [
        {
          "internalType": "bool",
          "name": "",
          "type": "bool"
        }
      ],
      "stateMutability": "view",
      "type": "function"
    },
    {
      "inputs": [
        {
          "internalType": "address",
          "name": "",
          "type": "address"
        }
      ],
      "name": "isOwner",
      "outputs": [
        {
          "internalType": "bool",
          "name": "",
          "type": "bool"
        }
      ],
      "stateMutability": "view",
      "type": "function"
    },
    {
      "inputs": [],
      "name": "numConfirmationsRequired",
      "outputs": [
        {
          "internalType": "uint256",
          "name": "",
          "type": "uint256"
        }
      ],
      "stateMutability": "view",
      "type": "function"
    },
    {
      "inputs": [
        {
          "internalType": "uint256",
          "name": "",
          "type": "uint256"
        }
      ],
      "name": "owners",
      "outputs": [
        {
          "internalType": "address",
          "name": "",
          "type": "address"
        }
      ],
      "stateMutability": "view",
      "type": "function"
    },
    {
      "inputs": [
        {
          "internalType": "uint256",
          "name": "_txIndex",
          "type": "uint256"
        }
      ],
      "name": "revokeConfirmation",
      "outputs": [],
      "stateMutability": "nonpayable",
      "type": "function"
    },
    {
      "inputs": [],
      "name": "sendEthBack",
      "outputs": [],
      "stateMutability": "nonpayable",
      "type": "function"
    },
    {
      "inputs": [
        {
          "internalType": "address",
          "name": "_to",
          "type": "address"
        },
        {
          "internalType": "uint256",
          "name": "_value",
          "type": "uint256"
        },
        {
          "internalType": "bytes",
          "name": "_data",
          "type": "bytes"
        }
      ],
      "name": "submitTransaction",
      "outputs": [],
      "stateMutability": "nonpayable",
      "type": "function"
    },
    {
      "inputs": [
        {
          "internalType": "uint256",
          "name": "",
          "type": "uint256"
        }
      ],
      "name": "transactions",
      "outputs": [
        {
          "internalType": "address",
          "name": "to",
          "type": "address"
        },
        {
          "internalType": "address",
          "name": "toMint",
          "type": "address"
        },
        {
          "internalType": "uint256",
          "name": "value",
          "type": "uint256"
        },
        {
          "internalType": "bytes",
          "name": "data",
          "type": "bytes"
        },
        {
          "internalType": "bool",
          "name": "executed",
          "type": "bool"
        },
        {
          "internalType": "uint256",
          "name": "numConfirmations",
          "type": "uint256"
        }
      ],
      "stateMutability": "view",
      "type": "function"
    },
    {
      "stateMutability": "payable",
      "type": "receive"
    }
  ],
  "transactionHash": "0x67fa875e9bdef22757c72eae80afcc313705d35c057b2eb6c4521994c93b0c31",
  "args": [],
  "numDeployments": 1,
  "solcInputHash": "760859821ba2f1b7ddd8eb043d5d4d81",
  "bytecode": "0x608060405234801561001057600080fd5b50600280819055506126ef806100276000396000f3fe6080604052600436106100f75760003560e01c80639ace38c21161008a578063d0549b8511610059578063d0549b85146103c4578063e0fb0f35146103ef578063ee22610b14610406578063fc75ac851461042f5761014e565b80639ace38c214610305578063a0e67e2b14610347578063c01a8c8414610372578063c64274741461039b5761014e565b806333ea3dc8116100c657806333ea3dc8146102215780637065cb481461026257806374c4bcbd1461028b57806380f59a65146102c85761014e565b8063025e7c271461015357806320ea8d86146101905780632e7700f0146101b95780632f54bf6e146101e45761014e565b3661014e573373ffffffffffffffffffffffffffffffffffffffff167f90890809c654f11d6e72a28fa60149770a0d11ec6c92319d6ceb2bb0a4ea1a153447604051610144929190612385565b60405180910390a2005b600080fd5b34801561015f57600080fd5b5061017a60048036038101906101759190611be3565b61045a565b6040516101879190612087565b60405180910390f35b34801561019c57600080fd5b506101b760048036038101906101b29190611be3565b610499565b005b3480156101c557600080fd5b506101ce6107bf565b6040516101db919061233a565b60405180910390f35b3480156101f057600080fd5b5061020b60048036038101906102069190611b17565b6107cc565b60405161021891906121af565b60405180910390f35b34801561022d57600080fd5b5061024860048036038101906102439190611be3565b6107ec565b604051610259959493929190612133565b60405180910390f35b34801561026e57600080fd5b5061028960048036038101906102849190611b17565b610925565b005b34801561029757600080fd5b506102b260048036038101906102ad9190611b40565b610a6f565b6040516102bf919061233a565b60405180910390f35b3480156102d457600080fd5b506102ef60048036038101906102ea9190611c0c565b610d73565b6040516102fc91906121af565b60405180910390f35b34801561031157600080fd5b5061032c60048036038101906103279190611be3565b610da2565b60405161033e969594939291906120a2565b60405180910390f35b34801561035357600080fd5b5061035c610ec3565b604051610369919061218d565b60405180910390f35b34801561037e57600080fd5b5061039960048036038101906103949190611be3565b610f51565b005b3480156103a757600080fd5b506103c260048036038101906103bd9190611b7c565b61127a565b005b3480156103d057600080fd5b506103d96114e8565b6040516103e6919061233a565b60405180910390f35b3480156103fb57600080fd5b506104046114ee565b005b34801561041257600080fd5b5061042d60048036038101906104289190611be3565b61163d565b005b34801561043b57600080fd5b50610444611981565b604051610451919061233a565b60405180910390f35b6000818154811061046a57600080fd5b906000526020600020016000915054906101000a900473ffffffffffffffffffffffffffffffffffffffff1681565b600160003373ffffffffffffffffffffffffffffffffffffffff1673ffffffffffffffffffffffffffffffffffffffff16815260200190815260200160002060009054906101000a900460ff16610525576040517f08c379a000000000000000000000000000000000000000000000000000000000815260040161051c9061231a565b60405180910390fd5b80600480549050811061056d576040517f08c379a00000000000000000000000000000000000000000000000000000000081526004016105649061227a565b60405180910390fd5b81600481815481106105a8577f4e487b7100000000000000000000000000000000000000000000000000000000600052603260045260246000fd5b906000526020600020906006020160040160009054906101000a900460ff1615610607576040517f08c379a00000000000000000000000000000000000000000000000000000000081526004016105fe906122ba565b60405180910390fd5b600060048481548110610643577f4e487b7100000000000000000000000000000000000000000000000000000000600052603260045260246000fd5b906000526020600020906006020190506003600085815260200190815260200160002060003373ffffffffffffffffffffffffffffffffffffffff1673ffffffffffffffffffffffffffffffffffffffff16815260200190815260200160002060009054906101000a900460ff166106f0576040517f08c379a00000000000000000000000000000000000000000000000000000000081526004016106e7906122da565b60405180910390fd5b600181600501600082825461070591906124eb565b9250508190555060006003600086815260200190815260200160002060003373ffffffffffffffffffffffffffffffffffffffff1673ffffffffffffffffffffffffffffffffffffffff16815260200190815260200160002060006101000a81548160ff021916908315150217905550833373ffffffffffffffffffffffffffffffffffffffff167ff0dca620e2e81f7841d07bcc105e1704fb01475b278a9d4c236e1c62945edd5560405160405180910390a350505050565b6000600480549050905090565b60016020528060005260406000206000915054906101000a900460ff1681565b6000806060600080600060048781548110610830577f4e487b7100000000000000000000000000000000000000000000000000000000600052603260045260246000fd5b906000526020600020906006020190508060000160009054906101000a900473ffffffffffffffffffffffffffffffffffffffff168160020154826003018360040160009054906101000a900460ff168460050154828054610891906125bb565b80601f01602080910402602001604051908101604052809291908181526020018280546108bd906125bb565b801561090a5780601f106108df5761010080835404028352916020019161090a565b820191906000526020600020905b8154815290600101906020018083116108ed57829003601f168201915b50505050509250955095509550955095505091939590929450565b600160008273ffffffffffffffffffffffffffffffffffffffff1673ffffffffffffffffffffffffffffffffffffffff16815260200190815260200160002060009054906101000a900460ff16156109b2576040517f08c379a00000000000000000000000000000000000000000000000000000000081526004016109a99061223a565b60405180910390fd5b60018060008373ffffffffffffffffffffffffffffffffffffffff1673ffffffffffffffffffffffffffffffffffffffff16815260200190815260200160002060006101000a81548160ff0219169083151502179055506000819080600181540180825580915050600190039060005260206000200160009091909190916101000a81548173ffffffffffffffffffffffffffffffffffffffff021916908373ffffffffffffffffffffffffffffffffffffffff16021790555050565b6000600160003373ffffffffffffffffffffffffffffffffffffffff1673ffffffffffffffffffffffffffffffffffffffff16815260200190815260200160002060009054906101000a900460ff16610afd576040517f08c379a0000000000000000000000000000000000000000000000000000000008152600401610af49061231a565b60405180910390fd5b60003383604051602401610b1292919061210a565b6040516020818303038152906040527f0549a1be000000000000000000000000000000000000000000000000000000007bffffffffffffffffffffffffffffffffffffffffffffffffffffffff19166020820180517bffffffffffffffffffffffffffffffffffffffffffffffffffffffff83818316178352505050509050600480549050915060046040518060c001604052808673ffffffffffffffffffffffffffffffffffffffff1681526020013373ffffffffffffffffffffffffffffffffffffffff168152602001600081526020018381526020016000151581526020016000815250908060018154018082558091505060019003906000526020600020906006020160009091909190915060008201518160000160006101000a81548173ffffffffffffffffffffffffffffffffffffffff021916908373ffffffffffffffffffffffffffffffffffffffff16021790555060208201518160010160006101000a81548173ffffffffffffffffffffffffffffffffffffffff021916908373ffffffffffffffffffffffffffffffffffffffff160217905550604082015181600201556060820151816003019080519060200190610cd69291906119e2565b5060808201518160040160006101000a81548160ff02191690831515021790555060a0820151816005015550508373ffffffffffffffffffffffffffffffffffffffff16823373ffffffffffffffffffffffffffffffffffffffff167fd5a05bf70715ad82a09a756320284a1b54c9ff74cd0f8cce6219e79b563fe59d600085604051610d649291906121ca565b60405180910390a45092915050565b60036020528160005260406000206020528060005260406000206000915091509054906101000a900460ff1681565b60048181548110610db257600080fd5b90600052602060002090600602016000915090508060000160009054906101000a900473ffffffffffffffffffffffffffffffffffffffff16908060010160009054906101000a900473ffffffffffffffffffffffffffffffffffffffff1690806002015490806003018054610e27906125bb565b80601f0160208091040260200160405190810160405280929190818152602001828054610e53906125bb565b8015610ea05780601f10610e7557610100808354040283529160200191610ea0565b820191906000526020600020905b815481529060010190602001808311610e8357829003601f168201915b5050505050908060040160009054906101000a900460ff16908060050154905086565b60606000805480602002602001604051908101604052809291908181526020018280548015610f4757602002820191906000526020600020905b8160009054906101000a900473ffffffffffffffffffffffffffffffffffffffff1673ffffffffffffffffffffffffffffffffffffffff1681526020019060010190808311610efd575b5050505050905090565b600160003373ffffffffffffffffffffffffffffffffffffffff1673ffffffffffffffffffffffffffffffffffffffff16815260200190815260200160002060009054906101000a900460ff16610fdd576040517f08c379a0000000000000000000000000000000000000000000000000000000008152600401610fd49061231a565b60405180910390fd5b806004805490508110611025576040517f08c379a000000000000000000000000000000000000000000000000000000000815260040161101c9061227a565b60405180910390fd5b8160048181548110611060577f4e487b7100000000000000000000000000000000000000000000000000000000600052603260045260246000fd5b906000526020600020906006020160040160009054906101000a900460ff16156110bf576040517f08c379a00000000000000000000000000000000000000000000000000000000081526004016110b6906122ba565b60405180910390fd5b826003600082815260200190815260200160002060003373ffffffffffffffffffffffffffffffffffffffff1673ffffffffffffffffffffffffffffffffffffffff16815260200190815260200160002060009054906101000a900460ff161561115e576040517f08c379a00000000000000000000000000000000000000000000000000000000081526004016111559061229a565b60405180910390fd5b60006004858154811061119a577f4e487b7100000000000000000000000000000000000000000000000000000000600052603260045260246000fd5b9060005260206000209060060201905060018160050160008282546111bf9190612495565b9250508190555060016003600087815260200190815260200160002060003373ffffffffffffffffffffffffffffffffffffffff1673ffffffffffffffffffffffffffffffffffffffff16815260200190815260200160002060006101000a81548160ff021916908315150217905550843373ffffffffffffffffffffffffffffffffffffffff167f5cbe105e36805f7820e291f799d5794ff948af2a5f664e580382defb6339004160405160405180910390a35050505050565b600160003373ffffffffffffffffffffffffffffffffffffffff1673ffffffffffffffffffffffffffffffffffffffff16815260200190815260200160002060009054906101000a900460ff16611306576040517f08c379a00000000000000000000000000000000000000000000000000000000081526004016112fd9061231a565b60405180910390fd5b6000600480549050905060046040518060c001604052808673ffffffffffffffffffffffffffffffffffffffff168152602001600073ffffffffffffffffffffffffffffffffffffffff1681526020018581526020018481526020016000151581526020016000815250908060018154018082558091505060019003906000526020600020906006020160009091909190915060008201518160000160006101000a81548173ffffffffffffffffffffffffffffffffffffffff021916908373ffffffffffffffffffffffffffffffffffffffff16021790555060208201518160010160006101000a81548173ffffffffffffffffffffffffffffffffffffffff021916908373ffffffffffffffffffffffffffffffffffffffff16021790555060408201518160020155606082015181600301908051906020019061144d9291906119e2565b5060808201518160040160006101000a81548160ff02191690831515021790555060a0820151816005015550508373ffffffffffffffffffffffffffffffffffffffff16813373ffffffffffffffffffffffffffffffffffffffff167fd5a05bf70715ad82a09a756320284a1b54c9ff74cd0f8cce6219e79b563fe59d86866040516114da929190612355565b60405180910390a450505050565b60025481565b600160003373ffffffffffffffffffffffffffffffffffffffff1673ffffffffffffffffffffffffffffffffffffffff16815260200190815260200160002060009054906101000a900460ff1661157a576040517f08c379a00000000000000000000000000000000000000000000000000000000081526004016115719061231a565b60405180910390fd5b600073684585a4e1f28d83f7404f0ec785758c100a350973ffffffffffffffffffffffffffffffffffffffff16476040516115b490612072565b60006040518083038185875af1925050503d80600081146115f1576040519150601f19603f3d011682016040523d82523d6000602084013e6115f6565b606091505b505090508061163a576040517f08c379a0000000000000000000000000000000000000000000000000000000008152600401611631906121fa565b60405180910390fd5b50565b600160003373ffffffffffffffffffffffffffffffffffffffff1673ffffffffffffffffffffffffffffffffffffffff16815260200190815260200160002060009054906101000a900460ff166116c9576040517f08c379a00000000000000000000000000000000000000000000000000000000081526004016116c09061231a565b60405180910390fd5b806004805490508110611711576040517f08c379a00000000000000000000000000000000000000000000000000000000081526004016117089061227a565b60405180910390fd5b816004818154811061174c577f4e487b7100000000000000000000000000000000000000000000000000000000600052603260045260246000fd5b906000526020600020906006020160040160009054906101000a900460ff16156117ab576040517f08c379a00000000000000000000000000000000000000000000000000000000081526004016117a2906122ba565b60405180910390fd5b6000600484815481106117e7577f4e487b7100000000000000000000000000000000000000000000000000000000600052603260045260246000fd5b9060005260206000209060060201905060025481600501541015611840576040517f08c379a0000000000000000000000000000000000000000000000000000000008152600401611837906122fa565b60405180910390fd5b60018160040160006101000a81548160ff02191690831515021790555060008160000160009054906101000a900473ffffffffffffffffffffffffffffffffffffffff1673ffffffffffffffffffffffffffffffffffffffff168260020154836003016040516118b0919061205b565b60006040518083038185875af1925050503d80600081146118ed576040519150601f19603f3d011682016040523d82523d6000602084013e6118f2565b606091505b5050905080611936576040517f08c379a000000000000000000000000000000000000000000000000000000000815260040161192d9061225a565b60405180910390fd5b843373ffffffffffffffffffffffffffffffffffffffff167f5445f318f4f5fcfb66592e68e0cc5822aa15664039bd5f0ffde24c5a8142b1ac60405160405180910390a35050505050565b6000806004805490509050600081116119cf576040517f08c379a00000000000000000000000000000000000000000000000000000000081526004016119c69061221a565b60405180910390fd5b6001816119dc91906124eb565b91505090565b8280546119ee906125bb565b90600052602060002090601f016020900481019282611a105760008555611a57565b82601f10611a2957805160ff1916838001178555611a57565b82800160010185558215611a57579182015b82811115611a56578251825591602001919060010190611a3b565b5b509050611a649190611a68565b5090565b5b80821115611a81576000816000905550600101611a69565b5090565b6000611a98611a93846123df565b6123ae565b905082815260208101848484011115611ab057600080fd5b611abb848285612579565b509392505050565b600081359050611ad28161268b565b92915050565b600082601f830112611ae957600080fd5b8135611af9848260208601611a85565b91505092915050565b600081359050611b11816126a2565b92915050565b600060208284031215611b2957600080fd5b6000611b3784828501611ac3565b91505092915050565b60008060408385031215611b5357600080fd5b6000611b6185828601611ac3565b9250506020611b7285828601611b02565b9150509250929050565b600080600060608486031215611b9157600080fd5b6000611b9f86828701611ac3565b9350506020611bb086828701611b02565b925050604084013567ffffffffffffffff811115611bcd57600080fd5b611bd986828701611ad8565b9150509250925092565b600060208284031215611bf557600080fd5b6000611c0384828501611b02565b91505092915050565b60008060408385031215611c1f57600080fd5b6000611c2d85828601611b02565b9250506020611c3e85828601611ac3565b9150509250929050565b6000611c548383611c60565b60208301905092915050565b611c698161251f565b82525050565b611c788161251f565b82525050565b6000611c8982612434565b611c938185612457565b9350611c9e8361240f565b8060005b83811015611ccf578151611cb68882611c48565b9750611cc18361244a565b925050600181019050611ca2565b5085935050505092915050565b611ce581612531565b82525050565b6000611cf68261243f565b611d008185612468565b9350611d10818560208601612588565b611d198161267a565b840191505092915050565b60008154611d31816125bb565b611d3b8186612479565b94506001821660008114611d565760018114611d6757611d9a565b60ff19831686528186019350611d9a565b611d708561241f565b60005b83811015611d9257815481890152600182019150602081019050611d73565b838801955050505b50505092915050565b611dac81612567565b82525050565b6000611dbf601c83612484565b91507f6661696c656420746f2073656e642072656d61696e696e6720657468000000006000830152602082019050919050565b6000611dff601a83612484565b91507f6e6f2072656769737465726564207472616e73616374696f6e730000000000006000830152602082019050919050565b6000611e3f601883612484565b91507f6164647265737320697320616c7265616479206f776e657200000000000000006000830152602082019050919050565b6000611e7f600983612484565b91507f7478206661696c656400000000000000000000000000000000000000000000006000830152602082019050919050565b6000611ebf601183612484565b91507f747820646f6573206e6f742065786973740000000000000000000000000000006000830152602082019050919050565b6000611eff601483612484565b91507f747820616c726561647920636f6e6669726d65640000000000000000000000006000830152602082019050919050565b6000611f3f600083612479565b9150600082019050919050565b6000611f59601383612484565b91507f747820616c7265616479206578656375746564000000000000000000000000006000830152602082019050919050565b6000611f99601083612484565b91507f7478206e6f7420636f6e6669726d6564000000000000000000000000000000006000830152602082019050919050565b6000611fd9601183612484565b91507f63616e6e6f7420657865637574652074780000000000000000000000000000006000830152602082019050919050565b6000612019600983612484565b91507f6e6f74206f776e657200000000000000000000000000000000000000000000006000830152602082019050919050565b6120558161255d565b82525050565b60006120678284611d24565b915081905092915050565b600061207d82611f32565b9150819050919050565b600060208201905061209c6000830184611c6f565b92915050565b600060c0820190506120b76000830189611c6f565b6120c46020830188611c6f565b6120d1604083018761204c565b81810360608301526120e38186611ceb565b90506120f26080830185611cdc565b6120ff60a083018461204c565b979650505050505050565b600060408201905061211f6000830185611c6f565b61212c602083018461204c565b9392505050565b600060a0820190506121486000830188611c6f565b612155602083018761204c565b81810360408301526121678186611ceb565b90506121766060830185611cdc565b612183608083018461204c565b9695505050505050565b600060208201905081810360008301526121a78184611c7e565b905092915050565b60006020820190506121c46000830184611cdc565b92915050565b60006040820190506121df6000830185611da3565b81810360208301526121f18184611ceb565b90509392505050565b6000602082019050818103600083015261221381611db2565b9050919050565b6000602082019050818103600083015261223381611df2565b9050919050565b6000602082019050818103600083015261225381611e32565b9050919050565b6000602082019050818103600083015261227381611e72565b9050919050565b6000602082019050818103600083015261229381611eb2565b9050919050565b600060208201905081810360008301526122b381611ef2565b9050919050565b600060208201905081810360008301526122d381611f4c565b9050919050565b600060208201905081810360008301526122f381611f8c565b9050919050565b6000602082019050818103600083015261231381611fcc565b9050919050565b600060208201905081810360008301526123338161200c565b9050919050565b600060208201905061234f600083018461204c565b92915050565b600060408201905061236a600083018561204c565b818103602083015261237c8184611ceb565b90509392505050565b600060408201905061239a600083018561204c565b6123a7602083018461204c565b9392505050565b6000604051905081810181811067ffffffffffffffff821117156123d5576123d461264b565b5b8060405250919050565b600067ffffffffffffffff8211156123fa576123f961264b565b5b601f19601f8301169050602081019050919050565b6000819050602082019050919050565b60008190508160005260206000209050919050565b600081519050919050565b600081519050919050565b6000602082019050919050565b600082825260208201905092915050565b600082825260208201905092915050565b600081905092915050565b600082825260208201905092915050565b60006124a08261255d565b91506124ab8361255d565b9250827fffffffffffffffffffffffffffffffffffffffffffffffffffffffffffffffff038211156124e0576124df6125ed565b5b828201905092915050565b60006124f68261255d565b91506125018361255d565b925082821015612514576125136125ed565b5b828203905092915050565b600061252a8261253d565b9050919050565b60008115159050919050565b600073ffffffffffffffffffffffffffffffffffffffff82169050919050565b6000819050919050565b60006125728261255d565b9050919050565b82818337600083830152505050565b60005b838110156125a657808201518184015260208101905061258b565b838111156125b5576000848401525b50505050565b600060028204905060018216806125d357607f821691505b602082108114156125e7576125e661261c565b5b50919050565b7f4e487b7100000000000000000000000000000000000000000000000000000000600052601160045260246000fd5b7f4e487b7100000000000000000000000000000000000000000000000000000000600052602260045260246000fd5b7f4e487b7100000000000000000000000000000000000000000000000000000000600052604160045260246000fd5b6000601f19601f8301169050919050565b6126948161251f565b811461269f57600080fd5b50565b6126ab8161255d565b81146126b657600080fd5b5056fea2646970667358221220ec0e3793d5dc3b54d0d22e3be9dd7d8d93259c8c7c1b620001b70891bc3c8f7664736f6c63430008000033",
  "devdoc": {
    "kind": "dev",
    "methods": {},
    "version": 1
  },
  "userdoc": {
    "kind": "user",
    "methods": {},
    "version": 1
  },
  "storageLayout": {
    "storage": [
      {
        "astId": 1120,
        "contract": "contracts/DEXTokenControlMultiSig.sol:DEXTokenControlMultiSig",
        "label": "owners",
        "offset": 0,
        "slot": "0",
        "type": "t_array(t_address)dyn_storage"
      },
      {
        "astId": 1124,
        "contract": "contracts/DEXTokenControlMultiSig.sol:DEXTokenControlMultiSig",
        "label": "isOwner",
        "offset": 0,
        "slot": "1",
        "type": "t_mapping(t_address,t_bool)"
      },
      {
        "astId": 1126,
        "contract": "contracts/DEXTokenControlMultiSig.sol:DEXTokenControlMultiSig",
        "label": "numConfirmationsRequired",
        "offset": 0,
        "slot": "2",
        "type": "t_uint256"
      },
      {
        "astId": 1145,
        "contract": "contracts/DEXTokenControlMultiSig.sol:DEXTokenControlMultiSig",
        "label": "isConfirmed",
        "offset": 0,
        "slot": "3",
        "type": "t_mapping(t_uint256,t_mapping(t_address,t_bool))"
      },
      {
        "astId": 1149,
        "contract": "contracts/DEXTokenControlMultiSig.sol:DEXTokenControlMultiSig",
        "label": "transactions",
        "offset": 0,
        "slot": "4",
        "type": "t_array(t_struct(Transaction)1139_storage)dyn_storage"
      }
    ],
    "types": {
      "t_address": {
        "encoding": "inplace",
        "label": "address",
        "numberOfBytes": "20"
      },
      "t_array(t_address)dyn_storage": {
        "base": "t_address",
        "encoding": "dynamic_array",
        "label": "address[]",
        "numberOfBytes": "32"
      },
      "t_array(t_struct(Transaction)1139_storage)dyn_storage": {
        "base": "t_struct(Transaction)1139_storage",
        "encoding": "dynamic_array",
        "label": "struct DEXTokenControlMultiSig.Transaction[]",
        "numberOfBytes": "32"
      },
      "t_bool": {
        "encoding": "inplace",
        "label": "bool",
        "numberOfBytes": "1"
      },
      "t_bytes_storage": {
        "encoding": "bytes",
        "label": "bytes",
        "numberOfBytes": "32"
      },
      "t_mapping(t_address,t_bool)": {
        "encoding": "mapping",
        "key": "t_address",
        "label": "mapping(address => bool)",
        "numberOfBytes": "32",
        "value": "t_bool"
      },
      "t_mapping(t_uint256,t_mapping(t_address,t_bool))": {
        "encoding": "mapping",
        "key": "t_uint256",
        "label": "mapping(uint256 => mapping(address => bool))",
        "numberOfBytes": "32",
        "value": "t_mapping(t_address,t_bool)"
      },
      "t_struct(Transaction)1139_storage": {
        "encoding": "inplace",
        "label": "struct DEXTokenControlMultiSig.Transaction",
        "members": [
          {
            "astId": 1128,
            "contract": "contracts/DEXTokenControlMultiSig.sol:DEXTokenControlMultiSig",
            "label": "to",
            "offset": 0,
            "slot": "0",
            "type": "t_address"
          },
          {
            "astId": 1130,
            "contract": "contracts/DEXTokenControlMultiSig.sol:DEXTokenControlMultiSig",
            "label": "toMint",
            "offset": 0,
            "slot": "1",
            "type": "t_address"
          },
          {
            "astId": 1132,
            "contract": "contracts/DEXTokenControlMultiSig.sol:DEXTokenControlMultiSig",
            "label": "value",
            "offset": 0,
            "slot": "2",
            "type": "t_uint256"
          },
          {
            "astId": 1134,
            "contract": "contracts/DEXTokenControlMultiSig.sol:DEXTokenControlMultiSig",
            "label": "data",
            "offset": 0,
            "slot": "3",
            "type": "t_bytes_storage"
          },
          {
            "astId": 1136,
            "contract": "contracts/DEXTokenControlMultiSig.sol:DEXTokenControlMultiSig",
            "label": "executed",
            "offset": 0,
            "slot": "4",
            "type": "t_bool"
          },
          {
            "astId": 1138,
            "contract": "contracts/DEXTokenControlMultiSig.sol:DEXTokenControlMultiSig",
            "label": "numConfirmations",
            "offset": 0,
            "slot": "5",
            "type": "t_uint256"
          }
        ],
        "numberOfBytes": "192"
      },
      "t_uint256": {
        "encoding": "inplace",
        "label": "uint256",
        "numberOfBytes": "32"
      }
    }
  }
}