{
  "address": "0xa1822C6bf2f7718a82fCDCe87F74F4B71B100844",
  "abi": [
    {
      "inputs": [
        {
          "internalType": "address",
          "name": "yeahTokenAddress",
          "type": "address"
        }
      ],
      "stateMutability": "nonpayable",
      "type": "constructor"
    },
    {
      "inputs": [],
      "name": "deposit",
      "outputs": [
        {
          "internalType": "uint256",
          "name": "",
          "type": "uint256"
        }
      ],
      "stateMutability": "payable",
      "type": "function"
    },
    {
      "inputs": [],
      "name": "ethToToken",
      "outputs": [
        {
          "internalType": "uint256",
          "name": "",
          "type": "uint256"
        }
      ],
      "stateMutability": "payable",
      "type": "function"
    },
    {
      "inputs": [
        {
          "internalType": "uint256",
          "name": "msgValue",
          "type": "uint256"
        }
      ],
      "name": "ethToTokenView",
      "outputs": [
        {
          "internalType": "uint256",
          "name": "",
          "type": "uint256"
        }
      ],
      "stateMutability": "view",
      "type": "function"
    },
    {
      "inputs": [],
      "name": "getLiquidity",
      "outputs": [
        {
          "internalType": "uint256",
          "name": "",
          "type": "uint256"
        }
      ],
      "stateMutability": "view",
      "type": "function"
    },
    {
      "inputs": [
        {
          "internalType": "address",
          "name": "liquidityProvider",
          "type": "address"
        }
      ],
      "name": "getLiquidityProvided",
      "outputs": [
        {
          "internalType": "uint256",
          "name": "",
          "type": "uint256"
        }
      ],
      "stateMutability": "view",
      "type": "function"
    },
    {
      "inputs": [],
      "name": "getTokenReserves",
      "outputs": [
        {
          "internalType": "uint256",
          "name": "",
          "type": "uint256"
        }
      ],
      "stateMutability": "view",
      "type": "function"
    },
    {
      "inputs": [
        {
          "internalType": "uint256",
          "name": "tokens",
          "type": "uint256"
        }
      ],
      "name": "init",
      "outputs": [
        {
          "internalType": "uint256",
          "name": "",
          "type": "uint256"
        }
      ],
      "stateMutability": "payable",
      "type": "function"
    },
    {
      "inputs": [
        {
          "internalType": "address",
          "name": "",
          "type": "address"
        }
      ],
      "name": "liquidityProvided",
      "outputs": [
        {
          "internalType": "uint256",
          "name": "",
          "type": "uint256"
        }
      ],
      "stateMutability": "view",
      "type": "function"
    },
    {
      "inputs": [
        {
          "internalType": "uint256",
          "name": "tokens",
          "type": "uint256"
        }
      ],
      "name": "tokenToEth",
      "outputs": [
        {
          "internalType": "uint256",
          "name": "",
          "type": "uint256"
        }
      ],
      "stateMutability": "payable",
      "type": "function"
    },
    {
      "inputs": [
        {
          "internalType": "uint256",
          "name": "tokens",
          "type": "uint256"
        }
      ],
      "name": "tokenToEthView",
      "outputs": [
        {
          "internalType": "uint256",
          "name": "",
          "type": "uint256"
        }
      ],
      "stateMutability": "view",
      "type": "function"
    },
    {
      "inputs": [],
      "name": "totalLiquidity",
      "outputs": [
        {
          "internalType": "uint256",
          "name": "",
          "type": "uint256"
        }
      ],
      "stateMutability": "view",
      "type": "function"
    },
    {
      "inputs": [
        {
          "internalType": "uint256",
          "name": "amount",
          "type": "uint256"
        }
      ],
      "name": "withdraw",
      "outputs": [
        {
          "internalType": "uint256",
          "name": "",
          "type": "uint256"
        },
        {
          "internalType": "uint256",
          "name": "",
          "type": "uint256"
        }
      ],
      "stateMutability": "nonpayable",
      "type": "function"
    }
  ],
  "transactionHash": "0xda793ebddec0dff62cc969591992a9efd0c396543fe4899525061e0705784cf6",
  "args": [
    "0xD02f877E7c9748B69729ACf39949C12A8D529B5c"
  ],
  "numDeployments": 4,
  "solcInputHash": "294c9922ba5a000ae3698b23ed438019",
  "bytecode": "0x60806040523480156200001157600080fd5b506040516200192e3803806200192e833981810160405281019062000037919062000095565b806000806101000a81548173ffffffffffffffffffffffffffffffffffffffff021916908373ffffffffffffffffffffffffffffffffffffffff160217905550506200010f565b6000815190506200008f81620000f5565b92915050565b600060208284031215620000a857600080fd5b6000620000b8848285016200007e565b91505092915050565b6000620000ce82620000d5565b9050919050565b600073ffffffffffffffffffffffffffffffffffffffff82169050919050565b6200010081620000c1565b81146200010c57600080fd5b50565b61180f806200011f6000396000f3fe6080604052600436106100a75760003560e01c8063789770f411610064578063789770f4146101ea57806380c1443b1461020857806386e35a9a14610245578063b7b0422d14610282578063b9cf5005146102b2578063d0e30db0146102dd576100a7565b80630910a510146100ac57806315770f92146100d75780631e2bc321146101025780632e1a7d4d1461013f57806365119f721461017d57806370b2a30f146101ba575b600080fd5b3480156100b857600080fd5b506100c16102fb565b6040516100ce9190611579565b60405180910390f35b3480156100e357600080fd5b506100ec610305565b6040516100f99190611579565b60405180910390f35b34801561010e57600080fd5b5061012960048036038101906101249190611207565b61030b565b6040516101369190611579565b60405180910390f35b34801561014b57600080fd5b5061016660048036038101906101619190611259565b6103d5565b604051610174929190611594565b60405180910390f35b34801561018957600080fd5b506101a4600480360381019061019f9190611207565b610689565b6040516101b19190611579565b60405180910390f35b6101d460048036038101906101cf9190611259565b6106a1565b6040516101e19190611579565b60405180910390f35b6101f2610903565b6040516101ff9190611579565b60405180910390f35b34801561021457600080fd5b5061022f600480360381019061022a9190611259565b610ac6565b60405161023c9190611579565b60405180910390f35b34801561025157600080fd5b5061026c60048036038101906102679190611259565b610b9f565b6040516102799190611579565b60405180910390f35b61029c60048036038101906102979190611259565b610c66565b6040516102a99190611579565b60405180910390f35b3480156102be57600080fd5b506102c7610dbb565b6040516102d49190611579565b60405180910390f35b6102e5610e6c565b6040516102f29190611579565b60405180910390f35b6000600154905090565b60015481565b600080600260008473ffffffffffffffffffffffffffffffffffffffff1673ffffffffffffffffffffffffffffffffffffffff168152602001908152602001600020541161038e576040517f08c379a0000000000000000000000000000000000000000000000000000000008152600401610385906114d9565b60405180910390fd5b600260008373ffffffffffffffffffffffffffffffffffffffff1673ffffffffffffffffffffffffffffffffffffffff168152602001908152602001600020549050919050565b60008060008060009054906101000a900473ffffffffffffffffffffffffffffffffffffffff1673ffffffffffffffffffffffffffffffffffffffff166370a08231306040518263ffffffff1660e01b8152600401610434919061145e565b60206040518083038186803b15801561044c57600080fd5b505afa158015610460573d6000803e3d6000fd5b505050506040513d601f19601f820116820180604052508101906104849190611282565b9050600060015461049e47876110fd90919063ffffffff16565b6104a8919061162f565b905060006001546104c284886110fd90919063ffffffff16565b6104cc919061162f565b905061052082600260003373ffffffffffffffffffffffffffffffffffffffff1673ffffffffffffffffffffffffffffffffffffffff1681526020019081526020016000205461111390919063ffffffff16565b600260003373ffffffffffffffffffffffffffffffffffffffff1673ffffffffffffffffffffffffffffffffffffffff168152602001908152602001600020819055506105788260015461111390919063ffffffff16565b6001819055503373ffffffffffffffffffffffffffffffffffffffff166108fc839081150290604051600060405180830381858888f193505050501580156105c4573d6000803e3d6000fd5b5060008054906101000a900473ffffffffffffffffffffffffffffffffffffffff1673ffffffffffffffffffffffffffffffffffffffff1663a9059cbb33836040518363ffffffff1660e01b81526004016106209291906114b0565b602060405180830381600087803b15801561063a57600080fd5b505af115801561064e573d6000803e3d6000fd5b505050506040513d601f19601f820116820180604052508101906106729190611230565b61067b57600080fd5b818194509450505050915091565b60026020528060005260406000206000915090505481565b60008060008054906101000a900473ffffffffffffffffffffffffffffffffffffffff1673ffffffffffffffffffffffffffffffffffffffff166370a08231306040518263ffffffff1660e01b81526004016106fd919061145e565b60206040518083038186803b15801561071557600080fd5b505afa158015610729573d6000803e3d6000fd5b505050506040513d601f19601f8201168201806040525081019061074d9190611282565b9050600061075c848347611129565b905060008054906101000a900473ffffffffffffffffffffffffffffffffffffffff1673ffffffffffffffffffffffffffffffffffffffff166323b872dd3330876040518463ffffffff1660e01b81526004016107bb93929190611479565b602060405180830381600087803b1580156107d557600080fd5b505af11580156107e9573d6000803e3d6000fd5b505050506040513d601f19601f8201168201806040525081019061080d9190611230565b61084c576040517f08c379a0000000000000000000000000000000000000000000000000000000008152600401610843906114f9565b60405180910390fd5b60003373ffffffffffffffffffffffffffffffffffffffff168260405161087290611449565b60006040518083038185875af1925050503d80600081146108af576040519150601f19603f3d011682016040523d82523d6000602084013e6108b4565b606091505b50509050806108f8576040517f08c379a00000000000000000000000000000000000000000000000000000000081526004016108ef90611539565b60405180910390fd5b819350505050919050565b60008060008054906101000a900473ffffffffffffffffffffffffffffffffffffffff1673ffffffffffffffffffffffffffffffffffffffff166370a08231306040518263ffffffff1660e01b815260040161095f919061145e565b60206040518083038186803b15801561097757600080fd5b505afa15801561098b573d6000803e3d6000fd5b505050506040513d601f19601f820116820180604052508101906109af9190611282565b905060006109d0346109ca344761111390919063ffffffff16565b84611129565b905060008054906101000a900473ffffffffffffffffffffffffffffffffffffffff1673ffffffffffffffffffffffffffffffffffffffff1663a9059cbb33836040518363ffffffff1660e01b8152600401610a2d9291906114b0565b602060405180830381600087803b158015610a4757600080fd5b505af1158015610a5b573d6000803e3d6000fd5b505050506040513d601f19601f82011682018060405250810190610a7f9190611230565b610abe576040517f08c379a0000000000000000000000000000000000000000000000000000000008152600401610ab590611559565b60405180910390fd5b809250505090565b60008060008054906101000a900473ffffffffffffffffffffffffffffffffffffffff1673ffffffffffffffffffffffffffffffffffffffff166370a08231306040518263ffffffff1660e01b8152600401610b22919061145e565b60206040518083038186803b158015610b3a57600080fd5b505afa158015610b4e573d6000803e3d6000fd5b505050506040513d601f19601f82011682018060405250810190610b729190611282565b90506000610b9384610b8d864761111390919063ffffffff16565b84611129565b90508092505050919050565b60008060008054906101000a900473ffffffffffffffffffffffffffffffffffffffff1673ffffffffffffffffffffffffffffffffffffffff166370a08231306040518263ffffffff1660e01b8152600401610bfb919061145e565b60206040518083038186803b158015610c1357600080fd5b505afa158015610c27573d6000803e3d6000fd5b505050506040513d601f19601f82011682018060405250810190610c4b9190611282565b90506000610c5a848347611129565b90508092505050919050565b60008060015414610cac576040517f08c379a0000000000000000000000000000000000000000000000000000000008152600401610ca390611519565b60405180910390fd5b47600181905550600154600260003373ffffffffffffffffffffffffffffffffffffffff1673ffffffffffffffffffffffffffffffffffffffff1681526020019081526020016000208190555060008054906101000a900473ffffffffffffffffffffffffffffffffffffffff1673ffffffffffffffffffffffffffffffffffffffff166323b872dd3330856040518463ffffffff1660e01b8152600401610d5693929190611479565b602060405180830381600087803b158015610d7057600080fd5b505af1158015610d84573d6000803e3d6000fd5b505050506040513d601f19601f82011682018060405250810190610da89190611230565b610db157600080fd5b6001549050919050565b60008060009054906101000a900473ffffffffffffffffffffffffffffffffffffffff1673ffffffffffffffffffffffffffffffffffffffff166370a08231306040518263ffffffff1660e01b8152600401610e17919061145e565b60206040518083038186803b158015610e2f57600080fd5b505afa158015610e43573d6000803e3d6000fd5b505050506040513d601f19601f82011682018060405250810190610e679190611282565b905090565b600080610e82344761111390919063ffffffff16565b905060008060009054906101000a900473ffffffffffffffffffffffffffffffffffffffff1673ffffffffffffffffffffffffffffffffffffffff166370a08231306040518263ffffffff1660e01b8152600401610ee0919061145e565b60206040518083038186803b158015610ef857600080fd5b505afa158015610f0c573d6000803e3d6000fd5b505050506040513d601f19601f82011682018060405250810190610f309190611282565b90506000610f65600184610f4d85346110fd90919063ffffffff16565b610f57919061162f565b61119d90919063ffffffff16565b9050600083610f7f600154346110fd90919063ffffffff16565b610f89919061162f565b9050610fdd81600260003373ffffffffffffffffffffffffffffffffffffffff1673ffffffffffffffffffffffffffffffffffffffff1681526020019081526020016000205461119d90919063ffffffff16565b600260003373ffffffffffffffffffffffffffffffffffffffff1673ffffffffffffffffffffffffffffffffffffffff168152602001908152602001600020819055506110358160015461119d90919063ffffffff16565b60018190555060008054906101000a900473ffffffffffffffffffffffffffffffffffffffff1673ffffffffffffffffffffffffffffffffffffffff166323b872dd3330856040518463ffffffff1660e01b815260040161109893929190611479565b602060405180830381600087803b1580156110b257600080fd5b505af11580156110c6573d6000803e3d6000fd5b505050506040513d601f19601f820116820180604052508101906110ea9190611230565b6110f357600080fd5b8094505050505090565b6000818361110b9190611660565b905092915050565b6000818361112191906116ba565b905092915050565b6000806111416103e5866110fd90919063ffffffff16565b9050600061115882856110fd90919063ffffffff16565b90506000611183836111756103e8896110fd90919063ffffffff16565b61119d90919063ffffffff16565b90508082611191919061162f565b93505050509392505050565b600081836111ab91906115d9565b905092915050565b6000813590506111c281611794565b92915050565b6000815190506111d7816117ab565b92915050565b6000813590506111ec816117c2565b92915050565b600081519050611201816117c2565b92915050565b60006020828403121561121957600080fd5b6000611227848285016111b3565b91505092915050565b60006020828403121561124257600080fd5b6000611250848285016111c8565b91505092915050565b60006020828403121561126b57600080fd5b6000611279848285016111dd565b91505092915050565b60006020828403121561129457600080fd5b60006112a2848285016111f2565b91505092915050565b6112b4816116ee565b82525050565b60006112c7602f836115c8565b91507f6164647265737320686173206e6f742070726f7669646564206c69717569646960008301527f747920746f207468697320706f6f6c00000000000000000000000000000000006020830152604082019050919050565b600061132d6019836115c8565b91507f6661696c656420746f207472616e7366657220746f6b656e73000000000000006000830152602082019050919050565b600061136d6020836115c8565b91507f6465782068617320616c7265616479206265656e20696e697469616c697a65646000830152602082019050919050565b60006113ad6012836115c8565b91507f6661696c656420746f2073656e642045544800000000000000000000000000006000830152602082019050919050565b60006113ed6000836115bd565b9150600082019050919050565b60006114076016836115c8565b91507f6661696c656420746f207472616e7366657220455448000000000000000000006000830152602082019050919050565b6114438161172c565b82525050565b6000611454826113e0565b9150819050919050565b600060208201905061147360008301846112ab565b92915050565b600060608201905061148e60008301866112ab565b61149b60208301856112ab565b6114a8604083018461143a565b949350505050565b60006040820190506114c560008301856112ab565b6114d2602083018461143a565b9392505050565b600060208201905081810360008301526114f2816112ba565b9050919050565b6000602082019050818103600083015261151281611320565b9050919050565b6000602082019050818103600083015261153281611360565b9050919050565b60006020820190508181036000830152611552816113a0565b9050919050565b60006020820190508181036000830152611572816113fa565b9050919050565b600060208201905061158e600083018461143a565b92915050565b60006040820190506115a9600083018561143a565b6115b6602083018461143a565b9392505050565b600081905092915050565b600082825260208201905092915050565b60006115e48261172c565b91506115ef8361172c565b9250827fffffffffffffffffffffffffffffffffffffffffffffffffffffffffffffffff0382111561162457611623611736565b5b828201905092915050565b600061163a8261172c565b91506116458361172c565b92508261165557611654611765565b5b828204905092915050565b600061166b8261172c565b91506116768361172c565b9250817fffffffffffffffffffffffffffffffffffffffffffffffffffffffffffffffff04831182151516156116af576116ae611736565b5b828202905092915050565b60006116c58261172c565b91506116d08361172c565b9250828210156116e3576116e2611736565b5b828203905092915050565b60006116f98261170c565b9050919050565b60008115159050919050565b600073ffffffffffffffffffffffffffffffffffffffff82169050919050565b6000819050919050565b7f4e487b7100000000000000000000000000000000000000000000000000000000600052601160045260246000fd5b7f4e487b7100000000000000000000000000000000000000000000000000000000600052601260045260246000fd5b61179d816116ee565b81146117a857600080fd5b50565b6117b481611700565b81146117bf57600080fd5b50565b6117cb8161172c565b81146117d657600080fd5b5056fea264697066735822122048b1581538c3df3dd7292bdda78b74f5d7c013e198b0cf8d89c6d7dd6270c49464736f6c63430008000033",
  "devdoc": {
    "kind": "dev",
    "methods": {},
    "version": 1
  },
  "userdoc": {
    "kind": "user",
    "methods": {},
    "version": 1
  },
  "storageLayout": {
    "storage": [
      {
        "astId": 1032,
        "contract": "contracts/DexV1.sol:DexV1",
        "label": "token",
        "offset": 0,
        "slot": "0",
        "type": "t_contract(IERC20)663"
      },
      {
        "astId": 1034,
        "contract": "contracts/DexV1.sol:DexV1",
        "label": "totalLiquidity",
        "offset": 0,
        "slot": "1",
        "type": "t_uint256"
      },
      {
        "astId": 1038,
        "contract": "contracts/DexV1.sol:DexV1",
        "label": "liquidityProvided",
        "offset": 0,
        "slot": "2",
        "type": "t_mapping(t_address,t_uint256)"
      }
    ],
    "types": {
      "t_address": {
        "encoding": "inplace",
        "label": "address",
        "numberOfBytes": "20"
      },
      "t_contract(IERC20)663": {
        "encoding": "inplace",
        "label": "contract IERC20",
        "numberOfBytes": "20"
      },
      "t_mapping(t_address,t_uint256)": {
        "encoding": "mapping",
        "key": "t_address",
        "label": "mapping(address => uint256)",
        "numberOfBytes": "32",
        "value": "t_uint256"
      },
      "t_uint256": {
        "encoding": "inplace",
        "label": "uint256",
        "numberOfBytes": "32"
      }
    }
  }
}