{
  "address": "0xb11976aE499B484b937272392311352343f31a47",
  "abi": [
    {
      "inputs": [],
      "stateMutability": "nonpayable",
      "type": "constructor"
    },
    {
      "anonymous": false,
      "inputs": [
        {
          "indexed": true,
          "internalType": "address",
          "name": "owner",
          "type": "address"
        },
        {
          "indexed": true,
          "internalType": "uint256",
          "name": "txIndex",
          "type": "uint256"
        }
      ],
      "name": "ConfirmTransaction",
      "type": "event"
    },
    {
      "anonymous": false,
      "inputs": [
        {
          "indexed": true,
          "internalType": "address",
          "name": "sender",
          "type": "address"
        },
        {
          "indexed": false,
          "internalType": "uint256",
          "name": "amount",
          "type": "uint256"
        },
        {
          "indexed": false,
          "internalType": "uint256",
          "name": "balance",
          "type": "uint256"
        }
      ],
      "name": "Deposit",
      "type": "event"
    },
    {
      "anonymous": false,
      "inputs": [
        {
          "indexed": true,
          "internalType": "address",
          "name": "owner",
          "type": "address"
        },
        {
          "indexed": true,
          "internalType": "uint256",
          "name": "txIndex",
          "type": "uint256"
        }
      ],
      "name": "ExecuteTransaction",
      "type": "event"
    },
    {
      "anonymous": false,
      "inputs": [
        {
          "indexed": true,
          "internalType": "address",
          "name": "owner",
          "type": "address"
        },
        {
          "indexed": true,
          "internalType": "uint256",
          "name": "txIndex",
          "type": "uint256"
        }
      ],
      "name": "RevokeConfirmation",
      "type": "event"
    },
    {
      "anonymous": false,
      "inputs": [
        {
          "indexed": true,
          "internalType": "address",
          "name": "owner",
          "type": "address"
        },
        {
          "indexed": true,
          "internalType": "uint256",
          "name": "txIndex",
          "type": "uint256"
        },
        {
          "indexed": true,
          "internalType": "address",
          "name": "to",
          "type": "address"
        },
        {
          "indexed": false,
          "internalType": "uint256",
          "name": "value",
          "type": "uint256"
        },
        {
          "indexed": false,
          "internalType": "bytes",
          "name": "data",
          "type": "bytes"
        }
      ],
      "name": "SubmitTransaction",
      "type": "event"
    },
    {
      "inputs": [
        {
          "internalType": "uint256",
          "name": "_txIndex",
          "type": "uint256"
        }
      ],
      "name": "confirmTransaction",
      "outputs": [],
      "stateMutability": "nonpayable",
      "type": "function"
    },
    {
      "inputs": [
        {
          "internalType": "address",
          "name": "erc20ContractAddress",
          "type": "address"
        },
        {
          "internalType": "address",
          "name": "mintRecipient",
          "type": "address"
        },
        {
          "internalType": "uint256",
          "name": "tokensToMint",
          "type": "uint256"
        }
      ],
      "name": "erc20Mint",
      "outputs": [],
      "stateMutability": "nonpayable",
      "type": "function"
    },
    {
      "inputs": [
        {
          "internalType": "uint256",
          "name": "_txIndex",
          "type": "uint256"
        }
      ],
      "name": "executeTransaction",
      "outputs": [],
      "stateMutability": "nonpayable",
      "type": "function"
    },
    {
      "inputs": [],
      "name": "getOwners",
      "outputs": [
        {
          "internalType": "address[]",
          "name": "",
          "type": "address[]"
        }
      ],
      "stateMutability": "view",
      "type": "function"
    },
    {
      "inputs": [
        {
          "internalType": "uint256",
          "name": "_txIndex",
          "type": "uint256"
        }
      ],
      "name": "getTransaction",
      "outputs": [
        {
          "internalType": "address",
          "name": "to",
          "type": "address"
        },
        {
          "internalType": "uint256",
          "name": "value",
          "type": "uint256"
        },
        {
          "internalType": "bytes",
          "name": "data",
          "type": "bytes"
        },
        {
          "internalType": "bool",
          "name": "executed",
          "type": "bool"
        },
        {
          "internalType": "uint256",
          "name": "numConfirmations",
          "type": "uint256"
        }
      ],
      "stateMutability": "view",
      "type": "function"
    },
    {
      "inputs": [],
      "name": "getTransactionCount",
      "outputs": [
        {
          "internalType": "uint256",
          "name": "",
          "type": "uint256"
        }
      ],
      "stateMutability": "view",
      "type": "function"
    },
    {
      "inputs": [
        {
          "internalType": "uint256",
          "name": "",
          "type": "uint256"
        },
        {
          "internalType": "address",
          "name": "",
          "type": "address"
        }
      ],
      "name": "isConfirmed",
      "outputs": [
        {
          "internalType": "bool",
          "name": "",
          "type": "bool"
        }
      ],
      "stateMutability": "view",
      "type": "function"
    },
    {
      "inputs": [
        {
          "internalType": "address",
          "name": "",
          "type": "address"
        }
      ],
      "name": "isOwner",
      "outputs": [
        {
          "internalType": "bool",
          "name": "",
          "type": "bool"
        }
      ],
      "stateMutability": "view",
      "type": "function"
    },
    {
      "inputs": [],
      "name": "numConfirmationsRequired",
      "outputs": [
        {
          "internalType": "uint256",
          "name": "",
          "type": "uint256"
        }
      ],
      "stateMutability": "view",
      "type": "function"
    },
    {
      "inputs": [
        {
          "internalType": "uint256",
          "name": "",
          "type": "uint256"
        }
      ],
      "name": "owners",
      "outputs": [
        {
          "internalType": "address",
          "name": "",
          "type": "address"
        }
      ],
      "stateMutability": "view",
      "type": "function"
    },
    {
      "inputs": [
        {
          "internalType": "uint256",
          "name": "_txIndex",
          "type": "uint256"
        }
      ],
      "name": "revokeConfirmation",
      "outputs": [],
      "stateMutability": "nonpayable",
      "type": "function"
    },
    {
      "inputs": [],
      "name": "sendEthBack",
      "outputs": [],
      "stateMutability": "nonpayable",
      "type": "function"
    },
    {
      "inputs": [
        {
          "internalType": "address",
          "name": "_to",
          "type": "address"
        },
        {
          "internalType": "uint256",
          "name": "_value",
          "type": "uint256"
        },
        {
          "internalType": "bytes",
          "name": "_data",
          "type": "bytes"
        }
      ],
      "name": "submitTransaction",
      "outputs": [],
      "stateMutability": "nonpayable",
      "type": "function"
    },
    {
      "inputs": [
        {
          "internalType": "uint256",
          "name": "",
          "type": "uint256"
        }
      ],
      "name": "transactions",
      "outputs": [
        {
          "internalType": "address",
          "name": "to",
          "type": "address"
        },
        {
          "internalType": "uint256",
          "name": "value",
          "type": "uint256"
        },
        {
          "internalType": "bytes",
          "name": "data",
          "type": "bytes"
        },
        {
          "internalType": "bool",
          "name": "executed",
          "type": "bool"
        },
        {
          "internalType": "uint256",
          "name": "numConfirmations",
          "type": "uint256"
        }
      ],
      "stateMutability": "view",
      "type": "function"
    },
    {
      "stateMutability": "payable",
      "type": "receive"
    }
  ],
  "transactionHash": "0x233ef81e0ebe5cf0b2f74886dd304a5a070ca3bd09cc5b212c3bd2c3f7de2185",
  "args": [],
  "numDeployments": 1,
  "solcInputHash": "2dd3fd751ff764d4b0be2cc66aaaefe2",
  "bytecode": "0x60806040523480156200001157600080fd5b50600060405180606001604052807368c6bc0b3a315d4c736514a0685b63458937728a73ffffffffffffffffffffffffffffffffffffffff1673ffffffffffffffffffffffffffffffffffffffff16815260200173684585a4e1f28d83f7404f0ec785758c100a350973ffffffffffffffffffffffffffffffffffffffff1673ffffffffffffffffffffffffffffffffffffffff16815260200173ff5be4c96a0f54d86a6b1d709e4c05601c8ea0ab73ffffffffffffffffffffffffffffffffffffffff1673ffffffffffffffffffffffffffffffffffffffff16815250905060005b6003811015620002125760008282600381106200013a577f4e487b7100000000000000000000000000000000000000000000000000000000600052603260045260246000fd5b6020020151905060018060008373ffffffffffffffffffffffffffffffffffffffff1673ffffffffffffffffffffffffffffffffffffffff16815260200190815260200160002060006101000a81548160ff0219169083151502179055506000819080600181540180825580915050600190039060005260206000200160009091909190916101000a81548173ffffffffffffffffffffffffffffffffffffffff021916908373ffffffffffffffffffffffffffffffffffffffff16021790555050808062000209906200022b565b915050620000f4565b506002808190555050620002a8565b6000819050919050565b6000620002388262000221565b91507fffffffffffffffffffffffffffffffffffffffffffffffffffffffffffffffff8214156200026e576200026d62000279565b5b600182019050919050565b7f4e487b7100000000000000000000000000000000000000000000000000000000600052601160045260246000fd5b6122c380620002b86000396000f3fe6080604052600436106100e15760003560e01c80639ace38c21161007f578063c642747411610059578063c642747414610347578063d0549b8514610370578063e0fb0f351461039b578063ee22610b146103b257610138565b80639ace38c2146102b2578063a0e67e2b146102f3578063c01a8c841461031e57610138565b80632e7700f0116100bb5780632e7700f0146101cc5780632f54bf6e146101f757806333ea3dc81461023457806380f59a651461027557610138565b8063025e7c271461013d57806312c413ed1461017a57806320ea8d86146101a357610138565b36610138573373ffffffffffffffffffffffffffffffffffffffff167f90890809c654f11d6e72a28fa60149770a0d11ec6c92319d6ceb2bb0a4ea1a15344760405161012e929190611f59565b60405180910390a2005b600080fd5b34801561014957600080fd5b50610164600480360381019061015f91906118df565b6103db565b6040516101719190611d03565b60405180910390f35b34801561018657600080fd5b506101a1600480360381019061019c9190611829565b61041a565b005b3480156101af57600080fd5b506101ca60048036038101906101c591906118df565b6106bb565b005b3480156101d857600080fd5b506101e16109e1565b6040516101ee9190611f0e565b60405180910390f35b34801561020357600080fd5b5061021e60048036038101906102199190611800565b6109ee565b60405161022b9190611dc3565b60405180910390f35b34801561024057600080fd5b5061025b600480360381019061025691906118df565b610a0e565b60405161026c959493929190611d47565b60405180910390f35b34801561028157600080fd5b5061029c60048036038101906102979190611908565b610b47565b6040516102a99190611dc3565b60405180910390f35b3480156102be57600080fd5b506102d960048036038101906102d491906118df565b610b76565b6040516102ea959493929190611d47565b60405180910390f35b3480156102ff57600080fd5b50610308610c71565b6040516103159190611da1565b60405180910390f35b34801561032a57600080fd5b50610345600480360381019061034091906118df565b610cff565b005b34801561035357600080fd5b5061036e60048036038101906103699190611878565b611028565b005b34801561037c57600080fd5b50610385611232565b6040516103929190611f0e565b60405180910390f35b3480156103a757600080fd5b506103b0611238565b005b3480156103be57600080fd5b506103d960048036038101906103d491906118df565b611387565b005b600081815481106103eb57600080fd5b906000526020600020016000915054906101000a900473ffffffffffffffffffffffffffffffffffffffff1681565b600160003373ffffffffffffffffffffffffffffffffffffffff1673ffffffffffffffffffffffffffffffffffffffff16815260200190815260200160002060009054906101000a900460ff166104a6576040517f08c379a000000000000000000000000000000000000000000000000000000000815260040161049d90611eee565b60405180910390fd5b600082826040516024016104bb929190611d1e565b6040516020818303038152906040527f0549a1be000000000000000000000000000000000000000000000000000000007bffffffffffffffffffffffffffffffffffffffffffffffffffffffff19166020820180517bffffffffffffffffffffffffffffffffffffffffffffffffffffffff838183161783525050505090506000600480549050905060046040518060a001604052808773ffffffffffffffffffffffffffffffffffffffff168152602001600081526020018481526020016000151581526020016000815250908060018154018082558091505060019003906000526020600020906005020160009091909190915060008201518160000160006101000a81548173ffffffffffffffffffffffffffffffffffffffff021916908373ffffffffffffffffffffffffffffffffffffffff16021790555060208201518160010155604082015181600201908051906020019061061e9291906116cb565b5060608201518160030160006101000a81548160ff0219169083151502179055506080820151816004015550508473ffffffffffffffffffffffffffffffffffffffff16813373ffffffffffffffffffffffffffffffffffffffff167fd5a05bf70715ad82a09a756320284a1b54c9ff74cd0f8cce6219e79b563fe59d6000866040516106ac929190611dde565b60405180910390a45050505050565b600160003373ffffffffffffffffffffffffffffffffffffffff1673ffffffffffffffffffffffffffffffffffffffff16815260200190815260200160002060009054906101000a900460ff16610747576040517f08c379a000000000000000000000000000000000000000000000000000000000815260040161073e90611eee565b60405180910390fd5b80600480549050811061078f576040517f08c379a000000000000000000000000000000000000000000000000000000000815260040161078690611e4e565b60405180910390fd5b81600481815481106107ca577f4e487b7100000000000000000000000000000000000000000000000000000000600052603260045260246000fd5b906000526020600020906005020160030160009054906101000a900460ff1615610829576040517f08c379a000000000000000000000000000000000000000000000000000000000815260040161082090611e8e565b60405180910390fd5b600060048481548110610865577f4e487b7100000000000000000000000000000000000000000000000000000000600052603260045260246000fd5b906000526020600020906005020190506003600085815260200190815260200160002060003373ffffffffffffffffffffffffffffffffffffffff1673ffffffffffffffffffffffffffffffffffffffff16815260200190815260200160002060009054906101000a900460ff16610912576040517f08c379a000000000000000000000000000000000000000000000000000000000815260040161090990611eae565b60405180910390fd5b600181600401600082825461092791906120bf565b9250508190555060006003600086815260200190815260200160002060003373ffffffffffffffffffffffffffffffffffffffff1673ffffffffffffffffffffffffffffffffffffffff16815260200190815260200160002060006101000a81548160ff021916908315150217905550833373ffffffffffffffffffffffffffffffffffffffff167ff0dca620e2e81f7841d07bcc105e1704fb01475b278a9d4c236e1c62945edd5560405160405180910390a350505050565b6000600480549050905090565b60016020528060005260406000206000915054906101000a900460ff1681565b6000806060600080600060048781548110610a52577f4e487b7100000000000000000000000000000000000000000000000000000000600052603260045260246000fd5b906000526020600020906005020190508060000160009054906101000a900473ffffffffffffffffffffffffffffffffffffffff168160010154826002018360030160009054906101000a900460ff168460040154828054610ab39061218f565b80601f0160208091040260200160405190810160405280929190818152602001828054610adf9061218f565b8015610b2c5780601f10610b0157610100808354040283529160200191610b2c565b820191906000526020600020905b815481529060010190602001808311610b0f57829003601f168201915b50505050509250955095509550955095505091939590929450565b60036020528160005260406000206020528060005260406000206000915091509054906101000a900460ff1681565b60048181548110610b8657600080fd5b90600052602060002090600502016000915090508060000160009054906101000a900473ffffffffffffffffffffffffffffffffffffffff1690806001015490806002018054610bd59061218f565b80601f0160208091040260200160405190810160405280929190818152602001828054610c019061218f565b8015610c4e5780601f10610c2357610100808354040283529160200191610c4e565b820191906000526020600020905b815481529060010190602001808311610c3157829003601f168201915b5050505050908060030160009054906101000a900460ff16908060040154905085565b60606000805480602002602001604051908101604052809291908181526020018280548015610cf557602002820191906000526020600020905b8160009054906101000a900473ffffffffffffffffffffffffffffffffffffffff1673ffffffffffffffffffffffffffffffffffffffff1681526020019060010190808311610cab575b5050505050905090565b600160003373ffffffffffffffffffffffffffffffffffffffff1673ffffffffffffffffffffffffffffffffffffffff16815260200190815260200160002060009054906101000a900460ff16610d8b576040517f08c379a0000000000000000000000000000000000000000000000000000000008152600401610d8290611eee565b60405180910390fd5b806004805490508110610dd3576040517f08c379a0000000000000000000000000000000000000000000000000000000008152600401610dca90611e4e565b60405180910390fd5b8160048181548110610e0e577f4e487b7100000000000000000000000000000000000000000000000000000000600052603260045260246000fd5b906000526020600020906005020160030160009054906101000a900460ff1615610e6d576040517f08c379a0000000000000000000000000000000000000000000000000000000008152600401610e6490611e8e565b60405180910390fd5b826003600082815260200190815260200160002060003373ffffffffffffffffffffffffffffffffffffffff1673ffffffffffffffffffffffffffffffffffffffff16815260200190815260200160002060009054906101000a900460ff1615610f0c576040517f08c379a0000000000000000000000000000000000000000000000000000000008152600401610f0390611e6e565b60405180910390fd5b600060048581548110610f48577f4e487b7100000000000000000000000000000000000000000000000000000000600052603260045260246000fd5b906000526020600020906005020190506001816004016000828254610f6d9190612069565b9250508190555060016003600087815260200190815260200160002060003373ffffffffffffffffffffffffffffffffffffffff1673ffffffffffffffffffffffffffffffffffffffff16815260200190815260200160002060006101000a81548160ff021916908315150217905550843373ffffffffffffffffffffffffffffffffffffffff167f5cbe105e36805f7820e291f799d5794ff948af2a5f664e580382defb6339004160405160405180910390a35050505050565b600160003373ffffffffffffffffffffffffffffffffffffffff1673ffffffffffffffffffffffffffffffffffffffff16815260200190815260200160002060009054906101000a900460ff166110b4576040517f08c379a00000000000000000000000000000000000000000000000000000000081526004016110ab90611eee565b60405180910390fd5b6000600480549050905060046040518060a001604052808673ffffffffffffffffffffffffffffffffffffffff1681526020018581526020018481526020016000151581526020016000815250908060018154018082558091505060019003906000526020600020906005020160009091909190915060008201518160000160006101000a81548173ffffffffffffffffffffffffffffffffffffffff021916908373ffffffffffffffffffffffffffffffffffffffff1602179055506020820151816001015560408201518160020190805190602001906111979291906116cb565b5060608201518160030160006101000a81548160ff0219169083151502179055506080820151816004015550508373ffffffffffffffffffffffffffffffffffffffff16813373ffffffffffffffffffffffffffffffffffffffff167fd5a05bf70715ad82a09a756320284a1b54c9ff74cd0f8cce6219e79b563fe59d8686604051611224929190611f29565b60405180910390a450505050565b60025481565b600160003373ffffffffffffffffffffffffffffffffffffffff1673ffffffffffffffffffffffffffffffffffffffff16815260200190815260200160002060009054906101000a900460ff166112c4576040517f08c379a00000000000000000000000000000000000000000000000000000000081526004016112bb90611eee565b60405180910390fd5b600073684585a4e1f28d83f7404f0ec785758c100a350973ffffffffffffffffffffffffffffffffffffffff16476040516112fe90611cee565b60006040518083038185875af1925050503d806000811461133b576040519150601f19603f3d011682016040523d82523d6000602084013e611340565b606091505b5050905080611384576040517f08c379a000000000000000000000000000000000000000000000000000000000815260040161137b90611e0e565b60405180910390fd5b50565b600160003373ffffffffffffffffffffffffffffffffffffffff1673ffffffffffffffffffffffffffffffffffffffff16815260200190815260200160002060009054906101000a900460ff16611413576040517f08c379a000000000000000000000000000000000000000000000000000000000815260040161140a90611eee565b60405180910390fd5b80600480549050811061145b576040517f08c379a000000000000000000000000000000000000000000000000000000000815260040161145290611e4e565b60405180910390fd5b8160048181548110611496577f4e487b7100000000000000000000000000000000000000000000000000000000600052603260045260246000fd5b906000526020600020906005020160030160009054906101000a900460ff16156114f5576040517f08c379a00000000000000000000000000000000000000000000000000000000081526004016114ec90611e8e565b60405180910390fd5b600060048481548110611531577f4e487b7100000000000000000000000000000000000000000000000000000000600052603260045260246000fd5b906000526020600020906005020190506002548160040154101561158a576040517f08c379a000000000000000000000000000000000000000000000000000000000815260040161158190611ece565b60405180910390fd5b60018160030160006101000a81548160ff02191690831515021790555060008160000160009054906101000a900473ffffffffffffffffffffffffffffffffffffffff1673ffffffffffffffffffffffffffffffffffffffff168260010154836002016040516115fa9190611cd7565b60006040518083038185875af1925050503d8060008114611637576040519150601f19603f3d011682016040523d82523d6000602084013e61163c565b606091505b5050905080611680576040517f08c379a000000000000000000000000000000000000000000000000000000000815260040161167790611e2e565b60405180910390fd5b843373ffffffffffffffffffffffffffffffffffffffff167f5445f318f4f5fcfb66592e68e0cc5822aa15664039bd5f0ffde24c5a8142b1ac60405160405180910390a35050505050565b8280546116d79061218f565b90600052602060002090601f0160209004810192826116f95760008555611740565b82601f1061171257805160ff1916838001178555611740565b82800160010185558215611740579182015b8281111561173f578251825591602001919060010190611724565b5b50905061174d9190611751565b5090565b5b8082111561176a576000816000905550600101611752565b5090565b600061178161177c84611fb3565b611f82565b90508281526020810184848401111561179957600080fd5b6117a484828561214d565b509392505050565b6000813590506117bb8161225f565b92915050565b600082601f8301126117d257600080fd5b81356117e284826020860161176e565b91505092915050565b6000813590506117fa81612276565b92915050565b60006020828403121561181257600080fd5b6000611820848285016117ac565b91505092915050565b60008060006060848603121561183e57600080fd5b600061184c868287016117ac565b935050602061185d868287016117ac565b925050604061186e868287016117eb565b9150509250925092565b60008060006060848603121561188d57600080fd5b600061189b868287016117ac565b93505060206118ac868287016117eb565b925050604084013567ffffffffffffffff8111156118c957600080fd5b6118d5868287016117c1565b9150509250925092565b6000602082840312156118f157600080fd5b60006118ff848285016117eb565b91505092915050565b6000806040838503121561191b57600080fd5b6000611929858286016117eb565b925050602061193a858286016117ac565b9150509250929050565b6000611950838361195c565b60208301905092915050565b611965816120f3565b82525050565b611974816120f3565b82525050565b600061198582612008565b61198f818561202b565b935061199a83611fe3565b8060005b838110156119cb5781516119b28882611944565b97506119bd8361201e565b92505060018101905061199e565b5085935050505092915050565b6119e181612105565b82525050565b60006119f282612013565b6119fc818561203c565b9350611a0c81856020860161215c565b611a158161224e565b840191505092915050565b60008154611a2d8161218f565b611a37818661204d565b94506001821660008114611a525760018114611a6357611a96565b60ff19831686528186019350611a96565b611a6c85611ff3565b60005b83811015611a8e57815481890152600182019150602081019050611a6f565b838801955050505b50505092915050565b611aa88161213b565b82525050565b6000611abb601c83612058565b91507f6661696c656420746f2073656e642072656d61696e696e6720657468000000006000830152602082019050919050565b6000611afb600983612058565b91507f7478206661696c656400000000000000000000000000000000000000000000006000830152602082019050919050565b6000611b3b601183612058565b91507f747820646f6573206e6f742065786973740000000000000000000000000000006000830152602082019050919050565b6000611b7b601483612058565b91507f747820616c726561647920636f6e6669726d65640000000000000000000000006000830152602082019050919050565b6000611bbb60008361204d565b9150600082019050919050565b6000611bd5601383612058565b91507f747820616c7265616479206578656375746564000000000000000000000000006000830152602082019050919050565b6000611c15601083612058565b91507f7478206e6f7420636f6e6669726d6564000000000000000000000000000000006000830152602082019050919050565b6000611c55601183612058565b91507f63616e6e6f7420657865637574652074780000000000000000000000000000006000830152602082019050919050565b6000611c95600983612058565b91507f6e6f74206f776e657200000000000000000000000000000000000000000000006000830152602082019050919050565b611cd181612131565b82525050565b6000611ce38284611a20565b915081905092915050565b6000611cf982611bae565b9150819050919050565b6000602082019050611d18600083018461196b565b92915050565b6000604082019050611d33600083018561196b565b611d406020830184611cc8565b9392505050565b600060a082019050611d5c600083018861196b565b611d696020830187611cc8565b8181036040830152611d7b81866119e7565b9050611d8a60608301856119d8565b611d976080830184611cc8565b9695505050505050565b60006020820190508181036000830152611dbb818461197a565b905092915050565b6000602082019050611dd860008301846119d8565b92915050565b6000604082019050611df36000830185611a9f565b8181036020830152611e0581846119e7565b90509392505050565b60006020820190508181036000830152611e2781611aae565b9050919050565b60006020820190508181036000830152611e4781611aee565b9050919050565b60006020820190508181036000830152611e6781611b2e565b9050919050565b60006020820190508181036000830152611e8781611b6e565b9050919050565b60006020820190508181036000830152611ea781611bc8565b9050919050565b60006020820190508181036000830152611ec781611c08565b9050919050565b60006020820190508181036000830152611ee781611c48565b9050919050565b60006020820190508181036000830152611f0781611c88565b9050919050565b6000602082019050611f236000830184611cc8565b92915050565b6000604082019050611f3e6000830185611cc8565b8181036020830152611f5081846119e7565b90509392505050565b6000604082019050611f6e6000830185611cc8565b611f7b6020830184611cc8565b9392505050565b6000604051905081810181811067ffffffffffffffff82111715611fa957611fa861221f565b5b8060405250919050565b600067ffffffffffffffff821115611fce57611fcd61221f565b5b601f19601f8301169050602081019050919050565b6000819050602082019050919050565b60008190508160005260206000209050919050565b600081519050919050565b600081519050919050565b6000602082019050919050565b600082825260208201905092915050565b600082825260208201905092915050565b600081905092915050565b600082825260208201905092915050565b600061207482612131565b915061207f83612131565b9250827fffffffffffffffffffffffffffffffffffffffffffffffffffffffffffffffff038211156120b4576120b36121c1565b5b828201905092915050565b60006120ca82612131565b91506120d583612131565b9250828210156120e8576120e76121c1565b5b828203905092915050565b60006120fe82612111565b9050919050565b60008115159050919050565b600073ffffffffffffffffffffffffffffffffffffffff82169050919050565b6000819050919050565b600061214682612131565b9050919050565b82818337600083830152505050565b60005b8381101561217a57808201518184015260208101905061215f565b83811115612189576000848401525b50505050565b600060028204905060018216806121a757607f821691505b602082108114156121bb576121ba6121f0565b5b50919050565b7f4e487b7100000000000000000000000000000000000000000000000000000000600052601160045260246000fd5b7f4e487b7100000000000000000000000000000000000000000000000000000000600052602260045260246000fd5b7f4e487b7100000000000000000000000000000000000000000000000000000000600052604160045260246000fd5b6000601f19601f8301169050919050565b612268816120f3565b811461227357600080fd5b50565b61227f81612131565b811461228a57600080fd5b5056fea2646970667358221220d3f37b89c0995a2c4b21a64de3bcaab2802702fb211a8cd8d6bf5f4ddba54fb764736f6c63430008000033",
  "devdoc": {
    "kind": "dev",
    "methods": {},
    "version": 1
  },
  "userdoc": {
    "kind": "user",
    "methods": {},
    "version": 1
  },
  "storageLayout": {
    "storage": [
      {
        "astId": 1449,
        "contract": "contracts/tokenControlMultiSig.sol:tokenControlMultiSig",
        "label": "owners",
        "offset": 0,
        "slot": "0",
        "type": "t_array(t_address)dyn_storage"
      },
      {
        "astId": 1453,
        "contract": "contracts/tokenControlMultiSig.sol:tokenControlMultiSig",
        "label": "isOwner",
        "offset": 0,
        "slot": "1",
        "type": "t_mapping(t_address,t_bool)"
      },
      {
        "astId": 1455,
        "contract": "contracts/tokenControlMultiSig.sol:tokenControlMultiSig",
        "label": "numConfirmationsRequired",
        "offset": 0,
        "slot": "2",
        "type": "t_uint256"
      },
      {
        "astId": 1472,
        "contract": "contracts/tokenControlMultiSig.sol:tokenControlMultiSig",
        "label": "isConfirmed",
        "offset": 0,
        "slot": "3",
        "type": "t_mapping(t_uint256,t_mapping(t_address,t_bool))"
      },
      {
        "astId": 1476,
        "contract": "contracts/tokenControlMultiSig.sol:tokenControlMultiSig",
        "label": "transactions",
        "offset": 0,
        "slot": "4",
        "type": "t_array(t_struct(Transaction)1466_storage)dyn_storage"
      }
    ],
    "types": {
      "t_address": {
        "encoding": "inplace",
        "label": "address",
        "numberOfBytes": "20"
      },
      "t_array(t_address)dyn_storage": {
        "base": "t_address",
        "encoding": "dynamic_array",
        "label": "address[]",
        "numberOfBytes": "32"
      },
      "t_array(t_struct(Transaction)1466_storage)dyn_storage": {
        "base": "t_struct(Transaction)1466_storage",
        "encoding": "dynamic_array",
        "label": "struct tokenControlMultiSig.Transaction[]",
        "numberOfBytes": "32"
      },
      "t_bool": {
        "encoding": "inplace",
        "label": "bool",
        "numberOfBytes": "1"
      },
      "t_bytes_storage": {
        "encoding": "bytes",
        "label": "bytes",
        "numberOfBytes": "32"
      },
      "t_mapping(t_address,t_bool)": {
        "encoding": "mapping",
        "key": "t_address",
        "label": "mapping(address => bool)",
        "numberOfBytes": "32",
        "value": "t_bool"
      },
      "t_mapping(t_uint256,t_mapping(t_address,t_bool))": {
        "encoding": "mapping",
        "key": "t_uint256",
        "label": "mapping(uint256 => mapping(address => bool))",
        "numberOfBytes": "32",
        "value": "t_mapping(t_address,t_bool)"
      },
      "t_struct(Transaction)1466_storage": {
        "encoding": "inplace",
        "label": "struct tokenControlMultiSig.Transaction",
        "members": [
          {
            "astId": 1457,
            "contract": "contracts/tokenControlMultiSig.sol:tokenControlMultiSig",
            "label": "to",
            "offset": 0,
            "slot": "0",
            "type": "t_address"
          },
          {
            "astId": 1459,
            "contract": "contracts/tokenControlMultiSig.sol:tokenControlMultiSig",
            "label": "value",
            "offset": 0,
            "slot": "1",
            "type": "t_uint256"
          },
          {
            "astId": 1461,
            "contract": "contracts/tokenControlMultiSig.sol:tokenControlMultiSig",
            "label": "data",
            "offset": 0,
            "slot": "2",
            "type": "t_bytes_storage"
          },
          {
            "astId": 1463,
            "contract": "contracts/tokenControlMultiSig.sol:tokenControlMultiSig",
            "label": "executed",
            "offset": 0,
            "slot": "3",
            "type": "t_bool"
          },
          {
            "astId": 1465,
            "contract": "contracts/tokenControlMultiSig.sol:tokenControlMultiSig",
            "label": "numConfirmations",
            "offset": 0,
            "slot": "4",
            "type": "t_uint256"
          }
        ],
        "numberOfBytes": "160"
      },
      "t_uint256": {
        "encoding": "inplace",
        "label": "uint256",
        "numberOfBytes": "32"
      }
    }
  }
}